{
	"UserRegistry.sol": {
		"UserRegistry": {
			"abi": [
				{
					"inputs": [
						{
							"internalType": "contract EOCHO",
							"name": "_token",
							"type": "address"
						}
					],
					"stateMutability": "nonpayable",
					"type": "constructor"
				},
				{
					"inputs": [],
					"name": "AccessControlBadConfirmation",
					"type": "error"
				},
				{
					"inputs": [
						{
							"internalType": "address",
							"name": "account",
							"type": "address"
						},
						{
							"internalType": "bytes32",
							"name": "neededRole",
							"type": "bytes32"
						}
					],
					"name": "AccessControlUnauthorizedAccount",
					"type": "error"
				},
				{
					"anonymous": false,
					"inputs": [
						{
							"indexed": true,
							"internalType": "address",
							"name": "to",
							"type": "address"
						},
						{
							"indexed": false,
							"internalType": "uint256",
							"name": "amount",
							"type": "uint256"
						}
					],
					"name": "EOCHOAirdrop",
					"type": "event"
				},
				{
					"anonymous": false,
					"inputs": [
						{
							"indexed": true,
							"internalType": "bytes32",
							"name": "role",
							"type": "bytes32"
						},
						{
							"indexed": true,
							"internalType": "bytes32",
							"name": "previousAdminRole",
							"type": "bytes32"
						},
						{
							"indexed": true,
							"internalType": "bytes32",
							"name": "newAdminRole",
							"type": "bytes32"
						}
					],
					"name": "RoleAdminChanged",
					"type": "event"
				},
				{
					"anonymous": false,
					"inputs": [
						{
							"indexed": true,
							"internalType": "bytes32",
							"name": "role",
							"type": "bytes32"
						},
						{
							"indexed": true,
							"internalType": "address",
							"name": "account",
							"type": "address"
						},
						{
							"indexed": true,
							"internalType": "address",
							"name": "sender",
							"type": "address"
						}
					],
					"name": "RoleGranted",
					"type": "event"
				},
				{
					"anonymous": false,
					"inputs": [
						{
							"indexed": true,
							"internalType": "bytes32",
							"name": "role",
							"type": "bytes32"
						},
						{
							"indexed": true,
							"internalType": "address",
							"name": "account",
							"type": "address"
						},
						{
							"indexed": true,
							"internalType": "address",
							"name": "sender",
							"type": "address"
						}
					],
					"name": "RoleRevoked",
					"type": "event"
				},
				{
					"anonymous": false,
					"inputs": [
						{
							"indexed": true,
							"internalType": "address",
							"name": "user",
							"type": "address"
						},
						{
							"indexed": false,
							"internalType": "string",
							"name": "nickname",
							"type": "string"
						},
						{
							"indexed": false,
							"internalType": "string",
							"name": "city",
							"type": "string"
						}
					],
					"name": "UserRegistered",
					"type": "event"
				},
				{
					"inputs": [],
					"name": "ADMIN_ROLE",
					"outputs": [
						{
							"internalType": "bytes32",
							"name": "",
							"type": "bytes32"
						}
					],
					"stateMutability": "view",
					"type": "function"
				},
				{
					"inputs": [],
					"name": "AIRDROP_AMOUNT",
					"outputs": [
						{
							"internalType": "uint256",
							"name": "",
							"type": "uint256"
						}
					],
					"stateMutability": "view",
					"type": "function"
				},
				{
					"inputs": [],
					"name": "DEFAULT_ADMIN_ROLE",
					"outputs": [
						{
							"internalType": "bytes32",
							"name": "",
							"type": "bytes32"
						}
					],
					"stateMutability": "view",
					"type": "function"
				},
				{
					"inputs": [
						{
							"internalType": "bytes32",
							"name": "role",
							"type": "bytes32"
						}
					],
					"name": "getRoleAdmin",
					"outputs": [
						{
							"internalType": "bytes32",
							"name": "",
							"type": "bytes32"
						}
					],
					"stateMutability": "view",
					"type": "function"
				},
				{
					"inputs": [
						{
							"internalType": "address",
							"name": "who",
							"type": "address"
						}
					],
					"name": "getUser",
					"outputs": [
						{
							"components": [
								{
									"internalType": "address",
									"name": "wallet",
									"type": "address"
								},
								{
									"internalType": "string",
									"name": "nickname",
									"type": "string"
								},
								{
									"internalType": "string",
									"name": "city",
									"type": "string"
								},
								{
									"internalType": "string[]",
									"name": "tags",
									"type": "string[]"
								},
								{
									"internalType": "uint256",
									"name": "createdAt",
									"type": "uint256"
								},
								{
									"internalType": "bool",
									"name": "whiteListed",
									"type": "bool"
								},
								{
									"internalType": "bool",
									"name": "airdropped",
									"type": "bool"
								}
							],
							"internalType": "struct UserRegistry.User",
							"name": "",
							"type": "tuple"
						}
					],
					"stateMutability": "view",
					"type": "function"
				},
				{
					"inputs": [
						{
							"internalType": "bytes32",
							"name": "role",
							"type": "bytes32"
						},
						{
							"internalType": "address",
							"name": "account",
							"type": "address"
						}
					],
					"name": "grantRole",
					"outputs": [],
					"stateMutability": "nonpayable",
					"type": "function"
				},
				{
					"inputs": [
						{
							"internalType": "bytes32",
							"name": "role",
							"type": "bytes32"
						},
						{
							"internalType": "address",
							"name": "account",
							"type": "address"
						}
					],
					"name": "hasRole",
					"outputs": [
						{
							"internalType": "bool",
							"name": "",
							"type": "bool"
						}
					],
					"stateMutability": "view",
					"type": "function"
				},
				{
					"inputs": [
						{
							"internalType": "string",
							"name": "nickname",
							"type": "string"
						},
						{
							"internalType": "string",
							"name": "city",
							"type": "string"
						},
						{
							"internalType": "string[]",
							"name": "tags",
							"type": "string[]"
						}
					],
					"name": "registerIfNeeded",
					"outputs": [],
					"stateMutability": "nonpayable",
					"type": "function"
				},
				{
					"inputs": [
						{
							"internalType": "bytes32",
							"name": "role",
							"type": "bytes32"
						},
						{
							"internalType": "address",
							"name": "callerConfirmation",
							"type": "address"
						}
					],
					"name": "renounceRole",
					"outputs": [],
					"stateMutability": "nonpayable",
					"type": "function"
				},
				{
					"inputs": [
						{
							"internalType": "bytes32",
							"name": "role",
							"type": "bytes32"
						},
						{
							"internalType": "address",
							"name": "account",
							"type": "address"
						}
					],
					"name": "revokeRole",
					"outputs": [],
					"stateMutability": "nonpayable",
					"type": "function"
				},
				{
					"inputs": [
						{
							"internalType": "uint256",
							"name": "amount",
							"type": "uint256"
						}
					],
					"name": "setAirdropAmount",
					"outputs": [],
					"stateMutability": "nonpayable",
					"type": "function"
				},
				{
					"inputs": [
						{
							"internalType": "bytes4",
							"name": "interfaceId",
							"type": "bytes4"
						}
					],
					"name": "supportsInterface",
					"outputs": [
						{
							"internalType": "bool",
							"name": "",
							"type": "bool"
						}
					],
					"stateMutability": "view",
					"type": "function"
				},
				{
					"inputs": [],
					"name": "token",
					"outputs": [
						{
							"internalType": "contract EOCHO",
							"name": "",
							"type": "address"
						}
					],
					"stateMutability": "view",
					"type": "function"
				}
			],
			"devdoc": {
				"errors": {
					"AccessControlBadConfirmation()": [
						{
							"details": "The caller of a function is not the expected one. NOTE: Don't confuse with {AccessControlUnauthorizedAccount}."
						}
					],
					"AccessControlUnauthorizedAccount(address,bytes32)": [
						{
							"details": "The `account` is missing a role."
						}
					]
				},
				"events": {
					"RoleAdminChanged(bytes32,bytes32,bytes32)": {
						"details": "Emitted when `newAdminRole` is set as ``role``'s admin role, replacing `previousAdminRole` `DEFAULT_ADMIN_ROLE` is the starting admin for all roles, despite {RoleAdminChanged} not being emitted to signal this."
					},
					"RoleGranted(bytes32,address,address)": {
						"details": "Emitted when `account` is granted `role`. `sender` is the account that originated the contract call. This account bears the admin role (for the granted role). Expected in cases where the role was granted using the internal {AccessControl-_grantRole}."
					},
					"RoleRevoked(bytes32,address,address)": {
						"details": "Emitted when `account` is revoked `role`. `sender` is the account that originated the contract call:   - if using `revokeRole`, it is the admin role bearer   - if using `renounceRole`, it is the role bearer (i.e. `account`)"
					}
				},
				"kind": "dev",
				"methods": {
					"getRoleAdmin(bytes32)": {
						"details": "Returns the admin role that controls `role`. See {grantRole} and {revokeRole}. To change a role's admin, use {_setRoleAdmin}."
					},
					"grantRole(bytes32,address)": {
						"details": "Grants `role` to `account`. If `account` had not been already granted `role`, emits a {RoleGranted} event. Requirements: - the caller must have ``role``'s admin role. May emit a {RoleGranted} event."
					},
					"hasRole(bytes32,address)": {
						"details": "Returns `true` if `account` has been granted `role`."
					},
					"renounceRole(bytes32,address)": {
						"details": "Revokes `role` from the calling account. Roles are often managed via {grantRole} and {revokeRole}: this function's purpose is to provide a mechanism for accounts to lose their privileges if they are compromised (such as when a trusted device is misplaced). If the calling account had been revoked `role`, emits a {RoleRevoked} event. Requirements: - the caller must be `callerConfirmation`. May emit a {RoleRevoked} event."
					},
					"revokeRole(bytes32,address)": {
						"details": "Revokes `role` from `account`. If `account` had been granted `role`, emits a {RoleRevoked} event. Requirements: - the caller must have ``role``'s admin role. May emit a {RoleRevoked} event."
					},
					"supportsInterface(bytes4)": {
						"details": "Returns true if this contract implements the interface defined by `interfaceId`. See the corresponding https://eips.ethereum.org/EIPS/eip-165#how-interfaces-are-identified[ERC section] to learn more about how these ids are created. This function call must use less than 30 000 gas."
					}
				},
				"version": 1
			},
			"evm": {
				"assembly": "    /* \"UserRegistry.sol\":279:2169  contract UserRegistry is AccessControl, ReentrancyGuard {... */\n  mstore(0x40, 0xa0)\n    /* \"UserRegistry.sol\":512:521  100 ether */\n  0x056bc75e2d63100000\n    /* \"UserRegistry.sol\":480:521  uint256 public AIRDROP_AMOUNT = 100 ether */\n  0x02\n  sstore\n    /* \"UserRegistry.sol\":925:1084  constructor(EOCHO _token) {... */\n  callvalue\n  dup1\n  iszero\n  tag_1\n  jumpi\n  revert(0x00, 0x00)\ntag_1:\n  pop\n  mload(0x40)\n  sub(codesize, bytecodeSize)\n  dup1\n  bytecodeSize\n  dup4\n  codecopy\n  dup2\n  dup2\n  add\n  0x40\n  mstore\n  dup2\n  add\n  swap1\n  tag_2\n  swap2\n  swap1\n  tag_3\n  jump\t// in\ntag_2:\n    /* \"@openzeppelin/contracts/security/ReentrancyGuard.sol\":1716:1717  1 */\n  0x01\n    /* \"@openzeppelin/contracts/security/ReentrancyGuard.sol\":1821:1828  _status */\n  dup1\n    /* \"@openzeppelin/contracts/security/ReentrancyGuard.sol\":1821:1843  _status = _NOT_ENTERED */\n  dup2\n  swap1\n  sstore\n  pop\n    /* \"UserRegistry.sol\":970:976  _token */\n  dup1\n    /* \"UserRegistry.sol\":962:976  token = _token */\n  0xffffffffffffffffffffffffffffffffffffffff\n  and\n  0x80\n  dup2\n  0xffffffffffffffffffffffffffffffffffffffff\n  and\n  dup2\n  mstore\n  pop\n  pop\n    /* \"UserRegistry.sol\":989:1031  _grantRole(DEFAULT_ADMIN_ROLE, msg.sender) */\n  tag_8\n    /* \"@openzeppelin/contracts/access/AccessControl.sol\":2241:2245  0x00 */\n  0x00\n    /* \"UserRegistry.sol\":1000:1018  DEFAULT_ADMIN_ROLE */\n  0x00\n  shl\n    /* \"UserRegistry.sol\":1020:1030  msg.sender */\n  caller\n    /* \"UserRegistry.sol\":989:999  _grantRole */\n  shl(0x20, tag_9)\n    /* \"UserRegistry.sol\":989:1031  _grantRole(DEFAULT_ADMIN_ROLE, msg.sender) */\n  0x20\n  shr\n  jump\t// in\ntag_8:\n  pop\n    /* \"UserRegistry.sol\":1042:1076  _grantRole(ADMIN_ROLE, msg.sender) */\n  tag_10\n    /* \"UserRegistry.sol\":413:436  keccak256(\"ADMIN_ROLE\") */\n  0xa49807205ce4d355092ef5a8a18f56e8913cf4a201fbe287825b095693c21775\n    /* \"UserRegistry.sol\":1065:1075  msg.sender */\n  caller\n    /* \"UserRegistry.sol\":1042:1052  _grantRole */\n  shl(0x20, tag_9)\n    /* \"UserRegistry.sol\":1042:1076  _grantRole(ADMIN_ROLE, msg.sender) */\n  0x20\n  shr\n  jump\t// in\ntag_10:\n  pop\n    /* \"UserRegistry.sol\":925:1084  constructor(EOCHO _token) {... */\n  pop\n    /* \"UserRegistry.sol\":279:2169  contract UserRegistry is AccessControl, ReentrancyGuard {... */\n  jump(tag_11)\n    /* \"@openzeppelin/contracts/access/AccessControl.sol\":6155:6471  function _grantRole(bytes32 role, address account) internal virtual returns (bool) {... */\ntag_9:\n    /* \"@openzeppelin/contracts/access/AccessControl.sol\":6232:6236  bool */\n  0x00\n    /* \"@openzeppelin/contracts/access/AccessControl.sol\":6253:6275  hasRole(role, account) */\n  tag_13\n    /* \"@openzeppelin/contracts/access/AccessControl.sol\":6261:6265  role */\n  dup4\n    /* \"@openzeppelin/contracts/access/AccessControl.sol\":6267:6274  account */\n  dup4\n    /* \"@openzeppelin/contracts/access/AccessControl.sol\":6253:6260  hasRole */\n  shl(0x20, tag_14)\n    /* \"@openzeppelin/contracts/access/AccessControl.sol\":6253:6275  hasRole(role, account) */\n  0x20\n  shr\n  jump\t// in\ntag_13:\n    /* \"@openzeppelin/contracts/access/AccessControl.sol\":6248:6465  if (!hasRole(role, account)) {... */\n  tag_15\n  jumpi\n    /* \"@openzeppelin/contracts/access/AccessControl.sol\":6323:6327  true */\n  0x01\n    /* \"@openzeppelin/contracts/access/AccessControl.sol\":6291:6297  _roles */\n  0x00\n    /* \"@openzeppelin/contracts/access/AccessControl.sol\":6291:6303  _roles[role] */\n  0x00\n    /* \"@openzeppelin/contracts/access/AccessControl.sol\":6298:6302  role */\n  dup6\n    /* \"@openzeppelin/contracts/access/AccessControl.sol\":6291:6303  _roles[role] */\n  dup2\n  mstore\n  0x20\n  add\n  swap1\n  dup2\n  mstore\n  0x20\n  add\n  0x00\n  keccak256\n    /* \"@openzeppelin/contracts/access/AccessControl.sol\":6291:6311  _roles[role].hasRole */\n  0x00\n  add\n    /* \"@openzeppelin/contracts/access/AccessControl.sol\":6291:6320  _roles[role].hasRole[account] */\n  0x00\n    /* \"@openzeppelin/contracts/access/AccessControl.sol\":6312:6319  account */\n  dup5\n    /* \"@openzeppelin/contracts/access/AccessControl.sol\":6291:6320  _roles[role].hasRole[account] */\n  0xffffffffffffffffffffffffffffffffffffffff\n  and\n  0xffffffffffffffffffffffffffffffffffffffff\n  and\n  dup2\n  mstore\n  0x20\n  add\n  swap1\n  dup2\n  mstore\n  0x20\n  add\n  0x00\n  keccak256\n  0x00\n    /* \"@openzeppelin/contracts/access/AccessControl.sol\":6291:6327  _roles[role].hasRole[account] = true */\n  0x0100\n  exp\n  dup2\n  sload\n  dup2\n  0xff\n  mul\n  not\n  and\n  swap1\n  dup4\n  iszero\n  iszero\n  mul\n  or\n  swap1\n  sstore\n  pop\n    /* \"@openzeppelin/contracts/access/AccessControl.sol\":6373:6385  _msgSender() */\n  tag_16\n    /* \"@openzeppelin/contracts/access/AccessControl.sol\":6373:6383  _msgSender */\n  shl(0x20, tag_17)\n    /* \"@openzeppelin/contracts/access/AccessControl.sol\":6373:6385  _msgSender() */\n  0x20\n  shr\n  jump\t// in\ntag_16:\n    /* \"@openzeppelin/contracts/access/AccessControl.sol\":6346:6386  RoleGranted(role, account, _msgSender()) */\n  0xffffffffffffffffffffffffffffffffffffffff\n  and\n    /* \"@openzeppelin/contracts/access/AccessControl.sol\":6364:6371  account */\n  dup3\n    /* \"@openzeppelin/contracts/access/AccessControl.sol\":6346:6386  RoleGranted(role, account, _msgSender()) */\n  0xffffffffffffffffffffffffffffffffffffffff\n  and\n    /* \"@openzeppelin/contracts/access/AccessControl.sol\":6358:6362  role */\n  dup5\n    /* \"@openzeppelin/contracts/access/AccessControl.sol\":6346:6386  RoleGranted(role, account, _msgSender()) */\n  0x2f8788117e7eff1d82e926ec794901d17c78024a50270940304540a733656f0d\n  mload(0x40)\n  mload(0x40)\n  dup1\n  swap2\n  sub\n  swap1\n  log4\n    /* \"@openzeppelin/contracts/access/AccessControl.sol\":6407:6411  true */\n  0x01\n    /* \"@openzeppelin/contracts/access/AccessControl.sol\":6400:6411  return true */\n  swap1\n  pop\n  jump(tag_12)\n    /* \"@openzeppelin/contracts/access/AccessControl.sol\":6248:6465  if (!hasRole(role, account)) {... */\ntag_15:\n    /* \"@openzeppelin/contracts/access/AccessControl.sol\":6449:6454  false */\n  0x00\n    /* \"@openzeppelin/contracts/access/AccessControl.sol\":6442:6454  return false */\n  swap1\n  pop\n    /* \"@openzeppelin/contracts/access/AccessControl.sol\":6155:6471  function _grantRole(bytes32 role, address account) internal virtual returns (bool) {... */\ntag_12:\n  swap3\n  swap2\n  pop\n  pop\n  jump\t// out\n    /* \"@openzeppelin/contracts/access/AccessControl.sol\":2830:2966  function hasRole(bytes32 role, address account) public view virtual returns (bool) {... */\ntag_14:\n    /* \"@openzeppelin/contracts/access/AccessControl.sol\":2907:2911  bool */\n  0x00\n    /* \"@openzeppelin/contracts/access/AccessControl.sol\":2930:2936  _roles */\n  0x00\n    /* \"@openzeppelin/contracts/access/AccessControl.sol\":2930:2942  _roles[role] */\n  0x00\n    /* \"@openzeppelin/contracts/access/AccessControl.sol\":2937:2941  role */\n  dup5\n    /* \"@openzeppelin/contracts/access/AccessControl.sol\":2930:2942  _roles[role] */\n  dup2\n  mstore\n  0x20\n  add\n  swap1\n  dup2\n  mstore\n  0x20\n  add\n  0x00\n  keccak256\n    /* \"@openzeppelin/contracts/access/AccessControl.sol\":2930:2950  _roles[role].hasRole */\n  0x00\n  add\n    /* \"@openzeppelin/contracts/access/AccessControl.sol\":2930:2959  _roles[role].hasRole[account] */\n  0x00\n    /* \"@openzeppelin/contracts/access/AccessControl.sol\":2951:2958  account */\n  dup4\n    /* \"@openzeppelin/contracts/access/AccessControl.sol\":2930:2959  _roles[role].hasRole[account] */\n  0xffffffffffffffffffffffffffffffffffffffff\n  and\n  0xffffffffffffffffffffffffffffffffffffffff\n  and\n  dup2\n  mstore\n  0x20\n  add\n  swap1\n  dup2\n  mstore\n  0x20\n  add\n  0x00\n  keccak256\n  0x00\n  swap1\n  sload\n  swap1\n  0x0100\n  exp\n  swap1\n  div\n  0xff\n  and\n    /* \"@openzeppelin/contracts/access/AccessControl.sol\":2923:2959  return _roles[role].hasRole[account] */\n  swap1\n  pop\n    /* \"@openzeppelin/contracts/access/AccessControl.sol\":2830:2966  function hasRole(bytes32 role, address account) public view virtual returns (bool) {... */\n  swap3\n  swap2\n  pop\n  pop\n  jump\t// out\n    /* \"@openzeppelin/contracts/utils/Context.sol\":656:752  function _msgSender() internal view virtual returns (address) {... */\ntag_17:\n    /* \"@openzeppelin/contracts/utils/Context.sol\":709:716  address */\n  0x00\n    /* \"@openzeppelin/contracts/utils/Context.sol\":735:745  msg.sender */\n  caller\n    /* \"@openzeppelin/contracts/utils/Context.sol\":728:745  return msg.sender */\n  swap1\n  pop\n    /* \"@openzeppelin/contracts/utils/Context.sol\":656:752  function _msgSender() internal view virtual returns (address) {... */\n  swap1\n  jump\t// out\n    /* \"#utility.yul\":88:205   */\ntag_22:\n    /* \"#utility.yul\":197:198   */\n  0x00\n    /* \"#utility.yul\":194:195   */\n  0x00\n    /* \"#utility.yul\":187:199   */\n  revert\n    /* \"#utility.yul\":334:460   */\ntag_24:\n    /* \"#utility.yul\":371:378   */\n  0x00\n    /* \"#utility.yul\":411:453   */\n  0xffffffffffffffffffffffffffffffffffffffff\n    /* \"#utility.yul\":404:409   */\n  dup3\n    /* \"#utility.yul\":400:454   */\n  and\n    /* \"#utility.yul\":389:454   */\n  swap1\n  pop\n    /* \"#utility.yul\":334:460   */\n  swap2\n  swap1\n  pop\n  jump\t// out\n    /* \"#utility.yul\":466:562   */\ntag_25:\n    /* \"#utility.yul\":503:510   */\n  0x00\n    /* \"#utility.yul\":532:556   */\n  tag_35\n    /* \"#utility.yul\":550:555   */\n  dup3\n    /* \"#utility.yul\":532:556   */\n  tag_24\n  jump\t// in\ntag_35:\n    /* \"#utility.yul\":521:556   */\n  swap1\n  pop\n    /* \"#utility.yul\":466:562   */\n  swap2\n  swap1\n  pop\n  jump\t// out\n    /* \"#utility.yul\":568:678   */\ntag_26:\n    /* \"#utility.yul\":619:626   */\n  0x00\n    /* \"#utility.yul\":648:672   */\n  tag_37\n    /* \"#utility.yul\":666:671   */\n  dup3\n    /* \"#utility.yul\":648:672   */\n  tag_25\n  jump\t// in\ntag_37:\n    /* \"#utility.yul\":637:672   */\n  swap1\n  pop\n    /* \"#utility.yul\":568:678   */\n  swap2\n  swap1\n  pop\n  jump\t// out\n    /* \"#utility.yul\":684:834   */\ntag_27:\n    /* \"#utility.yul\":771:809   */\n  tag_39\n    /* \"#utility.yul\":803:808   */\n  dup2\n    /* \"#utility.yul\":771:809   */\n  tag_26\n  jump\t// in\ntag_39:\n    /* \"#utility.yul\":764:769   */\n  dup2\n    /* \"#utility.yul\":761:810   */\n  eq\n    /* \"#utility.yul\":751:828   */\n  tag_40\n  jumpi\n    /* \"#utility.yul\":824:825   */\n  0x00\n    /* \"#utility.yul\":821:822   */\n  0x00\n    /* \"#utility.yul\":814:826   */\n  revert\n    /* \"#utility.yul\":751:828   */\ntag_40:\n    /* \"#utility.yul\":684:834   */\n  pop\n  jump\t// out\n    /* \"#utility.yul\":840:1011   */\ntag_28:\n    /* \"#utility.yul\":911:916   */\n  0x00\n    /* \"#utility.yul\":942:948   */\n  dup2\n    /* \"#utility.yul\":936:949   */\n  mload\n    /* \"#utility.yul\":927:949   */\n  swap1\n  pop\n    /* \"#utility.yul\":958:1005   */\n  tag_42\n    /* \"#utility.yul\":999:1004   */\n  dup2\n    /* \"#utility.yul\":958:1005   */\n  tag_27\n  jump\t// in\ntag_42:\n    /* \"#utility.yul\":840:1011   */\n  swap3\n  swap2\n  pop\n  pop\n  jump\t// out\n    /* \"#utility.yul\":1017:1396   */\ntag_3:\n    /* \"#utility.yul\":1101:1107   */\n  0x00\n    /* \"#utility.yul\":1150:1152   */\n  0x20\n    /* \"#utility.yul\":1138:1147   */\n  dup3\n    /* \"#utility.yul\":1129:1136   */\n  dup5\n    /* \"#utility.yul\":1125:1148   */\n  sub\n    /* \"#utility.yul\":1121:1153   */\n  slt\n    /* \"#utility.yul\":1118:1237   */\n  iszero\n  tag_44\n  jumpi\n    /* \"#utility.yul\":1156:1235   */\n  tag_45\n  tag_22\n  jump\t// in\ntag_45:\n    /* \"#utility.yul\":1118:1237   */\ntag_44:\n    /* \"#utility.yul\":1276:1277   */\n  0x00\n    /* \"#utility.yul\":1301:1379   */\n  tag_46\n    /* \"#utility.yul\":1371:1378   */\n  dup5\n    /* \"#utility.yul\":1362:1368   */\n  dup3\n    /* \"#utility.yul\":1351:1360   */\n  dup6\n    /* \"#utility.yul\":1347:1369   */\n  add\n    /* \"#utility.yul\":1301:1379   */\n  tag_28\n  jump\t// in\ntag_46:\n    /* \"#utility.yul\":1291:1379   */\n  swap2\n  pop\n    /* \"#utility.yul\":1247:1389   */\n  pop\n    /* \"#utility.yul\":1017:1396   */\n  swap3\n  swap2\n  pop\n  pop\n  jump\t// out\n    /* \"UserRegistry.sol\":279:2169  contract UserRegistry is AccessControl, ReentrancyGuard {... */\ntag_11:\n  mload(0x80)\n  codecopy(0x00, dataOffset(sub_0), dataSize(sub_0))\n  0x00\n  assignImmutable(\"0x7d418661c0f2407aa242e802ba4f3c0a1e1f33fb65067c8d3ac4e2b67bc9eda7\")\n  return(0x00, dataSize(sub_0))\nstop\n\nsub_0: assembly {\n        /* \"UserRegistry.sol\":279:2169  contract UserRegistry is AccessControl, ReentrancyGuard {... */\n      mstore(0x40, 0x80)\n      callvalue\n      dup1\n      iszero\n      tag_1\n      jumpi\n      revert(0x00, 0x00)\n    tag_1:\n      pop\n      jumpi(tag_2, lt(calldatasize, 0x04))\n      shr(0xe0, calldataload(0x00))\n      dup1\n      0x6f77926b\n      gt\n      tag_16\n      jumpi\n      dup1\n      0xa217fddf\n      gt\n      tag_17\n      jumpi\n      dup1\n      0xa217fddf\n      eq\n      tag_12\n      jumpi\n      dup1\n      0xa5500c30\n      eq\n      tag_13\n      jumpi\n      dup1\n      0xd547741f\n      eq\n      tag_14\n      jumpi\n      dup1\n      0xfc0c546a\n      eq\n      tag_15\n      jumpi\n      jump(tag_2)\n    tag_17:\n      dup1\n      0x6f77926b\n      eq\n      tag_9\n      jumpi\n      dup1\n      0x75b238fc\n      eq\n      tag_10\n      jumpi\n      dup1\n      0x91d14854\n      eq\n      tag_11\n      jumpi\n      jump(tag_2)\n    tag_16:\n      dup1\n      0x01ffc9a7\n      eq\n      tag_3\n      jumpi\n      dup1\n      0x248a9ca3\n      eq\n      tag_4\n      jumpi\n      dup1\n      0x2b5b6872\n      eq\n      tag_5\n      jumpi\n      dup1\n      0x2f2ff15d\n      eq\n      tag_6\n      jumpi\n      dup1\n      0x36568abe\n      eq\n      tag_7\n      jumpi\n      dup1\n      0x61c452fe\n      eq\n      tag_8\n      jumpi\n    tag_2:\n      revert(0x00, 0x00)\n        /* \"@openzeppelin/contracts/access/AccessControl.sol\":2541:2743  function supportsInterface(bytes4 interfaceId) public view virtual override returns (bool) {... */\n    tag_3:\n      tag_18\n      0x04\n      dup1\n      calldatasize\n      sub\n      dup2\n      add\n      swap1\n      tag_19\n      swap2\n      swap1\n      tag_20\n      jump\t// in\n    tag_19:\n      tag_21\n      jump\t// in\n    tag_18:\n      mload(0x40)\n      tag_22\n      swap2\n      swap1\n      tag_23\n      jump\t// in\n    tag_22:\n      mload(0x40)\n      dup1\n      swap2\n      sub\n      swap1\n      return\n        /* \"@openzeppelin/contracts/access/AccessControl.sol\":3786:3906  function getRoleAdmin(bytes32 role) public view virtual returns (bytes32) {... */\n    tag_4:\n      tag_24\n      0x04\n      dup1\n      calldatasize\n      sub\n      dup2\n      add\n      swap1\n      tag_25\n      swap2\n      swap1\n      tag_26\n      jump\t// in\n    tag_25:\n      tag_27\n      jump\t// in\n    tag_24:\n      mload(0x40)\n      tag_28\n      swap2\n      swap1\n      tag_29\n      jump\t// in\n    tag_28:\n      mload(0x40)\n      dup1\n      swap2\n      sub\n      swap1\n      return\n        /* \"UserRegistry.sol\":480:521  uint256 public AIRDROP_AMOUNT = 100 ether */\n    tag_5:\n      tag_30\n      tag_31\n      jump\t// in\n    tag_30:\n      mload(0x40)\n      tag_32\n      swap2\n      swap1\n      tag_33\n      jump\t// in\n    tag_32:\n      mload(0x40)\n      dup1\n      swap2\n      sub\n      swap1\n      return\n        /* \"@openzeppelin/contracts/access/AccessControl.sol\":4202:4338  function grantRole(bytes32 role, address account) public virtual onlyRole(getRoleAdmin(role)) {... */\n    tag_6:\n      tag_34\n      0x04\n      dup1\n      calldatasize\n      sub\n      dup2\n      add\n      swap1\n      tag_35\n      swap2\n      swap1\n      tag_36\n      jump\t// in\n    tag_35:\n      tag_37\n      jump\t// in\n    tag_34:\n      stop\n        /* \"@openzeppelin/contracts/access/AccessControl.sol\":5304:5549  function renounceRole(bytes32 role, address callerConfirmation) public virtual {... */\n    tag_7:\n      tag_38\n      0x04\n      dup1\n      calldatasize\n      sub\n      dup2\n      add\n      swap1\n      tag_39\n      swap2\n      swap1\n      tag_36\n      jump\t// in\n    tag_39:\n      tag_40\n      jump\t// in\n    tag_38:\n      stop\n        /* \"UserRegistry.sol\":1092:1934  function registerIfNeeded(... */\n    tag_8:\n      tag_41\n      0x04\n      dup1\n      calldatasize\n      sub\n      dup2\n      add\n      swap1\n      tag_42\n      swap2\n      swap1\n      tag_43\n      jump\t// in\n    tag_42:\n      tag_44\n      jump\t// in\n    tag_41:\n      stop\n        /* \"UserRegistry.sol\":1942:2044  function getUser(address who) external view returns (User memory) {... */\n    tag_9:\n      tag_45\n      0x04\n      dup1\n      calldatasize\n      sub\n      dup2\n      add\n      swap1\n      tag_46\n      swap2\n      swap1\n      tag_47\n      jump\t// in\n    tag_46:\n      tag_48\n      jump\t// in\n    tag_45:\n      mload(0x40)\n      tag_49\n      swap2\n      swap1\n      tag_50\n      jump\t// in\n    tag_49:\n      mload(0x40)\n      dup1\n      swap2\n      sub\n      swap1\n      return\n        /* \"UserRegistry.sol\":376:436  bytes32 public constant ADMIN_ROLE = keccak256(\"ADMIN_ROLE\") */\n    tag_10:\n      tag_51\n      tag_52\n      jump\t// in\n    tag_51:\n      mload(0x40)\n      tag_53\n      swap2\n      swap1\n      tag_29\n      jump\t// in\n    tag_53:\n      mload(0x40)\n      dup1\n      swap2\n      sub\n      swap1\n      return\n        /* \"@openzeppelin/contracts/access/AccessControl.sol\":2830:2966  function hasRole(bytes32 role, address account) public view virtual returns (bool) {... */\n    tag_11:\n      tag_54\n      0x04\n      dup1\n      calldatasize\n      sub\n      dup2\n      add\n      swap1\n      tag_55\n      swap2\n      swap1\n      tag_36\n      jump\t// in\n    tag_55:\n      tag_56\n      jump\t// in\n    tag_54:\n      mload(0x40)\n      tag_57\n      swap2\n      swap1\n      tag_23\n      jump\t// in\n    tag_57:\n      mload(0x40)\n      dup1\n      swap2\n      sub\n      swap1\n      return\n        /* \"@openzeppelin/contracts/access/AccessControl.sol\":2196:2245  bytes32 public constant DEFAULT_ADMIN_ROLE = 0x00 */\n    tag_12:\n      tag_58\n      tag_59\n      jump\t// in\n    tag_58:\n      mload(0x40)\n      tag_60\n      swap2\n      swap1\n      tag_29\n      jump\t// in\n    tag_60:\n      mload(0x40)\n      dup1\n      swap2\n      sub\n      swap1\n      return\n        /* \"UserRegistry.sol\":2052:2166  function setAirdropAmount(uint256 amount) external onlyRole(ADMIN_ROLE) {... */\n    tag_13:\n      tag_61\n      0x04\n      dup1\n      calldatasize\n      sub\n      dup2\n      add\n      swap1\n      tag_62\n      swap2\n      swap1\n      tag_63\n      jump\t// in\n    tag_62:\n      tag_64\n      jump\t// in\n    tag_61:\n      stop\n        /* \"@openzeppelin/contracts/access/AccessControl.sol\":4618:4756  function revokeRole(bytes32 role, address account) public virtual onlyRole(getRoleAdmin(role)) {... */\n    tag_14:\n      tag_65\n      0x04\n      dup1\n      calldatasize\n      sub\n      dup2\n      add\n      swap1\n      tag_66\n      swap2\n      swap1\n      tag_36\n      jump\t// in\n    tag_66:\n      tag_67\n      jump\t// in\n    tag_65:\n      stop\n        /* \"UserRegistry.sol\":445:473  EOCHO public immutable token */\n    tag_15:\n      tag_68\n      tag_69\n      jump\t// in\n    tag_68:\n      mload(0x40)\n      tag_70\n      swap2\n      swap1\n      tag_71\n      jump\t// in\n    tag_70:\n      mload(0x40)\n      dup1\n      swap2\n      sub\n      swap1\n      return\n        /* \"@openzeppelin/contracts/access/AccessControl.sol\":2541:2743  function supportsInterface(bytes4 interfaceId) public view virtual override returns (bool) {... */\n    tag_21:\n        /* \"@openzeppelin/contracts/access/AccessControl.sol\":2626:2630  bool */\n      0x00\n        /* \"@openzeppelin/contracts/access/AccessControl.sol\":2664:2696  type(IAccessControl).interfaceId */\n      0x7965db0b00000000000000000000000000000000000000000000000000000000\n        /* \"@openzeppelin/contracts/access/AccessControl.sol\":2649:2696  interfaceId == type(IAccessControl).interfaceId */\n      not(0xffffffffffffffffffffffffffffffffffffffffffffffffffffffff)\n      and\n        /* \"@openzeppelin/contracts/access/AccessControl.sol\":2649:2660  interfaceId */\n      dup3\n        /* \"@openzeppelin/contracts/access/AccessControl.sol\":2649:2696  interfaceId == type(IAccessControl).interfaceId */\n      not(0xffffffffffffffffffffffffffffffffffffffffffffffffffffffff)\n      and\n      eq\n        /* \"@openzeppelin/contracts/access/AccessControl.sol\":2649:2736  interfaceId == type(IAccessControl).interfaceId || super.supportsInterface(interfaceId) */\n      dup1\n      tag_73\n      jumpi\n      pop\n        /* \"@openzeppelin/contracts/access/AccessControl.sol\":2700:2736  super.supportsInterface(interfaceId) */\n      tag_74\n        /* \"@openzeppelin/contracts/access/AccessControl.sol\":2724:2735  interfaceId */\n      dup3\n        /* \"@openzeppelin/contracts/access/AccessControl.sol\":2700:2723  super.supportsInterface */\n      tag_75\n        /* \"@openzeppelin/contracts/access/AccessControl.sol\":2700:2736  super.supportsInterface(interfaceId) */\n      jump\t// in\n    tag_74:\n        /* \"@openzeppelin/contracts/access/AccessControl.sol\":2649:2736  interfaceId == type(IAccessControl).interfaceId || super.supportsInterface(interfaceId) */\n    tag_73:\n        /* \"@openzeppelin/contracts/access/AccessControl.sol\":2642:2736  return interfaceId == type(IAccessControl).interfaceId || super.supportsInterface(interfaceId) */\n      swap1\n      pop\n        /* \"@openzeppelin/contracts/access/AccessControl.sol\":2541:2743  function supportsInterface(bytes4 interfaceId) public view virtual override returns (bool) {... */\n      swap2\n      swap1\n      pop\n      jump\t// out\n        /* \"@openzeppelin/contracts/access/AccessControl.sol\":3786:3906  function getRoleAdmin(bytes32 role) public view virtual returns (bytes32) {... */\n    tag_27:\n        /* \"@openzeppelin/contracts/access/AccessControl.sol\":3851:3858  bytes32 */\n      0x00\n        /* \"@openzeppelin/contracts/access/AccessControl.sol\":3877:3883  _roles */\n      0x00\n        /* \"@openzeppelin/contracts/access/AccessControl.sol\":3877:3889  _roles[role] */\n      0x00\n        /* \"@openzeppelin/contracts/access/AccessControl.sol\":3884:3888  role */\n      dup4\n        /* \"@openzeppelin/contracts/access/AccessControl.sol\":3877:3889  _roles[role] */\n      dup2\n      mstore\n      0x20\n      add\n      swap1\n      dup2\n      mstore\n      0x20\n      add\n      0x00\n      keccak256\n        /* \"@openzeppelin/contracts/access/AccessControl.sol\":3877:3899  _roles[role].adminRole */\n      0x01\n      add\n      sload\n        /* \"@openzeppelin/contracts/access/AccessControl.sol\":3870:3899  return _roles[role].adminRole */\n      swap1\n      pop\n        /* \"@openzeppelin/contracts/access/AccessControl.sol\":3786:3906  function getRoleAdmin(bytes32 role) public view virtual returns (bytes32) {... */\n      swap2\n      swap1\n      pop\n      jump\t// out\n        /* \"UserRegistry.sol\":480:521  uint256 public AIRDROP_AMOUNT = 100 ether */\n    tag_31:\n      sload(0x02)\n      dup2\n      jump\t// out\n        /* \"@openzeppelin/contracts/access/AccessControl.sol\":4202:4338  function grantRole(bytes32 role, address account) public virtual onlyRole(getRoleAdmin(role)) {... */\n    tag_37:\n        /* \"@openzeppelin/contracts/access/AccessControl.sol\":4276:4294  getRoleAdmin(role) */\n      tag_77\n        /* \"@openzeppelin/contracts/access/AccessControl.sol\":4289:4293  role */\n      dup3\n        /* \"@openzeppelin/contracts/access/AccessControl.sol\":4276:4288  getRoleAdmin */\n      tag_27\n        /* \"@openzeppelin/contracts/access/AccessControl.sol\":4276:4294  getRoleAdmin(role) */\n      jump\t// in\n    tag_77:\n        /* \"@openzeppelin/contracts/access/AccessControl.sol\":2473:2489  _checkRole(role) */\n      tag_79\n        /* \"@openzeppelin/contracts/access/AccessControl.sol\":2484:2488  role */\n      dup2\n        /* \"@openzeppelin/contracts/access/AccessControl.sol\":2473:2483  _checkRole */\n      tag_80\n        /* \"@openzeppelin/contracts/access/AccessControl.sol\":2473:2489  _checkRole(role) */\n      jump\t// in\n    tag_79:\n        /* \"@openzeppelin/contracts/access/AccessControl.sol\":4306:4331  _grantRole(role, account) */\n      tag_82\n        /* \"@openzeppelin/contracts/access/AccessControl.sol\":4317:4321  role */\n      dup4\n        /* \"@openzeppelin/contracts/access/AccessControl.sol\":4323:4330  account */\n      dup4\n        /* \"@openzeppelin/contracts/access/AccessControl.sol\":4306:4316  _grantRole */\n      tag_83\n        /* \"@openzeppelin/contracts/access/AccessControl.sol\":4306:4331  _grantRole(role, account) */\n      jump\t// in\n    tag_82:\n      pop\n        /* \"@openzeppelin/contracts/access/AccessControl.sol\":4202:4338  function grantRole(bytes32 role, address account) public virtual onlyRole(getRoleAdmin(role)) {... */\n      pop\n      pop\n      pop\n      jump\t// out\n        /* \"@openzeppelin/contracts/access/AccessControl.sol\":5304:5549  function renounceRole(bytes32 role, address callerConfirmation) public virtual {... */\n    tag_40:\n        /* \"@openzeppelin/contracts/access/AccessControl.sol\":5419:5431  _msgSender() */\n      tag_85\n        /* \"@openzeppelin/contracts/access/AccessControl.sol\":5419:5429  _msgSender */\n      tag_86\n        /* \"@openzeppelin/contracts/access/AccessControl.sol\":5419:5431  _msgSender() */\n      jump\t// in\n    tag_85:\n        /* \"@openzeppelin/contracts/access/AccessControl.sol\":5397:5431  callerConfirmation != _msgSender() */\n      0xffffffffffffffffffffffffffffffffffffffff\n      and\n        /* \"@openzeppelin/contracts/access/AccessControl.sol\":5397:5415  callerConfirmation */\n      dup2\n        /* \"@openzeppelin/contracts/access/AccessControl.sol\":5397:5431  callerConfirmation != _msgSender() */\n      0xffffffffffffffffffffffffffffffffffffffff\n      and\n      eq\n        /* \"@openzeppelin/contracts/access/AccessControl.sol\":5393:5495  if (callerConfirmation != _msgSender()) {... */\n      tag_87\n      jumpi\n        /* \"@openzeppelin/contracts/access/AccessControl.sol\":5454:5484  AccessControlBadConfirmation() */\n      mload(0x40)\n      0x6697b23200000000000000000000000000000000000000000000000000000000\n      dup2\n      mstore\n      0x04\n      add\n      mload(0x40)\n      dup1\n      swap2\n      sub\n      swap1\n      revert\n        /* \"@openzeppelin/contracts/access/AccessControl.sol\":5393:5495  if (callerConfirmation != _msgSender()) {... */\n    tag_87:\n        /* \"@openzeppelin/contracts/access/AccessControl.sol\":5505:5542  _revokeRole(role, callerConfirmation) */\n      tag_88\n        /* \"@openzeppelin/contracts/access/AccessControl.sol\":5517:5521  role */\n      dup3\n        /* \"@openzeppelin/contracts/access/AccessControl.sol\":5523:5541  callerConfirmation */\n      dup3\n        /* \"@openzeppelin/contracts/access/AccessControl.sol\":5505:5516  _revokeRole */\n      tag_89\n        /* \"@openzeppelin/contracts/access/AccessControl.sol\":5505:5542  _revokeRole(role, callerConfirmation) */\n      jump\t// in\n    tag_88:\n      pop\n        /* \"@openzeppelin/contracts/access/AccessControl.sol\":5304:5549  function renounceRole(bytes32 role, address callerConfirmation) public virtual {... */\n      pop\n      pop\n      jump\t// out\n        /* \"UserRegistry.sol\":1092:1934  function registerIfNeeded(... */\n    tag_44:\n        /* \"@openzeppelin/contracts/security/ReentrancyGuard.sol\":2261:2282  _nonReentrantBefore() */\n      tag_91\n        /* \"@openzeppelin/contracts/security/ReentrancyGuard.sol\":2261:2280  _nonReentrantBefore */\n      tag_92\n        /* \"@openzeppelin/contracts/security/ReentrancyGuard.sol\":2261:2282  _nonReentrantBefore() */\n      jump\t// in\n    tag_91:\n        /* \"UserRegistry.sol\":1257:1271  User storage u */\n      0x00\n        /* \"UserRegistry.sol\":1274:1279  users */\n      0x03\n        /* \"UserRegistry.sol\":1274:1291  users[msg.sender] */\n      0x00\n        /* \"UserRegistry.sol\":1280:1290  msg.sender */\n      caller\n        /* \"UserRegistry.sol\":1274:1291  users[msg.sender] */\n      0xffffffffffffffffffffffffffffffffffffffff\n      and\n      0xffffffffffffffffffffffffffffffffffffffff\n      and\n      dup2\n      mstore\n      0x20\n      add\n      swap1\n      dup2\n      mstore\n      0x20\n      add\n      0x00\n      keccak256\n        /* \"UserRegistry.sol\":1257:1291  User storage u = users[msg.sender] */\n      swap1\n      pop\n        /* \"UserRegistry.sol\":1323:1324  0 */\n      0x00\n        /* \"UserRegistry.sol\":1308:1309  u */\n      dup2\n        /* \"UserRegistry.sol\":1308:1319  u.createdAt */\n      0x04\n      add\n      sload\n        /* \"UserRegistry.sol\":1308:1324  u.createdAt == 0 */\n      sub\n        /* \"UserRegistry.sol\":1304:1927  if (u.createdAt == 0) {... */\n      tag_94\n      jumpi\n        /* \"UserRegistry.sol\":1352:1362  msg.sender */\n      caller\n        /* \"UserRegistry.sol\":1341:1342  u */\n      dup2\n        /* \"UserRegistry.sol\":1341:1349  u.wallet */\n      0x00\n      add\n      0x00\n        /* \"UserRegistry.sol\":1341:1362  u.wallet = msg.sender */\n      0x0100\n      exp\n      dup2\n      sload\n      dup2\n      0xffffffffffffffffffffffffffffffffffffffff\n      mul\n      not\n      and\n      swap1\n      dup4\n      0xffffffffffffffffffffffffffffffffffffffff\n      and\n      mul\n      or\n      swap1\n      sstore\n      pop\n        /* \"UserRegistry.sol\":1390:1398  nickname */\n      dup7\n      dup7\n        /* \"UserRegistry.sol\":1377:1378  u */\n      dup3\n        /* \"UserRegistry.sol\":1377:1387  u.nickname */\n      0x01\n      add\n        /* \"UserRegistry.sol\":1377:1398  u.nickname = nickname */\n      swap2\n      dup3\n      tag_95\n      swap3\n      swap2\n      swap1\n      tag_96\n      jump\t// in\n    tag_95:\n      pop\n        /* \"UserRegistry.sol\":1422:1426  city */\n      dup5\n      dup5\n        /* \"UserRegistry.sol\":1413:1414  u */\n      dup3\n        /* \"UserRegistry.sol\":1413:1419  u.city */\n      0x02\n      add\n        /* \"UserRegistry.sol\":1413:1426  u.city = city */\n      swap2\n      dup3\n      tag_97\n      swap3\n      swap2\n      swap1\n      tag_96\n      jump\t// in\n    tag_97:\n      pop\n        /* \"UserRegistry.sol\":1448:1454  uint i */\n      0x00\n        /* \"UserRegistry.sol\":1457:1458  0 */\n      0x00\n        /* \"UserRegistry.sol\":1448:1458  uint i = 0 */\n      swap1\n      pop\n        /* \"UserRegistry.sol\":1443:1537  for (uint i = 0; i < tags.length; i++) {... */\n    tag_98:\n        /* \"UserRegistry.sol\":1464:1468  tags */\n      dup4\n      dup4\n        /* \"UserRegistry.sol\":1464:1475  tags.length */\n      swap1\n      pop\n        /* \"UserRegistry.sol\":1460:1461  i */\n      dup2\n        /* \"UserRegistry.sol\":1460:1475  i < tags.length */\n      lt\n        /* \"UserRegistry.sol\":1443:1537  for (uint i = 0; i < tags.length; i++) {... */\n      iszero\n      tag_99\n      jumpi\n        /* \"UserRegistry.sol\":1501:1502  u */\n      dup2\n        /* \"UserRegistry.sol\":1501:1507  u.tags */\n      0x03\n      add\n        /* \"UserRegistry.sol\":1513:1517  tags */\n      dup5\n      dup5\n        /* \"UserRegistry.sol\":1518:1519  i */\n      dup4\n        /* \"UserRegistry.sol\":1513:1520  tags[i] */\n      dup2\n      dup2\n      lt\n      tag_101\n      jumpi\n      tag_102\n      tag_103\n      jump\t// in\n    tag_102:\n    tag_101:\n      swap1\n      pop\n      0x20\n      mul\n      dup2\n      add\n      swap1\n      tag_104\n      swap2\n      swap1\n      tag_105\n      jump\t// in\n    tag_104:\n        /* \"UserRegistry.sol\":1501:1521  u.tags.push(tags[i]) */\n      swap1\n      swap2\n      dup1\n      0x01\n      dup2\n      sload\n      add\n      dup1\n      dup3\n      sstore\n      dup1\n      swap2\n      pop\n      pop\n      0x01\n      swap1\n      sub\n      swap1\n      0x00\n      mstore\n      keccak256(0x00, 0x20)\n      add\n      0x00\n      swap1\n      swap2\n      swap3\n      swap1\n      swap2\n      swap3\n      swap1\n      swap2\n      swap3\n      swap1\n      swap2\n      swap3\n      pop\n      swap2\n      dup3\n      tag_107\n      swap3\n      swap2\n      swap1\n      tag_96\n      jump\t// in\n    tag_107:\n      pop\n        /* \"UserRegistry.sol\":1477:1480  i++ */\n      dup1\n      dup1\n      0x01\n      add\n      swap2\n      pop\n      pop\n        /* \"UserRegistry.sol\":1443:1537  for (uint i = 0; i < tags.length; i++) {... */\n      jump(tag_98)\n    tag_99:\n      pop\n        /* \"UserRegistry.sol\":1567:1582  block.timestamp */\n      timestamp\n        /* \"UserRegistry.sol\":1553:1554  u */\n      dup2\n        /* \"UserRegistry.sol\":1553:1564  u.createdAt */\n      0x04\n      add\n        /* \"UserRegistry.sol\":1553:1582  u.createdAt = block.timestamp */\n      dup2\n      swap1\n      sstore\n      pop\n        /* \"UserRegistry.sol\":1613:1617  true */\n      0x01\n        /* \"UserRegistry.sol\":1597:1598  u */\n      dup2\n        /* \"UserRegistry.sol\":1597:1610  u.whiteListed */\n      0x05\n      add\n      0x00\n        /* \"UserRegistry.sol\":1597:1617  u.whiteListed = true */\n      0x0100\n      exp\n      dup2\n      sload\n      dup2\n      0xff\n      mul\n      not\n      and\n      swap1\n      dup4\n      iszero\n      iszero\n      mul\n      or\n      swap1\n      sstore\n      pop\n        /* \"UserRegistry.sol\":1654:1664  msg.sender */\n      caller\n        /* \"UserRegistry.sol\":1639:1681  UserRegistered(msg.sender, nickname, city) */\n      0xffffffffffffffffffffffffffffffffffffffff\n      and\n      0x92822564bab8864c3a47b34e8d23fbce5c46234eb5da261f94087b995ac0f33b\n        /* \"UserRegistry.sol\":1666:1674  nickname */\n      dup9\n      dup9\n        /* \"UserRegistry.sol\":1676:1680  city */\n      dup9\n      dup9\n        /* \"UserRegistry.sol\":1639:1681  UserRegistered(msg.sender, nickname, city) */\n      mload(0x40)\n      tag_108\n      swap5\n      swap4\n      swap3\n      swap2\n      swap1\n      tag_109\n      jump\t// in\n    tag_108:\n      mload(0x40)\n      dup1\n      swap2\n      sub\n      swap1\n      log2\n        /* \"UserRegistry.sol\":1727:1728  u */\n      dup1\n        /* \"UserRegistry.sol\":1727:1739  u.airdropped */\n      0x05\n      add\n      0x01\n      swap1\n      sload\n      swap1\n      0x0100\n      exp\n      swap1\n      div\n      0xff\n      and\n        /* \"UserRegistry.sol\":1722:1916  if (!u.airdropped) {... */\n      tag_110\n      jumpi\n        /* \"UserRegistry.sol\":1775:1779  true */\n      0x01\n        /* \"UserRegistry.sol\":1760:1761  u */\n      dup2\n        /* \"UserRegistry.sol\":1760:1772  u.airdropped */\n      0x05\n      add\n      0x01\n        /* \"UserRegistry.sol\":1760:1779  u.airdropped = true */\n      0x0100\n      exp\n      dup2\n      sload\n      dup2\n      0xff\n      mul\n      not\n      and\n      swap1\n      dup4\n      iszero\n      iszero\n      mul\n      or\n      swap1\n      sstore\n      pop\n        /* \"UserRegistry.sol\":1798:1803  token */\n      immutable(\"0x7d418661c0f2407aa242e802ba4f3c0a1e1f33fb65067c8d3ac4e2b67bc9eda7\")\n        /* \"UserRegistry.sol\":1798:1808  token.mint */\n      0xffffffffffffffffffffffffffffffffffffffff\n      and\n      0x40c10f19\n        /* \"UserRegistry.sol\":1809:1819  msg.sender */\n      caller\n        /* \"UserRegistry.sol\":1821:1835  AIRDROP_AMOUNT */\n      sload(0x02)\n        /* \"UserRegistry.sol\":1798:1836  token.mint(msg.sender, AIRDROP_AMOUNT) */\n      mload(0x40)\n      dup4\n      0xffffffff\n      and\n      0xe0\n      shl\n      dup2\n      mstore\n      0x04\n      add\n      tag_111\n      swap3\n      swap2\n      swap1\n      tag_112\n      jump\t// in\n    tag_111:\n      0x00\n      mload(0x40)\n      dup1\n      dup4\n      sub\n      dup2\n      0x00\n      dup8\n      dup1\n      extcodesize\n      iszero\n      dup1\n      iszero\n      tag_113\n      jumpi\n      revert(0x00, 0x00)\n    tag_113:\n      pop\n      gas\n      call\n      iszero\n      dup1\n      iszero\n      tag_115\n      jumpi\n      returndatacopy(0x00, 0x00, returndatasize)\n      revert(0x00, returndatasize)\n    tag_115:\n      pop\n      pop\n      pop\n      pop\n        /* \"UserRegistry.sol\":1873:1883  msg.sender */\n      caller\n        /* \"UserRegistry.sol\":1860:1900  EOCHOAirdrop(msg.sender, AIRDROP_AMOUNT) */\n      0xffffffffffffffffffffffffffffffffffffffff\n      and\n      0x48ed732e3e0fcb29b2d80ef5a673136179b6b6fc6ef84048ba2547c965a52e74\n        /* \"UserRegistry.sol\":1885:1899  AIRDROP_AMOUNT */\n      sload(0x02)\n        /* \"UserRegistry.sol\":1860:1900  EOCHOAirdrop(msg.sender, AIRDROP_AMOUNT) */\n      mload(0x40)\n      tag_116\n      swap2\n      swap1\n      tag_33\n      jump\t// in\n    tag_116:\n      mload(0x40)\n      dup1\n      swap2\n      sub\n      swap1\n      log2\n        /* \"UserRegistry.sol\":1722:1916  if (!u.airdropped) {... */\n    tag_110:\n        /* \"UserRegistry.sol\":1304:1927  if (u.createdAt == 0) {... */\n    tag_94:\n        /* \"UserRegistry.sol\":1246:1934  {... */\n      pop\n        /* \"@openzeppelin/contracts/security/ReentrancyGuard.sol\":2303:2323  _nonReentrantAfter() */\n      tag_117\n        /* \"@openzeppelin/contracts/security/ReentrancyGuard.sol\":2303:2321  _nonReentrantAfter */\n      tag_118\n        /* \"@openzeppelin/contracts/security/ReentrancyGuard.sol\":2303:2323  _nonReentrantAfter() */\n      jump\t// in\n    tag_117:\n        /* \"UserRegistry.sol\":1092:1934  function registerIfNeeded(... */\n      pop\n      pop\n      pop\n      pop\n      pop\n      pop\n      jump\t// out\n        /* \"UserRegistry.sol\":1942:2044  function getUser(address who) external view returns (User memory) {... */\n    tag_48:\n        /* \"UserRegistry.sol\":1995:2006  User memory */\n      tag_119\n      tag_120\n      jump\t// in\n    tag_119:\n        /* \"UserRegistry.sol\":2026:2031  users */\n      0x03\n        /* \"UserRegistry.sol\":2026:2036  users[who] */\n      0x00\n        /* \"UserRegistry.sol\":2032:2035  who */\n      dup4\n        /* \"UserRegistry.sol\":2026:2036  users[who] */\n      0xffffffffffffffffffffffffffffffffffffffff\n      and\n      0xffffffffffffffffffffffffffffffffffffffff\n      and\n      dup2\n      mstore\n      0x20\n      add\n      swap1\n      dup2\n      mstore\n      0x20\n      add\n      0x00\n      keccak256\n        /* \"UserRegistry.sol\":2019:2036  return users[who] */\n      mload(0x40)\n      dup1\n      0xe0\n      add\n      0x40\n      mstore\n      swap1\n      dup2\n      0x00\n      dup3\n      add\n      0x00\n      swap1\n      sload\n      swap1\n      0x0100\n      exp\n      swap1\n      div\n      0xffffffffffffffffffffffffffffffffffffffff\n      and\n      0xffffffffffffffffffffffffffffffffffffffff\n      and\n      0xffffffffffffffffffffffffffffffffffffffff\n      and\n      dup2\n      mstore\n      0x20\n      add\n      0x01\n      dup3\n      add\n      dup1\n      sload\n      tag_122\n      swap1\n      tag_123\n      jump\t// in\n    tag_122:\n      dup1\n      0x1f\n      add\n      0x20\n      dup1\n      swap2\n      div\n      mul\n      0x20\n      add\n      mload(0x40)\n      swap1\n      dup2\n      add\n      0x40\n      mstore\n      dup1\n      swap3\n      swap2\n      swap1\n      dup2\n      dup2\n      mstore\n      0x20\n      add\n      dup3\n      dup1\n      sload\n      tag_124\n      swap1\n      tag_123\n      jump\t// in\n    tag_124:\n      dup1\n      iszero\n      tag_125\n      jumpi\n      dup1\n      0x1f\n      lt\n      tag_126\n      jumpi\n      0x0100\n      dup1\n      dup4\n      sload\n      div\n      mul\n      dup4\n      mstore\n      swap2\n      0x20\n      add\n      swap2\n      jump(tag_125)\n    tag_126:\n      dup3\n      add\n      swap2\n      swap1\n      0x00\n      mstore\n      keccak256(0x00, 0x20)\n      swap1\n    tag_127:\n      dup2\n      sload\n      dup2\n      mstore\n      swap1\n      0x01\n      add\n      swap1\n      0x20\n      add\n      dup1\n      dup4\n      gt\n      tag_127\n      jumpi\n      dup3\n      swap1\n      sub\n      0x1f\n      and\n      dup3\n      add\n      swap2\n    tag_125:\n      pop\n      pop\n      pop\n      pop\n      pop\n      dup2\n      mstore\n      0x20\n      add\n      0x02\n      dup3\n      add\n      dup1\n      sload\n      tag_128\n      swap1\n      tag_123\n      jump\t// in\n    tag_128:\n      dup1\n      0x1f\n      add\n      0x20\n      dup1\n      swap2\n      div\n      mul\n      0x20\n      add\n      mload(0x40)\n      swap1\n      dup2\n      add\n      0x40\n      mstore\n      dup1\n      swap3\n      swap2\n      swap1\n      dup2\n      dup2\n      mstore\n      0x20\n      add\n      dup3\n      dup1\n      sload\n      tag_129\n      swap1\n      tag_123\n      jump\t// in\n    tag_129:\n      dup1\n      iszero\n      tag_130\n      jumpi\n      dup1\n      0x1f\n      lt\n      tag_131\n      jumpi\n      0x0100\n      dup1\n      dup4\n      sload\n      div\n      mul\n      dup4\n      mstore\n      swap2\n      0x20\n      add\n      swap2\n      jump(tag_130)\n    tag_131:\n      dup3\n      add\n      swap2\n      swap1\n      0x00\n      mstore\n      keccak256(0x00, 0x20)\n      swap1\n    tag_132:\n      dup2\n      sload\n      dup2\n      mstore\n      swap1\n      0x01\n      add\n      swap1\n      0x20\n      add\n      dup1\n      dup4\n      gt\n      tag_132\n      jumpi\n      dup3\n      swap1\n      sub\n      0x1f\n      and\n      dup3\n      add\n      swap2\n    tag_130:\n      pop\n      pop\n      pop\n      pop\n      pop\n      dup2\n      mstore\n      0x20\n      add\n      0x03\n      dup3\n      add\n      dup1\n      sload\n      dup1\n      0x20\n      mul\n      0x20\n      add\n      mload(0x40)\n      swap1\n      dup2\n      add\n      0x40\n      mstore\n      dup1\n      swap3\n      swap2\n      swap1\n      dup2\n      dup2\n      mstore\n      0x20\n      add\n      0x00\n      swap1\n    tag_133:\n      dup3\n      dup3\n      lt\n      iszero\n      tag_134\n      jumpi\n      dup4\n      dup3\n      swap1\n      0x00\n      mstore\n      keccak256(0x00, 0x20)\n      add\n      dup1\n      sload\n      tag_136\n      swap1\n      tag_123\n      jump\t// in\n    tag_136:\n      dup1\n      0x1f\n      add\n      0x20\n      dup1\n      swap2\n      div\n      mul\n      0x20\n      add\n      mload(0x40)\n      swap1\n      dup2\n      add\n      0x40\n      mstore\n      dup1\n      swap3\n      swap2\n      swap1\n      dup2\n      dup2\n      mstore\n      0x20\n      add\n      dup3\n      dup1\n      sload\n      tag_137\n      swap1\n      tag_123\n      jump\t// in\n    tag_137:\n      dup1\n      iszero\n      tag_138\n      jumpi\n      dup1\n      0x1f\n      lt\n      tag_139\n      jumpi\n      0x0100\n      dup1\n      dup4\n      sload\n      div\n      mul\n      dup4\n      mstore\n      swap2\n      0x20\n      add\n      swap2\n      jump(tag_138)\n    tag_139:\n      dup3\n      add\n      swap2\n      swap1\n      0x00\n      mstore\n      keccak256(0x00, 0x20)\n      swap1\n    tag_140:\n      dup2\n      sload\n      dup2\n      mstore\n      swap1\n      0x01\n      add\n      swap1\n      0x20\n      add\n      dup1\n      dup4\n      gt\n      tag_140\n      jumpi\n      dup3\n      swap1\n      sub\n      0x1f\n      and\n      dup3\n      add\n      swap2\n    tag_138:\n      pop\n      pop\n      pop\n      pop\n      pop\n      dup2\n      mstore\n      0x20\n      add\n      swap1\n      0x01\n      add\n      swap1\n      jump(tag_133)\n    tag_134:\n      pop\n      pop\n      pop\n      pop\n      dup2\n      mstore\n      0x20\n      add\n      0x04\n      dup3\n      add\n      sload\n      dup2\n      mstore\n      0x20\n      add\n      0x05\n      dup3\n      add\n      0x00\n      swap1\n      sload\n      swap1\n      0x0100\n      exp\n      swap1\n      div\n      0xff\n      and\n      iszero\n      iszero\n      iszero\n      iszero\n      dup2\n      mstore\n      0x20\n      add\n      0x05\n      dup3\n      add\n      0x01\n      swap1\n      sload\n      swap1\n      0x0100\n      exp\n      swap1\n      div\n      0xff\n      and\n      iszero\n      iszero\n      iszero\n      iszero\n      dup2\n      mstore\n      pop\n      pop\n      swap1\n      pop\n        /* \"UserRegistry.sol\":1942:2044  function getUser(address who) external view returns (User memory) {... */\n      swap2\n      swap1\n      pop\n      jump\t// out\n        /* \"UserRegistry.sol\":376:436  bytes32 public constant ADMIN_ROLE = keccak256(\"ADMIN_ROLE\") */\n    tag_52:\n        /* \"UserRegistry.sol\":413:436  keccak256(\"ADMIN_ROLE\") */\n      0xa49807205ce4d355092ef5a8a18f56e8913cf4a201fbe287825b095693c21775\n        /* \"UserRegistry.sol\":376:436  bytes32 public constant ADMIN_ROLE = keccak256(\"ADMIN_ROLE\") */\n      dup2\n      jump\t// out\n        /* \"@openzeppelin/contracts/access/AccessControl.sol\":2830:2966  function hasRole(bytes32 role, address account) public view virtual returns (bool) {... */\n    tag_56:\n        /* \"@openzeppelin/contracts/access/AccessControl.sol\":2907:2911  bool */\n      0x00\n        /* \"@openzeppelin/contracts/access/AccessControl.sol\":2930:2936  _roles */\n      0x00\n        /* \"@openzeppelin/contracts/access/AccessControl.sol\":2930:2942  _roles[role] */\n      0x00\n        /* \"@openzeppelin/contracts/access/AccessControl.sol\":2937:2941  role */\n      dup5\n        /* \"@openzeppelin/contracts/access/AccessControl.sol\":2930:2942  _roles[role] */\n      dup2\n      mstore\n      0x20\n      add\n      swap1\n      dup2\n      mstore\n      0x20\n      add\n      0x00\n      keccak256\n        /* \"@openzeppelin/contracts/access/AccessControl.sol\":2930:2950  _roles[role].hasRole */\n      0x00\n      add\n        /* \"@openzeppelin/contracts/access/AccessControl.sol\":2930:2959  _roles[role].hasRole[account] */\n      0x00\n        /* \"@openzeppelin/contracts/access/AccessControl.sol\":2951:2958  account */\n      dup4\n        /* \"@openzeppelin/contracts/access/AccessControl.sol\":2930:2959  _roles[role].hasRole[account] */\n      0xffffffffffffffffffffffffffffffffffffffff\n      and\n      0xffffffffffffffffffffffffffffffffffffffff\n      and\n      dup2\n      mstore\n      0x20\n      add\n      swap1\n      dup2\n      mstore\n      0x20\n      add\n      0x00\n      keccak256\n      0x00\n      swap1\n      sload\n      swap1\n      0x0100\n      exp\n      swap1\n      div\n      0xff\n      and\n        /* \"@openzeppelin/contracts/access/AccessControl.sol\":2923:2959  return _roles[role].hasRole[account] */\n      swap1\n      pop\n        /* \"@openzeppelin/contracts/access/AccessControl.sol\":2830:2966  function hasRole(bytes32 role, address account) public view virtual returns (bool) {... */\n      swap3\n      swap2\n      pop\n      pop\n      jump\t// out\n        /* \"@openzeppelin/contracts/access/AccessControl.sol\":2196:2245  bytes32 public constant DEFAULT_ADMIN_ROLE = 0x00 */\n    tag_59:\n        /* \"@openzeppelin/contracts/access/AccessControl.sol\":2241:2245  0x00 */\n      0x00\n        /* \"@openzeppelin/contracts/access/AccessControl.sol\":2196:2245  bytes32 public constant DEFAULT_ADMIN_ROLE = 0x00 */\n      0x00\n      shl\n      dup2\n      jump\t// out\n        /* \"UserRegistry.sol\":2052:2166  function setAirdropAmount(uint256 amount) external onlyRole(ADMIN_ROLE) {... */\n    tag_64:\n        /* \"UserRegistry.sol\":413:436  keccak256(\"ADMIN_ROLE\") */\n      0xa49807205ce4d355092ef5a8a18f56e8913cf4a201fbe287825b095693c21775\n        /* \"@openzeppelin/contracts/access/AccessControl.sol\":2473:2489  _checkRole(role) */\n      tag_143\n        /* \"@openzeppelin/contracts/access/AccessControl.sol\":2484:2488  role */\n      dup2\n        /* \"@openzeppelin/contracts/access/AccessControl.sol\":2473:2483  _checkRole */\n      tag_80\n        /* \"@openzeppelin/contracts/access/AccessControl.sol\":2473:2489  _checkRole(role) */\n      jump\t// in\n    tag_143:\n        /* \"UserRegistry.sol\":2152:2158  amount */\n      dup2\n        /* \"UserRegistry.sol\":2135:2149  AIRDROP_AMOUNT */\n      0x02\n        /* \"UserRegistry.sol\":2135:2158  AIRDROP_AMOUNT = amount */\n      dup2\n      swap1\n      sstore\n      pop\n        /* \"UserRegistry.sol\":2052:2166  function setAirdropAmount(uint256 amount) external onlyRole(ADMIN_ROLE) {... */\n      pop\n      pop\n      jump\t// out\n        /* \"@openzeppelin/contracts/access/AccessControl.sol\":4618:4756  function revokeRole(bytes32 role, address account) public virtual onlyRole(getRoleAdmin(role)) {... */\n    tag_67:\n        /* \"@openzeppelin/contracts/access/AccessControl.sol\":4693:4711  getRoleAdmin(role) */\n      tag_145\n        /* \"@openzeppelin/contracts/access/AccessControl.sol\":4706:4710  role */\n      dup3\n        /* \"@openzeppelin/contracts/access/AccessControl.sol\":4693:4705  getRoleAdmin */\n      tag_27\n        /* \"@openzeppelin/contracts/access/AccessControl.sol\":4693:4711  getRoleAdmin(role) */\n      jump\t// in\n    tag_145:\n        /* \"@openzeppelin/contracts/access/AccessControl.sol\":2473:2489  _checkRole(role) */\n      tag_147\n        /* \"@openzeppelin/contracts/access/AccessControl.sol\":2484:2488  role */\n      dup2\n        /* \"@openzeppelin/contracts/access/AccessControl.sol\":2473:2483  _checkRole */\n      tag_80\n        /* \"@openzeppelin/contracts/access/AccessControl.sol\":2473:2489  _checkRole(role) */\n      jump\t// in\n    tag_147:\n        /* \"@openzeppelin/contracts/access/AccessControl.sol\":4723:4749  _revokeRole(role, account) */\n      tag_149\n        /* \"@openzeppelin/contracts/access/AccessControl.sol\":4735:4739  role */\n      dup4\n        /* \"@openzeppelin/contracts/access/AccessControl.sol\":4741:4748  account */\n      dup4\n        /* \"@openzeppelin/contracts/access/AccessControl.sol\":4723:4734  _revokeRole */\n      tag_89\n        /* \"@openzeppelin/contracts/access/AccessControl.sol\":4723:4749  _revokeRole(role, account) */\n      jump\t// in\n    tag_149:\n      pop\n        /* \"@openzeppelin/contracts/access/AccessControl.sol\":4618:4756  function revokeRole(bytes32 role, address account) public virtual onlyRole(getRoleAdmin(role)) {... */\n      pop\n      pop\n      pop\n      jump\t// out\n        /* \"UserRegistry.sol\":445:473  EOCHO public immutable token */\n    tag_69:\n      immutable(\"0x7d418661c0f2407aa242e802ba4f3c0a1e1f33fb65067c8d3ac4e2b67bc9eda7\")\n      dup2\n      jump\t// out\n        /* \"@openzeppelin/contracts/utils/introspection/ERC165.sol\":730:876  function supportsInterface(bytes4 interfaceId) public view virtual returns (bool) {... */\n    tag_75:\n        /* \"@openzeppelin/contracts/utils/introspection/ERC165.sol\":806:810  bool */\n      0x00\n        /* \"@openzeppelin/contracts/utils/introspection/ERC165.sol\":844:869  type(IERC165).interfaceId */\n      0x01ffc9a700000000000000000000000000000000000000000000000000000000\n        /* \"@openzeppelin/contracts/utils/introspection/ERC165.sol\":829:869  interfaceId == type(IERC165).interfaceId */\n      not(0xffffffffffffffffffffffffffffffffffffffffffffffffffffffff)\n      and\n        /* \"@openzeppelin/contracts/utils/introspection/ERC165.sol\":829:840  interfaceId */\n      dup3\n        /* \"@openzeppelin/contracts/utils/introspection/ERC165.sol\":829:869  interfaceId == type(IERC165).interfaceId */\n      not(0xffffffffffffffffffffffffffffffffffffffffffffffffffffffff)\n      and\n      eq\n        /* \"@openzeppelin/contracts/utils/introspection/ERC165.sol\":822:869  return interfaceId == type(IERC165).interfaceId */\n      swap1\n      pop\n        /* \"@openzeppelin/contracts/utils/introspection/ERC165.sol\":730:876  function supportsInterface(bytes4 interfaceId) public view virtual returns (bool) {... */\n      swap2\n      swap1\n      pop\n      jump\t// out\n        /* \"@openzeppelin/contracts/access/AccessControl.sol\":3175:3278  function _checkRole(bytes32 role) internal view virtual {... */\n    tag_80:\n        /* \"@openzeppelin/contracts/access/AccessControl.sol\":3241:3271  _checkRole(role, _msgSender()) */\n      tag_152\n        /* \"@openzeppelin/contracts/access/AccessControl.sol\":3252:3256  role */\n      dup2\n        /* \"@openzeppelin/contracts/access/AccessControl.sol\":3258:3270  _msgSender() */\n      tag_153\n        /* \"@openzeppelin/contracts/access/AccessControl.sol\":3258:3268  _msgSender */\n      tag_86\n        /* \"@openzeppelin/contracts/access/AccessControl.sol\":3258:3270  _msgSender() */\n      jump\t// in\n    tag_153:\n        /* \"@openzeppelin/contracts/access/AccessControl.sol\":3241:3251  _checkRole */\n      tag_154\n        /* \"@openzeppelin/contracts/access/AccessControl.sol\":3241:3271  _checkRole(role, _msgSender()) */\n      jump\t// in\n    tag_152:\n        /* \"@openzeppelin/contracts/access/AccessControl.sol\":3175:3278  function _checkRole(bytes32 role) internal view virtual {... */\n      pop\n      jump\t// out\n        /* \"@openzeppelin/contracts/access/AccessControl.sol\":6155:6471  function _grantRole(bytes32 role, address account) internal virtual returns (bool) {... */\n    tag_83:\n        /* \"@openzeppelin/contracts/access/AccessControl.sol\":6232:6236  bool */\n      0x00\n        /* \"@openzeppelin/contracts/access/AccessControl.sol\":6253:6275  hasRole(role, account) */\n      tag_156\n        /* \"@openzeppelin/contracts/access/AccessControl.sol\":6261:6265  role */\n      dup4\n        /* \"@openzeppelin/contracts/access/AccessControl.sol\":6267:6274  account */\n      dup4\n        /* \"@openzeppelin/contracts/access/AccessControl.sol\":6253:6260  hasRole */\n      tag_56\n        /* \"@openzeppelin/contracts/access/AccessControl.sol\":6253:6275  hasRole(role, account) */\n      jump\t// in\n    tag_156:\n        /* \"@openzeppelin/contracts/access/AccessControl.sol\":6248:6465  if (!hasRole(role, account)) {... */\n      tag_157\n      jumpi\n        /* \"@openzeppelin/contracts/access/AccessControl.sol\":6323:6327  true */\n      0x01\n        /* \"@openzeppelin/contracts/access/AccessControl.sol\":6291:6297  _roles */\n      0x00\n        /* \"@openzeppelin/contracts/access/AccessControl.sol\":6291:6303  _roles[role] */\n      0x00\n        /* \"@openzeppelin/contracts/access/AccessControl.sol\":6298:6302  role */\n      dup6\n        /* \"@openzeppelin/contracts/access/AccessControl.sol\":6291:6303  _roles[role] */\n      dup2\n      mstore\n      0x20\n      add\n      swap1\n      dup2\n      mstore\n      0x20\n      add\n      0x00\n      keccak256\n        /* \"@openzeppelin/contracts/access/AccessControl.sol\":6291:6311  _roles[role].hasRole */\n      0x00\n      add\n        /* \"@openzeppelin/contracts/access/AccessControl.sol\":6291:6320  _roles[role].hasRole[account] */\n      0x00\n        /* \"@openzeppelin/contracts/access/AccessControl.sol\":6312:6319  account */\n      dup5\n        /* \"@openzeppelin/contracts/access/AccessControl.sol\":6291:6320  _roles[role].hasRole[account] */\n      0xffffffffffffffffffffffffffffffffffffffff\n      and\n      0xffffffffffffffffffffffffffffffffffffffff\n      and\n      dup2\n      mstore\n      0x20\n      add\n      swap1\n      dup2\n      mstore\n      0x20\n      add\n      0x00\n      keccak256\n      0x00\n        /* \"@openzeppelin/contracts/access/AccessControl.sol\":6291:6327  _roles[role].hasRole[account] = true */\n      0x0100\n      exp\n      dup2\n      sload\n      dup2\n      0xff\n      mul\n      not\n      and\n      swap1\n      dup4\n      iszero\n      iszero\n      mul\n      or\n      swap1\n      sstore\n      pop\n        /* \"@openzeppelin/contracts/access/AccessControl.sol\":6373:6385  _msgSender() */\n      tag_158\n        /* \"@openzeppelin/contracts/access/AccessControl.sol\":6373:6383  _msgSender */\n      tag_86\n        /* \"@openzeppelin/contracts/access/AccessControl.sol\":6373:6385  _msgSender() */\n      jump\t// in\n    tag_158:\n        /* \"@openzeppelin/contracts/access/AccessControl.sol\":6346:6386  RoleGranted(role, account, _msgSender()) */\n      0xffffffffffffffffffffffffffffffffffffffff\n      and\n        /* \"@openzeppelin/contracts/access/AccessControl.sol\":6364:6371  account */\n      dup3\n        /* \"@openzeppelin/contracts/access/AccessControl.sol\":6346:6386  RoleGranted(role, account, _msgSender()) */\n      0xffffffffffffffffffffffffffffffffffffffff\n      and\n        /* \"@openzeppelin/contracts/access/AccessControl.sol\":6358:6362  role */\n      dup5\n        /* \"@openzeppelin/contracts/access/AccessControl.sol\":6346:6386  RoleGranted(role, account, _msgSender()) */\n      0x2f8788117e7eff1d82e926ec794901d17c78024a50270940304540a733656f0d\n      mload(0x40)\n      mload(0x40)\n      dup1\n      swap2\n      sub\n      swap1\n      log4\n        /* \"@openzeppelin/contracts/access/AccessControl.sol\":6407:6411  true */\n      0x01\n        /* \"@openzeppelin/contracts/access/AccessControl.sol\":6400:6411  return true */\n      swap1\n      pop\n      jump(tag_155)\n        /* \"@openzeppelin/contracts/access/AccessControl.sol\":6248:6465  if (!hasRole(role, account)) {... */\n    tag_157:\n        /* \"@openzeppelin/contracts/access/AccessControl.sol\":6449:6454  false */\n      0x00\n        /* \"@openzeppelin/contracts/access/AccessControl.sol\":6442:6454  return false */\n      swap1\n      pop\n        /* \"@openzeppelin/contracts/access/AccessControl.sol\":6155:6471  function _grantRole(bytes32 role, address account) internal virtual returns (bool) {... */\n    tag_155:\n      swap3\n      swap2\n      pop\n      pop\n      jump\t// out\n        /* \"@openzeppelin/contracts/utils/Context.sol\":656:752  function _msgSender() internal view virtual returns (address) {... */\n    tag_86:\n        /* \"@openzeppelin/contracts/utils/Context.sol\":709:716  address */\n      0x00\n        /* \"@openzeppelin/contracts/utils/Context.sol\":735:745  msg.sender */\n      caller\n        /* \"@openzeppelin/contracts/utils/Context.sol\":728:745  return msg.sender */\n      swap1\n      pop\n        /* \"@openzeppelin/contracts/utils/Context.sol\":656:752  function _msgSender() internal view virtual returns (address) {... */\n      swap1\n      jump\t// out\n        /* \"@openzeppelin/contracts/access/AccessControl.sol\":6708:7025  function _revokeRole(bytes32 role, address account) internal virtual returns (bool) {... */\n    tag_89:\n        /* \"@openzeppelin/contracts/access/AccessControl.sol\":6786:6790  bool */\n      0x00\n        /* \"@openzeppelin/contracts/access/AccessControl.sol\":6806:6828  hasRole(role, account) */\n      tag_162\n        /* \"@openzeppelin/contracts/access/AccessControl.sol\":6814:6818  role */\n      dup4\n        /* \"@openzeppelin/contracts/access/AccessControl.sol\":6820:6827  account */\n      dup4\n        /* \"@openzeppelin/contracts/access/AccessControl.sol\":6806:6813  hasRole */\n      tag_56\n        /* \"@openzeppelin/contracts/access/AccessControl.sol\":6806:6828  hasRole(role, account) */\n      jump\t// in\n    tag_162:\n        /* \"@openzeppelin/contracts/access/AccessControl.sol\":6802:7019  if (hasRole(role, account)) {... */\n      iszero\n      tag_163\n      jumpi\n        /* \"@openzeppelin/contracts/access/AccessControl.sol\":6876:6881  false */\n      0x00\n        /* \"@openzeppelin/contracts/access/AccessControl.sol\":6844:6850  _roles */\n      0x00\n        /* \"@openzeppelin/contracts/access/AccessControl.sol\":6844:6856  _roles[role] */\n      0x00\n        /* \"@openzeppelin/contracts/access/AccessControl.sol\":6851:6855  role */\n      dup6\n        /* \"@openzeppelin/contracts/access/AccessControl.sol\":6844:6856  _roles[role] */\n      dup2\n      mstore\n      0x20\n      add\n      swap1\n      dup2\n      mstore\n      0x20\n      add\n      0x00\n      keccak256\n        /* \"@openzeppelin/contracts/access/AccessControl.sol\":6844:6864  _roles[role].hasRole */\n      0x00\n      add\n        /* \"@openzeppelin/contracts/access/AccessControl.sol\":6844:6873  _roles[role].hasRole[account] */\n      0x00\n        /* \"@openzeppelin/contracts/access/AccessControl.sol\":6865:6872  account */\n      dup5\n        /* \"@openzeppelin/contracts/access/AccessControl.sol\":6844:6873  _roles[role].hasRole[account] */\n      0xffffffffffffffffffffffffffffffffffffffff\n      and\n      0xffffffffffffffffffffffffffffffffffffffff\n      and\n      dup2\n      mstore\n      0x20\n      add\n      swap1\n      dup2\n      mstore\n      0x20\n      add\n      0x00\n      keccak256\n      0x00\n        /* \"@openzeppelin/contracts/access/AccessControl.sol\":6844:6881  _roles[role].hasRole[account] = false */\n      0x0100\n      exp\n      dup2\n      sload\n      dup2\n      0xff\n      mul\n      not\n      and\n      swap1\n      dup4\n      iszero\n      iszero\n      mul\n      or\n      swap1\n      sstore\n      pop\n        /* \"@openzeppelin/contracts/access/AccessControl.sol\":6927:6939  _msgSender() */\n      tag_164\n        /* \"@openzeppelin/contracts/access/AccessControl.sol\":6927:6937  _msgSender */\n      tag_86\n        /* \"@openzeppelin/contracts/access/AccessControl.sol\":6927:6939  _msgSender() */\n      jump\t// in\n    tag_164:\n        /* \"@openzeppelin/contracts/access/AccessControl.sol\":6900:6940  RoleRevoked(role, account, _msgSender()) */\n      0xffffffffffffffffffffffffffffffffffffffff\n      and\n        /* \"@openzeppelin/contracts/access/AccessControl.sol\":6918:6925  account */\n      dup3\n        /* \"@openzeppelin/contracts/access/AccessControl.sol\":6900:6940  RoleRevoked(role, account, _msgSender()) */\n      0xffffffffffffffffffffffffffffffffffffffff\n      and\n        /* \"@openzeppelin/contracts/access/AccessControl.sol\":6912:6916  role */\n      dup5\n        /* \"@openzeppelin/contracts/access/AccessControl.sol\":6900:6940  RoleRevoked(role, account, _msgSender()) */\n      0xf6391f5c32d9c69d2a47ea670b442974b53935d1edc7fd64eb21e047a839171b\n      mload(0x40)\n      mload(0x40)\n      dup1\n      swap2\n      sub\n      swap1\n      log4\n        /* \"@openzeppelin/contracts/access/AccessControl.sol\":6961:6965  true */\n      0x01\n        /* \"@openzeppelin/contracts/access/AccessControl.sol\":6954:6965  return true */\n      swap1\n      pop\n      jump(tag_161)\n        /* \"@openzeppelin/contracts/access/AccessControl.sol\":6802:7019  if (hasRole(role, account)) {... */\n    tag_163:\n        /* \"@openzeppelin/contracts/access/AccessControl.sol\":7003:7008  false */\n      0x00\n        /* \"@openzeppelin/contracts/access/AccessControl.sol\":6996:7008  return false */\n      swap1\n      pop\n        /* \"@openzeppelin/contracts/access/AccessControl.sol\":6708:7025  function _revokeRole(bytes32 role, address account) internal virtual returns (bool) {... */\n    tag_161:\n      swap3\n      swap2\n      pop\n      pop\n      jump\t// out\n        /* \"@openzeppelin/contracts/security/ReentrancyGuard.sol\":2336:2623  function _nonReentrantBefore() private {... */\n    tag_92:\n        /* \"@openzeppelin/contracts/security/ReentrancyGuard.sol\":1759:1760  2 */\n      0x02\n        /* \"@openzeppelin/contracts/security/ReentrancyGuard.sol\":2468:2475  _status */\n      sload(0x01)\n        /* \"@openzeppelin/contracts/security/ReentrancyGuard.sol\":2468:2487  _status != _ENTERED */\n      sub\n        /* \"@openzeppelin/contracts/security/ReentrancyGuard.sol\":2460:2523  require(_status != _ENTERED, \"ReentrancyGuard: reentrant call\") */\n      tag_167\n      jumpi\n      mload(0x40)\n      0x08c379a000000000000000000000000000000000000000000000000000000000\n      dup2\n      mstore\n      0x04\n      add\n      tag_168\n      swap1\n      tag_169\n      jump\t// in\n    tag_168:\n      mload(0x40)\n      dup1\n      swap2\n      sub\n      swap1\n      revert\n    tag_167:\n        /* \"@openzeppelin/contracts/security/ReentrancyGuard.sol\":1759:1760  2 */\n      0x02\n        /* \"@openzeppelin/contracts/security/ReentrancyGuard.sol\":2598:2605  _status */\n      0x01\n        /* \"@openzeppelin/contracts/security/ReentrancyGuard.sol\":2598:2616  _status = _ENTERED */\n      dup2\n      swap1\n      sstore\n      pop\n        /* \"@openzeppelin/contracts/security/ReentrancyGuard.sol\":2336:2623  function _nonReentrantBefore() private {... */\n      jump\t// out\n        /* \"@openzeppelin/contracts/security/ReentrancyGuard.sol\":2629:2838  function _nonReentrantAfter() private {... */\n    tag_118:\n        /* \"@openzeppelin/contracts/security/ReentrancyGuard.sol\":1716:1717  1 */\n      0x01\n        /* \"@openzeppelin/contracts/security/ReentrancyGuard.sol\":2809:2816  _status */\n      dup1\n        /* \"@openzeppelin/contracts/security/ReentrancyGuard.sol\":2809:2831  _status = _NOT_ENTERED */\n      dup2\n      swap1\n      sstore\n      pop\n        /* \"@openzeppelin/contracts/security/ReentrancyGuard.sol\":2629:2838  function _nonReentrantAfter() private {... */\n      jump\t// out\n        /* \"@openzeppelin/contracts/access/AccessControl.sol\":3408:3605  function _checkRole(bytes32 role, address account) internal view virtual {... */\n    tag_154:\n        /* \"@openzeppelin/contracts/access/AccessControl.sol\":3496:3518  hasRole(role, account) */\n      tag_172\n        /* \"@openzeppelin/contracts/access/AccessControl.sol\":3504:3508  role */\n      dup3\n        /* \"@openzeppelin/contracts/access/AccessControl.sol\":3510:3517  account */\n      dup3\n        /* \"@openzeppelin/contracts/access/AccessControl.sol\":3496:3503  hasRole */\n      tag_56\n        /* \"@openzeppelin/contracts/access/AccessControl.sol\":3496:3518  hasRole(role, account) */\n      jump\t// in\n    tag_172:\n        /* \"@openzeppelin/contracts/access/AccessControl.sol\":3491:3599  if (!hasRole(role, account)) {... */\n      tag_173\n      jumpi\n        /* \"@openzeppelin/contracts/access/AccessControl.sol\":3574:3581  account */\n      dup1\n        /* \"@openzeppelin/contracts/access/AccessControl.sol\":3583:3587  role */\n      dup3\n        /* \"@openzeppelin/contracts/access/AccessControl.sol\":3541:3588  AccessControlUnauthorizedAccount(account, role) */\n      mload(0x40)\n      0xe2517d3f00000000000000000000000000000000000000000000000000000000\n      dup2\n      mstore\n      0x04\n      add\n      tag_174\n      swap3\n      swap2\n      swap1\n      tag_175\n      jump\t// in\n    tag_174:\n      mload(0x40)\n      dup1\n      swap2\n      sub\n      swap1\n      revert\n        /* \"@openzeppelin/contracts/access/AccessControl.sol\":3491:3599  if (!hasRole(role, account)) {... */\n    tag_173:\n        /* \"@openzeppelin/contracts/access/AccessControl.sol\":3408:3605  function _checkRole(bytes32 role, address account) internal view virtual {... */\n      pop\n      pop\n      jump\t// out\n    tag_120:\n      mload(0x40)\n      dup1\n      0xe0\n      add\n      0x40\n      mstore\n      dup1\n      and(0xffffffffffffffffffffffffffffffffffffffff, 0x00)\n      dup2\n      mstore\n      0x20\n      add\n      0x60\n      dup2\n      mstore\n      0x20\n      add\n      0x60\n      dup2\n      mstore\n      0x20\n      add\n      0x60\n      dup2\n      mstore\n      0x20\n      add\n      0x00\n      dup2\n      mstore\n      0x20\n      add\n      iszero(iszero(0x00))\n      dup2\n      mstore\n      0x20\n      add\n      iszero(iszero(0x00))\n      dup2\n      mstore\n      pop\n      swap1\n      jump\t// out\n        /* \"#utility.yul\":88:205   */\n    tag_177:\n        /* \"#utility.yul\":197:198   */\n      0x00\n        /* \"#utility.yul\":194:195   */\n      0x00\n        /* \"#utility.yul\":187:199   */\n      revert\n        /* \"#utility.yul\":211:328   */\n    tag_178:\n        /* \"#utility.yul\":320:321   */\n      0x00\n        /* \"#utility.yul\":317:318   */\n      0x00\n        /* \"#utility.yul\":310:322   */\n      revert\n        /* \"#utility.yul\":334:483   */\n    tag_179:\n        /* \"#utility.yul\":370:377   */\n      0x00\n        /* \"#utility.yul\":410:476   */\n      0xffffffff00000000000000000000000000000000000000000000000000000000\n        /* \"#utility.yul\":403:408   */\n      dup3\n        /* \"#utility.yul\":399:477   */\n      and\n        /* \"#utility.yul\":388:477   */\n      swap1\n      pop\n        /* \"#utility.yul\":334:483   */\n      swap2\n      swap1\n      pop\n      jump\t// out\n        /* \"#utility.yul\":489:609   */\n    tag_180:\n        /* \"#utility.yul\":561:584   */\n      tag_253\n        /* \"#utility.yul\":578:583   */\n      dup2\n        /* \"#utility.yul\":561:584   */\n      tag_179\n      jump\t// in\n    tag_253:\n        /* \"#utility.yul\":554:559   */\n      dup2\n        /* \"#utility.yul\":551:585   */\n      eq\n        /* \"#utility.yul\":541:603   */\n      tag_254\n      jumpi\n        /* \"#utility.yul\":599:600   */\n      0x00\n        /* \"#utility.yul\":596:597   */\n      0x00\n        /* \"#utility.yul\":589:601   */\n      revert\n        /* \"#utility.yul\":541:603   */\n    tag_254:\n        /* \"#utility.yul\":489:609   */\n      pop\n      jump\t// out\n        /* \"#utility.yul\":615:752   */\n    tag_181:\n        /* \"#utility.yul\":660:665   */\n      0x00\n        /* \"#utility.yul\":698:704   */\n      dup2\n        /* \"#utility.yul\":685:705   */\n      calldataload\n        /* \"#utility.yul\":676:705   */\n      swap1\n      pop\n        /* \"#utility.yul\":714:746   */\n      tag_256\n        /* \"#utility.yul\":740:745   */\n      dup2\n        /* \"#utility.yul\":714:746   */\n      tag_180\n      jump\t// in\n    tag_256:\n        /* \"#utility.yul\":615:752   */\n      swap3\n      swap2\n      pop\n      pop\n      jump\t// out\n        /* \"#utility.yul\":758:1085   */\n    tag_20:\n        /* \"#utility.yul\":816:822   */\n      0x00\n        /* \"#utility.yul\":865:867   */\n      0x20\n        /* \"#utility.yul\":853:862   */\n      dup3\n        /* \"#utility.yul\":844:851   */\n      dup5\n        /* \"#utility.yul\":840:863   */\n      sub\n        /* \"#utility.yul\":836:868   */\n      slt\n        /* \"#utility.yul\":833:952   */\n      iszero\n      tag_258\n      jumpi\n        /* \"#utility.yul\":871:950   */\n      tag_259\n      tag_177\n      jump\t// in\n    tag_259:\n        /* \"#utility.yul\":833:952   */\n    tag_258:\n        /* \"#utility.yul\":991:992   */\n      0x00\n        /* \"#utility.yul\":1016:1068   */\n      tag_260\n        /* \"#utility.yul\":1060:1067   */\n      dup5\n        /* \"#utility.yul\":1051:1057   */\n      dup3\n        /* \"#utility.yul\":1040:1049   */\n      dup6\n        /* \"#utility.yul\":1036:1058   */\n      add\n        /* \"#utility.yul\":1016:1068   */\n      tag_181\n      jump\t// in\n    tag_260:\n        /* \"#utility.yul\":1006:1068   */\n      swap2\n      pop\n        /* \"#utility.yul\":962:1078   */\n      pop\n        /* \"#utility.yul\":758:1085   */\n      swap3\n      swap2\n      pop\n      pop\n      jump\t// out\n        /* \"#utility.yul\":1091:1181   */\n    tag_182:\n        /* \"#utility.yul\":1125:1132   */\n      0x00\n        /* \"#utility.yul\":1168:1173   */\n      dup2\n        /* \"#utility.yul\":1161:1174   */\n      iszero\n        /* \"#utility.yul\":1154:1175   */\n      iszero\n        /* \"#utility.yul\":1143:1175   */\n      swap1\n      pop\n        /* \"#utility.yul\":1091:1181   */\n      swap2\n      swap1\n      pop\n      jump\t// out\n        /* \"#utility.yul\":1187:1296   */\n    tag_183:\n        /* \"#utility.yul\":1268:1289   */\n      tag_263\n        /* \"#utility.yul\":1283:1288   */\n      dup2\n        /* \"#utility.yul\":1268:1289   */\n      tag_182\n      jump\t// in\n    tag_263:\n        /* \"#utility.yul\":1263:1266   */\n      dup3\n        /* \"#utility.yul\":1256:1290   */\n      mstore\n        /* \"#utility.yul\":1187:1296   */\n      pop\n      pop\n      jump\t// out\n        /* \"#utility.yul\":1302:1512   */\n    tag_23:\n        /* \"#utility.yul\":1389:1393   */\n      0x00\n        /* \"#utility.yul\":1427:1429   */\n      0x20\n        /* \"#utility.yul\":1416:1425   */\n      dup3\n        /* \"#utility.yul\":1412:1430   */\n      add\n        /* \"#utility.yul\":1404:1430   */\n      swap1\n      pop\n        /* \"#utility.yul\":1440:1505   */\n      tag_265\n        /* \"#utility.yul\":1502:1503   */\n      0x00\n        /* \"#utility.yul\":1491:1500   */\n      dup4\n        /* \"#utility.yul\":1487:1504   */\n      add\n        /* \"#utility.yul\":1478:1484   */\n      dup5\n        /* \"#utility.yul\":1440:1505   */\n      tag_183\n      jump\t// in\n    tag_265:\n        /* \"#utility.yul\":1302:1512   */\n      swap3\n      swap2\n      pop\n      pop\n      jump\t// out\n        /* \"#utility.yul\":1518:1595   */\n    tag_184:\n        /* \"#utility.yul\":1555:1562   */\n      0x00\n        /* \"#utility.yul\":1584:1589   */\n      dup2\n        /* \"#utility.yul\":1573:1589   */\n      swap1\n      pop\n        /* \"#utility.yul\":1518:1595   */\n      swap2\n      swap1\n      pop\n      jump\t// out\n        /* \"#utility.yul\":1601:1723   */\n    tag_185:\n        /* \"#utility.yul\":1674:1698   */\n      tag_268\n        /* \"#utility.yul\":1692:1697   */\n      dup2\n        /* \"#utility.yul\":1674:1698   */\n      tag_184\n      jump\t// in\n    tag_268:\n        /* \"#utility.yul\":1667:1672   */\n      dup2\n        /* \"#utility.yul\":1664:1699   */\n      eq\n        /* \"#utility.yul\":1654:1717   */\n      tag_269\n      jumpi\n        /* \"#utility.yul\":1713:1714   */\n      0x00\n        /* \"#utility.yul\":1710:1711   */\n      0x00\n        /* \"#utility.yul\":1703:1715   */\n      revert\n        /* \"#utility.yul\":1654:1717   */\n    tag_269:\n        /* \"#utility.yul\":1601:1723   */\n      pop\n      jump\t// out\n        /* \"#utility.yul\":1729:1868   */\n    tag_186:\n        /* \"#utility.yul\":1775:1780   */\n      0x00\n        /* \"#utility.yul\":1813:1819   */\n      dup2\n        /* \"#utility.yul\":1800:1820   */\n      calldataload\n        /* \"#utility.yul\":1791:1820   */\n      swap1\n      pop\n        /* \"#utility.yul\":1829:1862   */\n      tag_271\n        /* \"#utility.yul\":1856:1861   */\n      dup2\n        /* \"#utility.yul\":1829:1862   */\n      tag_185\n      jump\t// in\n    tag_271:\n        /* \"#utility.yul\":1729:1868   */\n      swap3\n      swap2\n      pop\n      pop\n      jump\t// out\n        /* \"#utility.yul\":1874:2203   */\n    tag_26:\n        /* \"#utility.yul\":1933:1939   */\n      0x00\n        /* \"#utility.yul\":1982:1984   */\n      0x20\n        /* \"#utility.yul\":1970:1979   */\n      dup3\n        /* \"#utility.yul\":1961:1968   */\n      dup5\n        /* \"#utility.yul\":1957:1980   */\n      sub\n        /* \"#utility.yul\":1953:1985   */\n      slt\n        /* \"#utility.yul\":1950:2069   */\n      iszero\n      tag_273\n      jumpi\n        /* \"#utility.yul\":1988:2067   */\n      tag_274\n      tag_177\n      jump\t// in\n    tag_274:\n        /* \"#utility.yul\":1950:2069   */\n    tag_273:\n        /* \"#utility.yul\":2108:2109   */\n      0x00\n        /* \"#utility.yul\":2133:2186   */\n      tag_275\n        /* \"#utility.yul\":2178:2185   */\n      dup5\n        /* \"#utility.yul\":2169:2175   */\n      dup3\n        /* \"#utility.yul\":2158:2167   */\n      dup6\n        /* \"#utility.yul\":2154:2176   */\n      add\n        /* \"#utility.yul\":2133:2186   */\n      tag_186\n      jump\t// in\n    tag_275:\n        /* \"#utility.yul\":2123:2186   */\n      swap2\n      pop\n        /* \"#utility.yul\":2079:2196   */\n      pop\n        /* \"#utility.yul\":1874:2203   */\n      swap3\n      swap2\n      pop\n      pop\n      jump\t// out\n        /* \"#utility.yul\":2209:2327   */\n    tag_187:\n        /* \"#utility.yul\":2296:2320   */\n      tag_277\n        /* \"#utility.yul\":2314:2319   */\n      dup2\n        /* \"#utility.yul\":2296:2320   */\n      tag_184\n      jump\t// in\n    tag_277:\n        /* \"#utility.yul\":2291:2294   */\n      dup3\n        /* \"#utility.yul\":2284:2321   */\n      mstore\n        /* \"#utility.yul\":2209:2327   */\n      pop\n      pop\n      jump\t// out\n        /* \"#utility.yul\":2333:2555   */\n    tag_29:\n        /* \"#utility.yul\":2426:2430   */\n      0x00\n        /* \"#utility.yul\":2464:2466   */\n      0x20\n        /* \"#utility.yul\":2453:2462   */\n      dup3\n        /* \"#utility.yul\":2449:2467   */\n      add\n        /* \"#utility.yul\":2441:2467   */\n      swap1\n      pop\n        /* \"#utility.yul\":2477:2548   */\n      tag_279\n        /* \"#utility.yul\":2545:2546   */\n      0x00\n        /* \"#utility.yul\":2534:2543   */\n      dup4\n        /* \"#utility.yul\":2530:2547   */\n      add\n        /* \"#utility.yul\":2521:2527   */\n      dup5\n        /* \"#utility.yul\":2477:2548   */\n      tag_187\n      jump\t// in\n    tag_279:\n        /* \"#utility.yul\":2333:2555   */\n      swap3\n      swap2\n      pop\n      pop\n      jump\t// out\n        /* \"#utility.yul\":2561:2638   */\n    tag_188:\n        /* \"#utility.yul\":2598:2605   */\n      0x00\n        /* \"#utility.yul\":2627:2632   */\n      dup2\n        /* \"#utility.yul\":2616:2632   */\n      swap1\n      pop\n        /* \"#utility.yul\":2561:2638   */\n      swap2\n      swap1\n      pop\n      jump\t// out\n        /* \"#utility.yul\":2644:2762   */\n    tag_189:\n        /* \"#utility.yul\":2731:2755   */\n      tag_282\n        /* \"#utility.yul\":2749:2754   */\n      dup2\n        /* \"#utility.yul\":2731:2755   */\n      tag_188\n      jump\t// in\n    tag_282:\n        /* \"#utility.yul\":2726:2729   */\n      dup3\n        /* \"#utility.yul\":2719:2756   */\n      mstore\n        /* \"#utility.yul\":2644:2762   */\n      pop\n      pop\n      jump\t// out\n        /* \"#utility.yul\":2768:2990   */\n    tag_33:\n        /* \"#utility.yul\":2861:2865   */\n      0x00\n        /* \"#utility.yul\":2899:2901   */\n      0x20\n        /* \"#utility.yul\":2888:2897   */\n      dup3\n        /* \"#utility.yul\":2884:2902   */\n      add\n        /* \"#utility.yul\":2876:2902   */\n      swap1\n      pop\n        /* \"#utility.yul\":2912:2983   */\n      tag_284\n        /* \"#utility.yul\":2980:2981   */\n      0x00\n        /* \"#utility.yul\":2969:2978   */\n      dup4\n        /* \"#utility.yul\":2965:2982   */\n      add\n        /* \"#utility.yul\":2956:2962   */\n      dup5\n        /* \"#utility.yul\":2912:2983   */\n      tag_189\n      jump\t// in\n    tag_284:\n        /* \"#utility.yul\":2768:2990   */\n      swap3\n      swap2\n      pop\n      pop\n      jump\t// out\n        /* \"#utility.yul\":2996:3122   */\n    tag_190:\n        /* \"#utility.yul\":3033:3040   */\n      0x00\n        /* \"#utility.yul\":3073:3115   */\n      0xffffffffffffffffffffffffffffffffffffffff\n        /* \"#utility.yul\":3066:3071   */\n      dup3\n        /* \"#utility.yul\":3062:3116   */\n      and\n        /* \"#utility.yul\":3051:3116   */\n      swap1\n      pop\n        /* \"#utility.yul\":2996:3122   */\n      swap2\n      swap1\n      pop\n      jump\t// out\n        /* \"#utility.yul\":3128:3224   */\n    tag_191:\n        /* \"#utility.yul\":3165:3172   */\n      0x00\n        /* \"#utility.yul\":3194:3218   */\n      tag_287\n        /* \"#utility.yul\":3212:3217   */\n      dup3\n        /* \"#utility.yul\":3194:3218   */\n      tag_190\n      jump\t// in\n    tag_287:\n        /* \"#utility.yul\":3183:3218   */\n      swap1\n      pop\n        /* \"#utility.yul\":3128:3224   */\n      swap2\n      swap1\n      pop\n      jump\t// out\n        /* \"#utility.yul\":3230:3352   */\n    tag_192:\n        /* \"#utility.yul\":3303:3327   */\n      tag_289\n        /* \"#utility.yul\":3321:3326   */\n      dup2\n        /* \"#utility.yul\":3303:3327   */\n      tag_191\n      jump\t// in\n    tag_289:\n        /* \"#utility.yul\":3296:3301   */\n      dup2\n        /* \"#utility.yul\":3293:3328   */\n      eq\n        /* \"#utility.yul\":3283:3346   */\n      tag_290\n      jumpi\n        /* \"#utility.yul\":3342:3343   */\n      0x00\n        /* \"#utility.yul\":3339:3340   */\n      0x00\n        /* \"#utility.yul\":3332:3344   */\n      revert\n        /* \"#utility.yul\":3283:3346   */\n    tag_290:\n        /* \"#utility.yul\":3230:3352   */\n      pop\n      jump\t// out\n        /* \"#utility.yul\":3358:3497   */\n    tag_193:\n        /* \"#utility.yul\":3404:3409   */\n      0x00\n        /* \"#utility.yul\":3442:3448   */\n      dup2\n        /* \"#utility.yul\":3429:3449   */\n      calldataload\n        /* \"#utility.yul\":3420:3449   */\n      swap1\n      pop\n        /* \"#utility.yul\":3458:3491   */\n      tag_292\n        /* \"#utility.yul\":3485:3490   */\n      dup2\n        /* \"#utility.yul\":3458:3491   */\n      tag_192\n      jump\t// in\n    tag_292:\n        /* \"#utility.yul\":3358:3497   */\n      swap3\n      swap2\n      pop\n      pop\n      jump\t// out\n        /* \"#utility.yul\":3503:3977   */\n    tag_36:\n        /* \"#utility.yul\":3571:3577   */\n      0x00\n        /* \"#utility.yul\":3579:3585   */\n      0x00\n        /* \"#utility.yul\":3628:3630   */\n      0x40\n        /* \"#utility.yul\":3616:3625   */\n      dup4\n        /* \"#utility.yul\":3607:3614   */\n      dup6\n        /* \"#utility.yul\":3603:3626   */\n      sub\n        /* \"#utility.yul\":3599:3631   */\n      slt\n        /* \"#utility.yul\":3596:3715   */\n      iszero\n      tag_294\n      jumpi\n        /* \"#utility.yul\":3634:3713   */\n      tag_295\n      tag_177\n      jump\t// in\n    tag_295:\n        /* \"#utility.yul\":3596:3715   */\n    tag_294:\n        /* \"#utility.yul\":3754:3755   */\n      0x00\n        /* \"#utility.yul\":3779:3832   */\n      tag_296\n        /* \"#utility.yul\":3824:3831   */\n      dup6\n        /* \"#utility.yul\":3815:3821   */\n      dup3\n        /* \"#utility.yul\":3804:3813   */\n      dup7\n        /* \"#utility.yul\":3800:3822   */\n      add\n        /* \"#utility.yul\":3779:3832   */\n      tag_186\n      jump\t// in\n    tag_296:\n        /* \"#utility.yul\":3769:3832   */\n      swap3\n      pop\n        /* \"#utility.yul\":3725:3842   */\n      pop\n        /* \"#utility.yul\":3881:3883   */\n      0x20\n        /* \"#utility.yul\":3907:3960   */\n      tag_297\n        /* \"#utility.yul\":3952:3959   */\n      dup6\n        /* \"#utility.yul\":3943:3949   */\n      dup3\n        /* \"#utility.yul\":3932:3941   */\n      dup7\n        /* \"#utility.yul\":3928:3950   */\n      add\n        /* \"#utility.yul\":3907:3960   */\n      tag_193\n      jump\t// in\n    tag_297:\n        /* \"#utility.yul\":3897:3960   */\n      swap2\n      pop\n        /* \"#utility.yul\":3852:3970   */\n      pop\n        /* \"#utility.yul\":3503:3977   */\n      swap3\n      pop\n      swap3\n      swap1\n      pop\n      jump\t// out\n        /* \"#utility.yul\":3983:4100   */\n    tag_194:\n        /* \"#utility.yul\":4092:4093   */\n      0x00\n        /* \"#utility.yul\":4089:4090   */\n      0x00\n        /* \"#utility.yul\":4082:4094   */\n      revert\n        /* \"#utility.yul\":4106:4223   */\n    tag_195:\n        /* \"#utility.yul\":4215:4216   */\n      0x00\n        /* \"#utility.yul\":4212:4213   */\n      0x00\n        /* \"#utility.yul\":4205:4217   */\n      revert\n        /* \"#utility.yul\":4229:4346   */\n    tag_196:\n        /* \"#utility.yul\":4338:4339   */\n      0x00\n        /* \"#utility.yul\":4335:4336   */\n      0x00\n        /* \"#utility.yul\":4328:4340   */\n      revert\n        /* \"#utility.yul\":4366:4919   */\n    tag_197:\n        /* \"#utility.yul\":4424:4432   */\n      0x00\n        /* \"#utility.yul\":4434:4440   */\n      0x00\n        /* \"#utility.yul\":4484:4487   */\n      dup4\n        /* \"#utility.yul\":4477:4481   */\n      0x1f\n        /* \"#utility.yul\":4469:4475   */\n      dup5\n        /* \"#utility.yul\":4465:4482   */\n      add\n        /* \"#utility.yul\":4461:4488   */\n      slt\n        /* \"#utility.yul\":4451:4573   */\n      tag_302\n      jumpi\n        /* \"#utility.yul\":4492:4571   */\n      tag_303\n      tag_194\n      jump\t// in\n    tag_303:\n        /* \"#utility.yul\":4451:4573   */\n    tag_302:\n        /* \"#utility.yul\":4605:4611   */\n      dup3\n        /* \"#utility.yul\":4592:4612   */\n      calldataload\n        /* \"#utility.yul\":4582:4612   */\n      swap1\n      pop\n        /* \"#utility.yul\":4635:4653   */\n      0xffffffffffffffff\n        /* \"#utility.yul\":4627:4633   */\n      dup2\n        /* \"#utility.yul\":4624:4654   */\n      gt\n        /* \"#utility.yul\":4621:4738   */\n      iszero\n      tag_304\n      jumpi\n        /* \"#utility.yul\":4657:4736   */\n      tag_305\n      tag_195\n      jump\t// in\n    tag_305:\n        /* \"#utility.yul\":4621:4738   */\n    tag_304:\n        /* \"#utility.yul\":4771:4775   */\n      0x20\n        /* \"#utility.yul\":4763:4769   */\n      dup4\n        /* \"#utility.yul\":4759:4776   */\n      add\n        /* \"#utility.yul\":4747:4776   */\n      swap2\n      pop\n        /* \"#utility.yul\":4825:4828   */\n      dup4\n        /* \"#utility.yul\":4817:4821   */\n      0x01\n        /* \"#utility.yul\":4809:4815   */\n      dup3\n        /* \"#utility.yul\":4805:4822   */\n      mul\n        /* \"#utility.yul\":4795:4803   */\n      dup4\n        /* \"#utility.yul\":4791:4823   */\n      add\n        /* \"#utility.yul\":4788:4829   */\n      gt\n        /* \"#utility.yul\":4785:4913   */\n      iszero\n      tag_306\n      jumpi\n        /* \"#utility.yul\":4832:4911   */\n      tag_307\n      tag_196\n      jump\t// in\n    tag_307:\n        /* \"#utility.yul\":4785:4913   */\n    tag_306:\n        /* \"#utility.yul\":4366:4919   */\n      swap3\n      pop\n      swap3\n      swap1\n      pop\n      jump\t// out\n        /* \"#utility.yul\":4941:5521   */\n    tag_198:\n        /* \"#utility.yul\":5026:5034   */\n      0x00\n        /* \"#utility.yul\":5036:5042   */\n      0x00\n        /* \"#utility.yul\":5086:5089   */\n      dup4\n        /* \"#utility.yul\":5079:5083   */\n      0x1f\n        /* \"#utility.yul\":5071:5077   */\n      dup5\n        /* \"#utility.yul\":5067:5084   */\n      add\n        /* \"#utility.yul\":5063:5090   */\n      slt\n        /* \"#utility.yul\":5053:5175   */\n      tag_309\n      jumpi\n        /* \"#utility.yul\":5094:5173   */\n      tag_310\n      tag_194\n      jump\t// in\n    tag_310:\n        /* \"#utility.yul\":5053:5175   */\n    tag_309:\n        /* \"#utility.yul\":5207:5213   */\n      dup3\n        /* \"#utility.yul\":5194:5214   */\n      calldataload\n        /* \"#utility.yul\":5184:5214   */\n      swap1\n      pop\n        /* \"#utility.yul\":5237:5255   */\n      0xffffffffffffffff\n        /* \"#utility.yul\":5229:5235   */\n      dup2\n        /* \"#utility.yul\":5226:5256   */\n      gt\n        /* \"#utility.yul\":5223:5340   */\n      iszero\n      tag_311\n      jumpi\n        /* \"#utility.yul\":5259:5338   */\n      tag_312\n      tag_195\n      jump\t// in\n    tag_312:\n        /* \"#utility.yul\":5223:5340   */\n    tag_311:\n        /* \"#utility.yul\":5373:5377   */\n      0x20\n        /* \"#utility.yul\":5365:5371   */\n      dup4\n        /* \"#utility.yul\":5361:5378   */\n      add\n        /* \"#utility.yul\":5349:5378   */\n      swap2\n      pop\n        /* \"#utility.yul\":5427:5430   */\n      dup4\n        /* \"#utility.yul\":5419:5423   */\n      0x20\n        /* \"#utility.yul\":5411:5417   */\n      dup3\n        /* \"#utility.yul\":5407:5424   */\n      mul\n        /* \"#utility.yul\":5397:5405   */\n      dup4\n        /* \"#utility.yul\":5393:5425   */\n      add\n        /* \"#utility.yul\":5390:5431   */\n      gt\n        /* \"#utility.yul\":5387:5515   */\n      iszero\n      tag_313\n      jumpi\n        /* \"#utility.yul\":5434:5513   */\n      tag_314\n      tag_196\n      jump\t// in\n    tag_314:\n        /* \"#utility.yul\":5387:5515   */\n    tag_313:\n        /* \"#utility.yul\":4941:5521   */\n      swap3\n      pop\n      swap3\n      swap1\n      pop\n      jump\t// out\n        /* \"#utility.yul\":5527:6800   */\n    tag_43:\n        /* \"#utility.yul\":5667:5673   */\n      0x00\n        /* \"#utility.yul\":5675:5681   */\n      0x00\n        /* \"#utility.yul\":5683:5689   */\n      0x00\n        /* \"#utility.yul\":5691:5697   */\n      0x00\n        /* \"#utility.yul\":5699:5705   */\n      0x00\n        /* \"#utility.yul\":5707:5713   */\n      0x00\n        /* \"#utility.yul\":5756:5758   */\n      0x60\n        /* \"#utility.yul\":5744:5753   */\n      dup8\n        /* \"#utility.yul\":5735:5742   */\n      dup10\n        /* \"#utility.yul\":5731:5754   */\n      sub\n        /* \"#utility.yul\":5727:5759   */\n      slt\n        /* \"#utility.yul\":5724:5843   */\n      iszero\n      tag_316\n      jumpi\n        /* \"#utility.yul\":5762:5841   */\n      tag_317\n      tag_177\n      jump\t// in\n    tag_317:\n        /* \"#utility.yul\":5724:5843   */\n    tag_316:\n        /* \"#utility.yul\":5910:5911   */\n      0x00\n        /* \"#utility.yul\":5899:5908   */\n      dup8\n        /* \"#utility.yul\":5895:5912   */\n      add\n        /* \"#utility.yul\":5882:5913   */\n      calldataload\n        /* \"#utility.yul\":5940:5958   */\n      0xffffffffffffffff\n        /* \"#utility.yul\":5932:5938   */\n      dup2\n        /* \"#utility.yul\":5929:5959   */\n      gt\n        /* \"#utility.yul\":5926:6043   */\n      iszero\n      tag_318\n      jumpi\n        /* \"#utility.yul\":5962:6041   */\n      tag_319\n      tag_178\n      jump\t// in\n    tag_319:\n        /* \"#utility.yul\":5926:6043   */\n    tag_318:\n        /* \"#utility.yul\":6075:6140   */\n      tag_320\n        /* \"#utility.yul\":6132:6139   */\n      dup10\n        /* \"#utility.yul\":6123:6129   */\n      dup3\n        /* \"#utility.yul\":6112:6121   */\n      dup11\n        /* \"#utility.yul\":6108:6130   */\n      add\n        /* \"#utility.yul\":6075:6140   */\n      tag_197\n      jump\t// in\n    tag_320:\n        /* \"#utility.yul\":6057:6140   */\n      swap7\n      pop\n      swap7\n      pop\n        /* \"#utility.yul\":5853:6150   */\n      pop\n        /* \"#utility.yul\":6217:6219   */\n      0x20\n        /* \"#utility.yul\":6206:6215   */\n      dup8\n        /* \"#utility.yul\":6202:6220   */\n      add\n        /* \"#utility.yul\":6189:6221   */\n      calldataload\n        /* \"#utility.yul\":6248:6266   */\n      0xffffffffffffffff\n        /* \"#utility.yul\":6240:6246   */\n      dup2\n        /* \"#utility.yul\":6237:6267   */\n      gt\n        /* \"#utility.yul\":6234:6351   */\n      iszero\n      tag_321\n      jumpi\n        /* \"#utility.yul\":6270:6349   */\n      tag_322\n      tag_178\n      jump\t// in\n    tag_322:\n        /* \"#utility.yul\":6234:6351   */\n    tag_321:\n        /* \"#utility.yul\":6383:6448   */\n      tag_323\n        /* \"#utility.yul\":6440:6447   */\n      dup10\n        /* \"#utility.yul\":6431:6437   */\n      dup3\n        /* \"#utility.yul\":6420:6429   */\n      dup11\n        /* \"#utility.yul\":6416:6438   */\n      add\n        /* \"#utility.yul\":6383:6448   */\n      tag_197\n      jump\t// in\n    tag_323:\n        /* \"#utility.yul\":6365:6448   */\n      swap5\n      pop\n      swap5\n      pop\n        /* \"#utility.yul\":6160:6458   */\n      pop\n        /* \"#utility.yul\":6525:6527   */\n      0x40\n        /* \"#utility.yul\":6514:6523   */\n      dup8\n        /* \"#utility.yul\":6510:6528   */\n      add\n        /* \"#utility.yul\":6497:6529   */\n      calldataload\n        /* \"#utility.yul\":6556:6574   */\n      0xffffffffffffffff\n        /* \"#utility.yul\":6548:6554   */\n      dup2\n        /* \"#utility.yul\":6545:6575   */\n      gt\n        /* \"#utility.yul\":6542:6659   */\n      iszero\n      tag_324\n      jumpi\n        /* \"#utility.yul\":6578:6657   */\n      tag_325\n      tag_178\n      jump\t// in\n    tag_325:\n        /* \"#utility.yul\":6542:6659   */\n    tag_324:\n        /* \"#utility.yul\":6691:6783   */\n      tag_326\n        /* \"#utility.yul\":6775:6782   */\n      dup10\n        /* \"#utility.yul\":6766:6772   */\n      dup3\n        /* \"#utility.yul\":6755:6764   */\n      dup11\n        /* \"#utility.yul\":6751:6773   */\n      add\n        /* \"#utility.yul\":6691:6783   */\n      tag_198\n      jump\t// in\n    tag_326:\n        /* \"#utility.yul\":6673:6783   */\n      swap3\n      pop\n      swap3\n      pop\n        /* \"#utility.yul\":6468:6793   */\n      pop\n        /* \"#utility.yul\":5527:6800   */\n      swap3\n      swap6\n      pop\n      swap3\n      swap6\n      pop\n      swap3\n      swap6\n      jump\t// out\n        /* \"#utility.yul\":6806:7135   */\n    tag_47:\n        /* \"#utility.yul\":6865:6871   */\n      0x00\n        /* \"#utility.yul\":6914:6916   */\n      0x20\n        /* \"#utility.yul\":6902:6911   */\n      dup3\n        /* \"#utility.yul\":6893:6900   */\n      dup5\n        /* \"#utility.yul\":6889:6912   */\n      sub\n        /* \"#utility.yul\":6885:6917   */\n      slt\n        /* \"#utility.yul\":6882:7001   */\n      iszero\n      tag_328\n      jumpi\n        /* \"#utility.yul\":6920:6999   */\n      tag_329\n      tag_177\n      jump\t// in\n    tag_329:\n        /* \"#utility.yul\":6882:7001   */\n    tag_328:\n        /* \"#utility.yul\":7040:7041   */\n      0x00\n        /* \"#utility.yul\":7065:7118   */\n      tag_330\n        /* \"#utility.yul\":7110:7117   */\n      dup5\n        /* \"#utility.yul\":7101:7107   */\n      dup3\n        /* \"#utility.yul\":7090:7099   */\n      dup6\n        /* \"#utility.yul\":7086:7108   */\n      add\n        /* \"#utility.yul\":7065:7118   */\n      tag_193\n      jump\t// in\n    tag_330:\n        /* \"#utility.yul\":7055:7118   */\n      swap2\n      pop\n        /* \"#utility.yul\":7011:7128   */\n      pop\n        /* \"#utility.yul\":6806:7135   */\n      swap3\n      swap2\n      pop\n      pop\n      jump\t// out\n        /* \"#utility.yul\":7141:7249   */\n    tag_199:\n        /* \"#utility.yul\":7218:7242   */\n      tag_332\n        /* \"#utility.yul\":7236:7241   */\n      dup2\n        /* \"#utility.yul\":7218:7242   */\n      tag_191\n      jump\t// in\n    tag_332:\n        /* \"#utility.yul\":7213:7216   */\n      dup3\n        /* \"#utility.yul\":7206:7243   */\n      mstore\n        /* \"#utility.yul\":7141:7249   */\n      pop\n      pop\n      jump\t// out\n        /* \"#utility.yul\":7255:7354   */\n    tag_200:\n        /* \"#utility.yul\":7307:7313   */\n      0x00\n        /* \"#utility.yul\":7341:7346   */\n      dup2\n        /* \"#utility.yul\":7335:7347   */\n      mload\n        /* \"#utility.yul\":7325:7347   */\n      swap1\n      pop\n        /* \"#utility.yul\":7255:7354   */\n      swap2\n      swap1\n      pop\n      jump\t// out\n        /* \"#utility.yul\":7360:7519   */\n    tag_201:\n        /* \"#utility.yul\":7434:7445   */\n      0x00\n        /* \"#utility.yul\":7468:7474   */\n      dup3\n        /* \"#utility.yul\":7463:7466   */\n      dup3\n        /* \"#utility.yul\":7456:7475   */\n      mstore\n        /* \"#utility.yul\":7508:7512   */\n      0x20\n        /* \"#utility.yul\":7503:7506   */\n      dup3\n        /* \"#utility.yul\":7499:7513   */\n      add\n        /* \"#utility.yul\":7484:7513   */\n      swap1\n      pop\n        /* \"#utility.yul\":7360:7519   */\n      swap3\n      swap2\n      pop\n      pop\n      jump\t// out\n        /* \"#utility.yul\":7525:7664   */\n    tag_202:\n        /* \"#utility.yul\":7614:7620   */\n      dup3\n        /* \"#utility.yul\":7609:7612   */\n      dup2\n        /* \"#utility.yul\":7604:7607   */\n      dup4\n        /* \"#utility.yul\":7598:7621   */\n      mcopy\n        /* \"#utility.yul\":7655:7656   */\n      0x00\n        /* \"#utility.yul\":7646:7652   */\n      dup4\n        /* \"#utility.yul\":7641:7644   */\n      dup4\n        /* \"#utility.yul\":7637:7653   */\n      add\n        /* \"#utility.yul\":7630:7657   */\n      mstore\n        /* \"#utility.yul\":7525:7664   */\n      pop\n      pop\n      pop\n      jump\t// out\n        /* \"#utility.yul\":7670:7772   */\n    tag_203:\n        /* \"#utility.yul\":7711:7717   */\n      0x00\n        /* \"#utility.yul\":7762:7764   */\n      0x1f\n        /* \"#utility.yul\":7758:7765   */\n      not\n        /* \"#utility.yul\":7753:7755   */\n      0x1f\n        /* \"#utility.yul\":7746:7751   */\n      dup4\n        /* \"#utility.yul\":7742:7756   */\n      add\n        /* \"#utility.yul\":7738:7766   */\n      and\n        /* \"#utility.yul\":7728:7766   */\n      swap1\n      pop\n        /* \"#utility.yul\":7670:7772   */\n      swap2\n      swap1\n      pop\n      jump\t// out\n        /* \"#utility.yul\":7778:8135   */\n    tag_204:\n        /* \"#utility.yul\":7856:7859   */\n      0x00\n        /* \"#utility.yul\":7884:7923   */\n      tag_338\n        /* \"#utility.yul\":7917:7922   */\n      dup3\n        /* \"#utility.yul\":7884:7923   */\n      tag_200\n      jump\t// in\n    tag_338:\n        /* \"#utility.yul\":7939:8000   */\n      tag_339\n        /* \"#utility.yul\":7993:7999   */\n      dup2\n        /* \"#utility.yul\":7988:7991   */\n      dup6\n        /* \"#utility.yul\":7939:8000   */\n      tag_201\n      jump\t// in\n    tag_339:\n        /* \"#utility.yul\":7932:8000   */\n      swap4\n      pop\n        /* \"#utility.yul\":8009:8074   */\n      tag_340\n        /* \"#utility.yul\":8067:8073   */\n      dup2\n        /* \"#utility.yul\":8062:8065   */\n      dup6\n        /* \"#utility.yul\":8055:8059   */\n      0x20\n        /* \"#utility.yul\":8048:8053   */\n      dup7\n        /* \"#utility.yul\":8044:8060   */\n      add\n        /* \"#utility.yul\":8009:8074   */\n      tag_202\n      jump\t// in\n    tag_340:\n        /* \"#utility.yul\":8099:8128   */\n      tag_341\n        /* \"#utility.yul\":8121:8127   */\n      dup2\n        /* \"#utility.yul\":8099:8128   */\n      tag_203\n      jump\t// in\n    tag_341:\n        /* \"#utility.yul\":8094:8097   */\n      dup5\n        /* \"#utility.yul\":8090:8129   */\n      add\n        /* \"#utility.yul\":8083:8129   */\n      swap2\n      pop\n        /* \"#utility.yul\":7860:8135   */\n      pop\n        /* \"#utility.yul\":7778:8135   */\n      swap3\n      swap2\n      pop\n      pop\n      jump\t// out\n        /* \"#utility.yul\":8141:8265   */\n    tag_205:\n        /* \"#utility.yul\":8218:8224   */\n      0x00\n        /* \"#utility.yul\":8252:8257   */\n      dup2\n        /* \"#utility.yul\":8246:8258   */\n      mload\n        /* \"#utility.yul\":8236:8258   */\n      swap1\n      pop\n        /* \"#utility.yul\":8141:8265   */\n      swap2\n      swap1\n      pop\n      jump\t// out\n        /* \"#utility.yul\":8271:8455   */\n    tag_206:\n        /* \"#utility.yul\":8370:8381   */\n      0x00\n        /* \"#utility.yul\":8404:8410   */\n      dup3\n        /* \"#utility.yul\":8399:8402   */\n      dup3\n        /* \"#utility.yul\":8392:8411   */\n      mstore\n        /* \"#utility.yul\":8444:8448   */\n      0x20\n        /* \"#utility.yul\":8439:8442   */\n      dup3\n        /* \"#utility.yul\":8435:8449   */\n      add\n        /* \"#utility.yul\":8420:8449   */\n      swap1\n      pop\n        /* \"#utility.yul\":8271:8455   */\n      swap3\n      swap2\n      pop\n      pop\n      jump\t// out\n        /* \"#utility.yul\":8461:8603   */\n    tag_207:\n        /* \"#utility.yul\":8538:8542   */\n      0x00\n        /* \"#utility.yul\":8561:8564   */\n      dup2\n        /* \"#utility.yul\":8553:8564   */\n      swap1\n      pop\n        /* \"#utility.yul\":8591:8595   */\n      0x20\n        /* \"#utility.yul\":8586:8589   */\n      dup3\n        /* \"#utility.yul\":8582:8596   */\n      add\n        /* \"#utility.yul\":8574:8596   */\n      swap1\n      pop\n        /* \"#utility.yul\":8461:8603   */\n      swap2\n      swap1\n      pop\n      jump\t// out\n        /* \"#utility.yul\":8609:8805   */\n    tag_208:\n        /* \"#utility.yul\":8698:8708   */\n      0x00\n        /* \"#utility.yul\":8733:8799   */\n      tag_346\n        /* \"#utility.yul\":8795:8798   */\n      dup4\n        /* \"#utility.yul\":8787:8793   */\n      dup4\n        /* \"#utility.yul\":8733:8799   */\n      tag_204\n      jump\t// in\n    tag_346:\n        /* \"#utility.yul\":8719:8799   */\n      swap1\n      pop\n        /* \"#utility.yul\":8609:8805   */\n      swap3\n      swap2\n      pop\n      pop\n      jump\t// out\n        /* \"#utility.yul\":8811:8934   */\n    tag_209:\n        /* \"#utility.yul\":8891:8895   */\n      0x00\n        /* \"#utility.yul\":8923:8927   */\n      0x20\n        /* \"#utility.yul\":8918:8921   */\n      dup3\n        /* \"#utility.yul\":8914:8928   */\n      add\n        /* \"#utility.yul\":8906:8928   */\n      swap1\n      pop\n        /* \"#utility.yul\":8811:8934   */\n      swap2\n      swap1\n      pop\n      jump\t// out\n        /* \"#utility.yul\":8968:9939   */\n    tag_210:\n        /* \"#utility.yul\":9097:9100   */\n      0x00\n        /* \"#utility.yul\":9126:9190   */\n      tag_349\n        /* \"#utility.yul\":9184:9189   */\n      dup3\n        /* \"#utility.yul\":9126:9190   */\n      tag_205\n      jump\t// in\n    tag_349:\n        /* \"#utility.yul\":9206:9292   */\n      tag_350\n        /* \"#utility.yul\":9285:9291   */\n      dup2\n        /* \"#utility.yul\":9280:9283   */\n      dup6\n        /* \"#utility.yul\":9206:9292   */\n      tag_206\n      jump\t// in\n    tag_350:\n        /* \"#utility.yul\":9199:9292   */\n      swap4\n      pop\n        /* \"#utility.yul\":9318:9321   */\n      dup4\n        /* \"#utility.yul\":9363:9367   */\n      0x20\n        /* \"#utility.yul\":9355:9361   */\n      dup3\n        /* \"#utility.yul\":9351:9368   */\n      mul\n        /* \"#utility.yul\":9346:9349   */\n      dup6\n        /* \"#utility.yul\":9342:9369   */\n      add\n        /* \"#utility.yul\":9393:9459   */\n      tag_351\n        /* \"#utility.yul\":9453:9458   */\n      dup6\n        /* \"#utility.yul\":9393:9459   */\n      tag_207\n      jump\t// in\n    tag_351:\n        /* \"#utility.yul\":9482:9489   */\n      dup1\n        /* \"#utility.yul\":9513:9514   */\n      0x00\n        /* \"#utility.yul\":9498:9894   */\n    tag_352:\n        /* \"#utility.yul\":9523:9529   */\n      dup6\n        /* \"#utility.yul\":9520:9521   */\n      dup2\n        /* \"#utility.yul\":9517:9530   */\n      lt\n        /* \"#utility.yul\":9498:9894   */\n      iszero\n      tag_354\n      jumpi\n        /* \"#utility.yul\":9594:9603   */\n      dup5\n        /* \"#utility.yul\":9588:9592   */\n      dup5\n        /* \"#utility.yul\":9584:9604   */\n      sub\n        /* \"#utility.yul\":9579:9582   */\n      dup10\n        /* \"#utility.yul\":9572:9605   */\n      mstore\n        /* \"#utility.yul\":9645:9651   */\n      dup2\n        /* \"#utility.yul\":9639:9652   */\n      mload\n        /* \"#utility.yul\":9673:9757   */\n      tag_355\n        /* \"#utility.yul\":9752:9756   */\n      dup6\n        /* \"#utility.yul\":9737:9750   */\n      dup3\n        /* \"#utility.yul\":9673:9757   */\n      tag_208\n      jump\t// in\n    tag_355:\n        /* \"#utility.yul\":9665:9757   */\n      swap5\n      pop\n        /* \"#utility.yul\":9780:9850   */\n      tag_356\n        /* \"#utility.yul\":9843:9849   */\n      dup4\n        /* \"#utility.yul\":9780:9850   */\n      tag_209\n      jump\t// in\n    tag_356:\n        /* \"#utility.yul\":9770:9850   */\n      swap3\n      pop\n        /* \"#utility.yul\":9879:9883   */\n      0x20\n        /* \"#utility.yul\":9874:9877   */\n      dup11\n        /* \"#utility.yul\":9870:9884   */\n      add\n        /* \"#utility.yul\":9863:9884   */\n      swap10\n      pop\n        /* \"#utility.yul\":9558:9894   */\n      pop\n        /* \"#utility.yul\":9545:9546   */\n      0x01\n        /* \"#utility.yul\":9542:9543   */\n      dup2\n        /* \"#utility.yul\":9538:9547   */\n      add\n        /* \"#utility.yul\":9533:9547   */\n      swap1\n      pop\n        /* \"#utility.yul\":9498:9894   */\n      jump(tag_352)\n    tag_354:\n        /* \"#utility.yul\":9502:9516   */\n      pop\n        /* \"#utility.yul\":9910:9914   */\n      dup3\n        /* \"#utility.yul\":9903:9914   */\n      swap8\n      pop\n        /* \"#utility.yul\":9930:9933   */\n      dup8\n        /* \"#utility.yul\":9923:9933   */\n      swap6\n      pop\n        /* \"#utility.yul\":9102:9939   */\n      pop\n      pop\n      pop\n      pop\n      pop\n        /* \"#utility.yul\":8968:9939   */\n      swap3\n      swap2\n      pop\n      pop\n      jump\t// out\n        /* \"#utility.yul\":9945:10053   */\n    tag_211:\n        /* \"#utility.yul\":10022:10046   */\n      tag_358\n        /* \"#utility.yul\":10040:10045   */\n      dup2\n        /* \"#utility.yul\":10022:10046   */\n      tag_188\n      jump\t// in\n    tag_358:\n        /* \"#utility.yul\":10017:10020   */\n      dup3\n        /* \"#utility.yul\":10010:10047   */\n      mstore\n        /* \"#utility.yul\":9945:10053   */\n      pop\n      pop\n      jump\t// out\n        /* \"#utility.yul\":10059:10158   */\n    tag_212:\n        /* \"#utility.yul\":10130:10151   */\n      tag_360\n        /* \"#utility.yul\":10145:10150   */\n      dup2\n        /* \"#utility.yul\":10130:10151   */\n      tag_182\n      jump\t// in\n    tag_360:\n        /* \"#utility.yul\":10125:10128   */\n      dup3\n        /* \"#utility.yul\":10118:10152   */\n      mstore\n        /* \"#utility.yul\":10059:10158   */\n      pop\n      pop\n      jump\t// out\n        /* \"#utility.yul\":10224:11898   */\n    tag_213:\n        /* \"#utility.yul\":10337:10340   */\n      0x00\n        /* \"#utility.yul\":10373:10377   */\n      0xe0\n        /* \"#utility.yul\":10368:10371   */\n      dup4\n        /* \"#utility.yul\":10364:10378   */\n      add\n        /* \"#utility.yul\":10462:10466   */\n      0x00\n        /* \"#utility.yul\":10455:10460   */\n      dup4\n        /* \"#utility.yul\":10451:10467   */\n      add\n        /* \"#utility.yul\":10445:10468   */\n      mload\n        /* \"#utility.yul\":10481:10544   */\n      tag_362\n        /* \"#utility.yul\":10538:10542   */\n      0x00\n        /* \"#utility.yul\":10533:10536   */\n      dup7\n        /* \"#utility.yul\":10529:10543   */\n      add\n        /* \"#utility.yul\":10515:10527   */\n      dup3\n        /* \"#utility.yul\":10481:10544   */\n      tag_199\n      jump\t// in\n    tag_362:\n        /* \"#utility.yul\":10388:10554   */\n      pop\n        /* \"#utility.yul\":10640:10644   */\n      0x20\n        /* \"#utility.yul\":10633:10638   */\n      dup4\n        /* \"#utility.yul\":10629:10645   */\n      add\n        /* \"#utility.yul\":10623:10646   */\n      mload\n        /* \"#utility.yul\":10693:10696   */\n      dup5\n        /* \"#utility.yul\":10687:10691   */\n      dup3\n        /* \"#utility.yul\":10683:10697   */\n      sub\n        /* \"#utility.yul\":10676:10680   */\n      0x20\n        /* \"#utility.yul\":10671:10674   */\n      dup7\n        /* \"#utility.yul\":10667:10681   */\n      add\n        /* \"#utility.yul\":10660:10698   */\n      mstore\n        /* \"#utility.yul\":10719:10792   */\n      tag_363\n        /* \"#utility.yul\":10787:10791   */\n      dup3\n        /* \"#utility.yul\":10773:10785   */\n      dup3\n        /* \"#utility.yul\":10719:10792   */\n      tag_204\n      jump\t// in\n    tag_363:\n        /* \"#utility.yul\":10711:10792   */\n      swap2\n      pop\n        /* \"#utility.yul\":10564:10803   */\n      pop\n        /* \"#utility.yul\":10885:10889   */\n      0x40\n        /* \"#utility.yul\":10878:10883   */\n      dup4\n        /* \"#utility.yul\":10874:10890   */\n      add\n        /* \"#utility.yul\":10868:10891   */\n      mload\n        /* \"#utility.yul\":10938:10941   */\n      dup5\n        /* \"#utility.yul\":10932:10936   */\n      dup3\n        /* \"#utility.yul\":10928:10942   */\n      sub\n        /* \"#utility.yul\":10921:10925   */\n      0x40\n        /* \"#utility.yul\":10916:10919   */\n      dup7\n        /* \"#utility.yul\":10912:10926   */\n      add\n        /* \"#utility.yul\":10905:10943   */\n      mstore\n        /* \"#utility.yul\":10964:11037   */\n      tag_364\n        /* \"#utility.yul\":11032:11036   */\n      dup3\n        /* \"#utility.yul\":11018:11030   */\n      dup3\n        /* \"#utility.yul\":10964:11037   */\n      tag_204\n      jump\t// in\n    tag_364:\n        /* \"#utility.yul\":10956:11037   */\n      swap2\n      pop\n        /* \"#utility.yul\":10813:11048   */\n      pop\n        /* \"#utility.yul\":11130:11134   */\n      0x60\n        /* \"#utility.yul\":11123:11128   */\n      dup4\n        /* \"#utility.yul\":11119:11135   */\n      add\n        /* \"#utility.yul\":11113:11136   */\n      mload\n        /* \"#utility.yul\":11183:11186   */\n      dup5\n        /* \"#utility.yul\":11177:11181   */\n      dup3\n        /* \"#utility.yul\":11173:11187   */\n      sub\n        /* \"#utility.yul\":11166:11170   */\n      0x60\n        /* \"#utility.yul\":11161:11164   */\n      dup7\n        /* \"#utility.yul\":11157:11171   */\n      add\n        /* \"#utility.yul\":11150:11188   */\n      mstore\n        /* \"#utility.yul\":11209:11332   */\n      tag_365\n        /* \"#utility.yul\":11327:11331   */\n      dup3\n        /* \"#utility.yul\":11313:11325   */\n      dup3\n        /* \"#utility.yul\":11209:11332   */\n      tag_210\n      jump\t// in\n    tag_365:\n        /* \"#utility.yul\":11201:11332   */\n      swap2\n      pop\n        /* \"#utility.yul\":11058:11343   */\n      pop\n        /* \"#utility.yul\":11430:11434   */\n      0x80\n        /* \"#utility.yul\":11423:11428   */\n      dup4\n        /* \"#utility.yul\":11419:11435   */\n      add\n        /* \"#utility.yul\":11413:11436   */\n      mload\n        /* \"#utility.yul\":11449:11512   */\n      tag_366\n        /* \"#utility.yul\":11506:11510   */\n      0x80\n        /* \"#utility.yul\":11501:11504   */\n      dup7\n        /* \"#utility.yul\":11497:11511   */\n      add\n        /* \"#utility.yul\":11483:11495   */\n      dup3\n        /* \"#utility.yul\":11449:11512   */\n      tag_211\n      jump\t// in\n    tag_366:\n        /* \"#utility.yul\":11353:11522   */\n      pop\n        /* \"#utility.yul\":11611:11615   */\n      0xa0\n        /* \"#utility.yul\":11604:11609   */\n      dup4\n        /* \"#utility.yul\":11600:11616   */\n      add\n        /* \"#utility.yul\":11594:11617   */\n      mload\n        /* \"#utility.yul\":11630:11687   */\n      tag_367\n        /* \"#utility.yul\":11681:11685   */\n      0xa0\n        /* \"#utility.yul\":11676:11679   */\n      dup7\n        /* \"#utility.yul\":11672:11686   */\n      add\n        /* \"#utility.yul\":11658:11670   */\n      dup3\n        /* \"#utility.yul\":11630:11687   */\n      tag_212\n      jump\t// in\n    tag_367:\n        /* \"#utility.yul\":11532:11697   */\n      pop\n        /* \"#utility.yul\":11785:11789   */\n      0xc0\n        /* \"#utility.yul\":11778:11783   */\n      dup4\n        /* \"#utility.yul\":11774:11790   */\n      add\n        /* \"#utility.yul\":11768:11791   */\n      mload\n        /* \"#utility.yul\":11804:11861   */\n      tag_368\n        /* \"#utility.yul\":11855:11859   */\n      0xc0\n        /* \"#utility.yul\":11850:11853   */\n      dup7\n        /* \"#utility.yul\":11846:11860   */\n      add\n        /* \"#utility.yul\":11832:11844   */\n      dup3\n        /* \"#utility.yul\":11804:11861   */\n      tag_212\n      jump\t// in\n    tag_368:\n        /* \"#utility.yul\":11707:11871   */\n      pop\n        /* \"#utility.yul\":11888:11892   */\n      dup1\n        /* \"#utility.yul\":11881:11892   */\n      swap2\n      pop\n        /* \"#utility.yul\":10342:11898   */\n      pop\n        /* \"#utility.yul\":10224:11898   */\n      swap3\n      swap2\n      pop\n      pop\n      jump\t// out\n        /* \"#utility.yul\":11904:12265   */\n    tag_50:\n        /* \"#utility.yul\":12041:12045   */\n      0x00\n        /* \"#utility.yul\":12079:12081   */\n      0x20\n        /* \"#utility.yul\":12068:12077   */\n      dup3\n        /* \"#utility.yul\":12064:12082   */\n      add\n        /* \"#utility.yul\":12056:12082   */\n      swap1\n      pop\n        /* \"#utility.yul\":12128:12137   */\n      dup2\n        /* \"#utility.yul\":12122:12126   */\n      dup2\n        /* \"#utility.yul\":12118:12138   */\n      sub\n        /* \"#utility.yul\":12114:12115   */\n      0x00\n        /* \"#utility.yul\":12103:12112   */\n      dup4\n        /* \"#utility.yul\":12099:12116   */\n      add\n        /* \"#utility.yul\":12092:12139   */\n      mstore\n        /* \"#utility.yul\":12156:12258   */\n      tag_370\n        /* \"#utility.yul\":12253:12257   */\n      dup2\n        /* \"#utility.yul\":12244:12250   */\n      dup5\n        /* \"#utility.yul\":12156:12258   */\n      tag_213\n      jump\t// in\n    tag_370:\n        /* \"#utility.yul\":12148:12258   */\n      swap1\n      pop\n        /* \"#utility.yul\":11904:12265   */\n      swap3\n      swap2\n      pop\n      pop\n      jump\t// out\n        /* \"#utility.yul\":12271:12393   */\n    tag_214:\n        /* \"#utility.yul\":12344:12368   */\n      tag_372\n        /* \"#utility.yul\":12362:12367   */\n      dup2\n        /* \"#utility.yul\":12344:12368   */\n      tag_188\n      jump\t// in\n    tag_372:\n        /* \"#utility.yul\":12337:12342   */\n      dup2\n        /* \"#utility.yul\":12334:12369   */\n      eq\n        /* \"#utility.yul\":12324:12387   */\n      tag_373\n      jumpi\n        /* \"#utility.yul\":12383:12384   */\n      0x00\n        /* \"#utility.yul\":12380:12381   */\n      0x00\n        /* \"#utility.yul\":12373:12385   */\n      revert\n        /* \"#utility.yul\":12324:12387   */\n    tag_373:\n        /* \"#utility.yul\":12271:12393   */\n      pop\n      jump\t// out\n        /* \"#utility.yul\":12399:12538   */\n    tag_215:\n        /* \"#utility.yul\":12445:12450   */\n      0x00\n        /* \"#utility.yul\":12483:12489   */\n      dup2\n        /* \"#utility.yul\":12470:12490   */\n      calldataload\n        /* \"#utility.yul\":12461:12490   */\n      swap1\n      pop\n        /* \"#utility.yul\":12499:12532   */\n      tag_375\n        /* \"#utility.yul\":12526:12531   */\n      dup2\n        /* \"#utility.yul\":12499:12532   */\n      tag_214\n      jump\t// in\n    tag_375:\n        /* \"#utility.yul\":12399:12538   */\n      swap3\n      swap2\n      pop\n      pop\n      jump\t// out\n        /* \"#utility.yul\":12544:12873   */\n    tag_63:\n        /* \"#utility.yul\":12603:12609   */\n      0x00\n        /* \"#utility.yul\":12652:12654   */\n      0x20\n        /* \"#utility.yul\":12640:12649   */\n      dup3\n        /* \"#utility.yul\":12631:12638   */\n      dup5\n        /* \"#utility.yul\":12627:12650   */\n      sub\n        /* \"#utility.yul\":12623:12655   */\n      slt\n        /* \"#utility.yul\":12620:12739   */\n      iszero\n      tag_377\n      jumpi\n        /* \"#utility.yul\":12658:12737   */\n      tag_378\n      tag_177\n      jump\t// in\n    tag_378:\n        /* \"#utility.yul\":12620:12739   */\n    tag_377:\n        /* \"#utility.yul\":12778:12779   */\n      0x00\n        /* \"#utility.yul\":12803:12856   */\n      tag_379\n        /* \"#utility.yul\":12848:12855   */\n      dup5\n        /* \"#utility.yul\":12839:12845   */\n      dup3\n        /* \"#utility.yul\":12828:12837   */\n      dup6\n        /* \"#utility.yul\":12824:12846   */\n      add\n        /* \"#utility.yul\":12803:12856   */\n      tag_215\n      jump\t// in\n    tag_379:\n        /* \"#utility.yul\":12793:12856   */\n      swap2\n      pop\n        /* \"#utility.yul\":12749:12866   */\n      pop\n        /* \"#utility.yul\":12544:12873   */\n      swap3\n      swap2\n      pop\n      pop\n      jump\t// out\n        /* \"#utility.yul\":12879:12939   */\n    tag_216:\n        /* \"#utility.yul\":12907:12910   */\n      0x00\n        /* \"#utility.yul\":12928:12933   */\n      dup2\n        /* \"#utility.yul\":12921:12933   */\n      swap1\n      pop\n        /* \"#utility.yul\":12879:12939   */\n      swap2\n      swap1\n      pop\n      jump\t// out\n        /* \"#utility.yul\":12945:13087   */\n    tag_217:\n        /* \"#utility.yul\":12995:13004   */\n      0x00\n        /* \"#utility.yul\":13028:13081   */\n      tag_382\n        /* \"#utility.yul\":13046:13080   */\n      tag_383\n        /* \"#utility.yul\":13055:13079   */\n      tag_384\n        /* \"#utility.yul\":13073:13078   */\n      dup5\n        /* \"#utility.yul\":13055:13079   */\n      tag_190\n      jump\t// in\n    tag_384:\n        /* \"#utility.yul\":13046:13080   */\n      tag_216\n      jump\t// in\n    tag_383:\n        /* \"#utility.yul\":13028:13081   */\n      tag_190\n      jump\t// in\n    tag_382:\n        /* \"#utility.yul\":13015:13081   */\n      swap1\n      pop\n        /* \"#utility.yul\":12945:13087   */\n      swap2\n      swap1\n      pop\n      jump\t// out\n        /* \"#utility.yul\":13093:13219   */\n    tag_218:\n        /* \"#utility.yul\":13143:13152   */\n      0x00\n        /* \"#utility.yul\":13176:13213   */\n      tag_386\n        /* \"#utility.yul\":13207:13212   */\n      dup3\n        /* \"#utility.yul\":13176:13213   */\n      tag_217\n      jump\t// in\n    tag_386:\n        /* \"#utility.yul\":13163:13213   */\n      swap1\n      pop\n        /* \"#utility.yul\":13093:13219   */\n      swap2\n      swap1\n      pop\n      jump\t// out\n        /* \"#utility.yul\":13225:13365   */\n    tag_219:\n        /* \"#utility.yul\":13289:13298   */\n      0x00\n        /* \"#utility.yul\":13322:13359   */\n      tag_388\n        /* \"#utility.yul\":13353:13358   */\n      dup3\n        /* \"#utility.yul\":13322:13359   */\n      tag_218\n      jump\t// in\n    tag_388:\n        /* \"#utility.yul\":13309:13359   */\n      swap1\n      pop\n        /* \"#utility.yul\":13225:13365   */\n      swap2\n      swap1\n      pop\n      jump\t// out\n        /* \"#utility.yul\":13371:13530   */\n    tag_220:\n        /* \"#utility.yul\":13472:13523   */\n      tag_390\n        /* \"#utility.yul\":13517:13522   */\n      dup2\n        /* \"#utility.yul\":13472:13523   */\n      tag_219\n      jump\t// in\n    tag_390:\n        /* \"#utility.yul\":13467:13470   */\n      dup3\n        /* \"#utility.yul\":13460:13524   */\n      mstore\n        /* \"#utility.yul\":13371:13530   */\n      pop\n      pop\n      jump\t// out\n        /* \"#utility.yul\":13536:13786   */\n    tag_71:\n        /* \"#utility.yul\":13643:13647   */\n      0x00\n        /* \"#utility.yul\":13681:13683   */\n      0x20\n        /* \"#utility.yul\":13670:13679   */\n      dup3\n        /* \"#utility.yul\":13666:13684   */\n      add\n        /* \"#utility.yul\":13658:13684   */\n      swap1\n      pop\n        /* \"#utility.yul\":13694:13779   */\n      tag_392\n        /* \"#utility.yul\":13776:13777   */\n      0x00\n        /* \"#utility.yul\":13765:13774   */\n      dup4\n        /* \"#utility.yul\":13761:13778   */\n      add\n        /* \"#utility.yul\":13752:13758   */\n      dup5\n        /* \"#utility.yul\":13694:13779   */\n      tag_220\n      jump\t// in\n    tag_392:\n        /* \"#utility.yul\":13536:13786   */\n      swap3\n      swap2\n      pop\n      pop\n      jump\t// out\n        /* \"#utility.yul\":13792:13889   */\n    tag_221:\n        /* \"#utility.yul\":13851:13857   */\n      0x00\n        /* \"#utility.yul\":13879:13882   */\n      dup3\n        /* \"#utility.yul\":13869:13882   */\n      swap1\n      pop\n        /* \"#utility.yul\":13792:13889   */\n      swap3\n      swap2\n      pop\n      pop\n      jump\t// out\n        /* \"#utility.yul\":13895:14075   */\n    tag_222:\n        /* \"#utility.yul\":13943:14020   */\n      0x4e487b7100000000000000000000000000000000000000000000000000000000\n        /* \"#utility.yul\":13940:13941   */\n      0x00\n        /* \"#utility.yul\":13933:14021   */\n      mstore\n        /* \"#utility.yul\":14040:14044   */\n      0x41\n        /* \"#utility.yul\":14037:14038   */\n      0x04\n        /* \"#utility.yul\":14030:14045   */\n      mstore\n        /* \"#utility.yul\":14064:14068   */\n      0x24\n        /* \"#utility.yul\":14061:14062   */\n      0x00\n        /* \"#utility.yul\":14054:14069   */\n      revert\n        /* \"#utility.yul\":14081:14261   */\n    tag_223:\n        /* \"#utility.yul\":14129:14206   */\n      0x4e487b7100000000000000000000000000000000000000000000000000000000\n        /* \"#utility.yul\":14126:14127   */\n      0x00\n        /* \"#utility.yul\":14119:14207   */\n      mstore\n        /* \"#utility.yul\":14226:14230   */\n      0x22\n        /* \"#utility.yul\":14223:14224   */\n      0x04\n        /* \"#utility.yul\":14216:14231   */\n      mstore\n        /* \"#utility.yul\":14250:14254   */\n      0x24\n        /* \"#utility.yul\":14247:14248   */\n      0x00\n        /* \"#utility.yul\":14240:14255   */\n      revert\n        /* \"#utility.yul\":14267:14587   */\n    tag_123:\n        /* \"#utility.yul\":14311:14317   */\n      0x00\n        /* \"#utility.yul\":14348:14349   */\n      0x02\n        /* \"#utility.yul\":14342:14346   */\n      dup3\n        /* \"#utility.yul\":14338:14350   */\n      div\n        /* \"#utility.yul\":14328:14350   */\n      swap1\n      pop\n        /* \"#utility.yul\":14395:14396   */\n      0x01\n        /* \"#utility.yul\":14389:14393   */\n      dup3\n        /* \"#utility.yul\":14385:14397   */\n      and\n        /* \"#utility.yul\":14416:14434   */\n      dup1\n        /* \"#utility.yul\":14406:14487   */\n      tag_397\n      jumpi\n        /* \"#utility.yul\":14472:14476   */\n      0x7f\n        /* \"#utility.yul\":14464:14470   */\n      dup3\n        /* \"#utility.yul\":14460:14477   */\n      and\n        /* \"#utility.yul\":14450:14477   */\n      swap2\n      pop\n        /* \"#utility.yul\":14406:14487   */\n    tag_397:\n        /* \"#utility.yul\":14534:14536   */\n      0x20\n        /* \"#utility.yul\":14526:14532   */\n      dup3\n        /* \"#utility.yul\":14523:14537   */\n      lt\n        /* \"#utility.yul\":14503:14521   */\n      dup2\n        /* \"#utility.yul\":14500:14538   */\n      sub\n        /* \"#utility.yul\":14497:14581   */\n      tag_398\n      jumpi\n        /* \"#utility.yul\":14553:14571   */\n      tag_399\n      tag_223\n      jump\t// in\n    tag_399:\n        /* \"#utility.yul\":14497:14581   */\n    tag_398:\n        /* \"#utility.yul\":14318:14587   */\n      pop\n        /* \"#utility.yul\":14267:14587   */\n      swap2\n      swap1\n      pop\n      jump\t// out\n        /* \"#utility.yul\":14593:14734   */\n    tag_224:\n        /* \"#utility.yul\":14642:14646   */\n      0x00\n        /* \"#utility.yul\":14665:14668   */\n      dup2\n        /* \"#utility.yul\":14657:14668   */\n      swap1\n      pop\n        /* \"#utility.yul\":14688:14691   */\n      dup2\n        /* \"#utility.yul\":14685:14686   */\n      0x00\n        /* \"#utility.yul\":14678:14692   */\n      mstore\n        /* \"#utility.yul\":14722:14726   */\n      0x20\n        /* \"#utility.yul\":14719:14720   */\n      0x00\n        /* \"#utility.yul\":14709:14727   */\n      keccak256\n        /* \"#utility.yul\":14701:14727   */\n      swap1\n      pop\n        /* \"#utility.yul\":14593:14734   */\n      swap2\n      swap1\n      pop\n      jump\t// out\n        /* \"#utility.yul\":14740:14833   */\n    tag_225:\n        /* \"#utility.yul\":14777:14783   */\n      0x00\n        /* \"#utility.yul\":14824:14826   */\n      0x20\n        /* \"#utility.yul\":14819:14821   */\n      0x1f\n        /* \"#utility.yul\":14812:14817   */\n      dup4\n        /* \"#utility.yul\":14808:14822   */\n      add\n        /* \"#utility.yul\":14804:14827   */\n      div\n        /* \"#utility.yul\":14794:14827   */\n      swap1\n      pop\n        /* \"#utility.yul\":14740:14833   */\n      swap2\n      swap1\n      pop\n      jump\t// out\n        /* \"#utility.yul\":14839:14946   */\n    tag_226:\n        /* \"#utility.yul\":14883:14891   */\n      0x00\n        /* \"#utility.yul\":14933:14938   */\n      dup3\n        /* \"#utility.yul\":14927:14931   */\n      dup3\n        /* \"#utility.yul\":14923:14939   */\n      shl\n        /* \"#utility.yul\":14902:14939   */\n      swap1\n      pop\n        /* \"#utility.yul\":14839:14946   */\n      swap3\n      swap2\n      pop\n      pop\n      jump\t// out\n        /* \"#utility.yul\":14952:15345   */\n    tag_227:\n        /* \"#utility.yul\":15021:15027   */\n      0x00\n        /* \"#utility.yul\":15071:15072   */\n      0x08\n        /* \"#utility.yul\":15059:15069   */\n      dup4\n        /* \"#utility.yul\":15055:15073   */\n      mul\n        /* \"#utility.yul\":15094:15191   */\n      tag_404\n        /* \"#utility.yul\":15124:15190   */\n      0xffffffffffffffffffffffffffffffffffffffffffffffffffffffffffffffff\n        /* \"#utility.yul\":15113:15122   */\n      dup3\n        /* \"#utility.yul\":15094:15191   */\n      tag_226\n      jump\t// in\n    tag_404:\n        /* \"#utility.yul\":15212:15251   */\n      tag_405\n        /* \"#utility.yul\":15242:15250   */\n      dup7\n        /* \"#utility.yul\":15231:15240   */\n      dup4\n        /* \"#utility.yul\":15212:15251   */\n      tag_226\n      jump\t// in\n    tag_405:\n        /* \"#utility.yul\":15200:15251   */\n      swap6\n      pop\n        /* \"#utility.yul\":15284:15288   */\n      dup1\n        /* \"#utility.yul\":15280:15289   */\n      not\n        /* \"#utility.yul\":15273:15278   */\n      dup5\n        /* \"#utility.yul\":15269:15290   */\n      and\n        /* \"#utility.yul\":15260:15290   */\n      swap4\n      pop\n        /* \"#utility.yul\":15333:15337   */\n      dup1\n        /* \"#utility.yul\":15323:15331   */\n      dup7\n        /* \"#utility.yul\":15319:15338   */\n      and\n        /* \"#utility.yul\":15312:15317   */\n      dup5\n        /* \"#utility.yul\":15309:15339   */\n      or\n        /* \"#utility.yul\":15299:15339   */\n      swap3\n      pop\n        /* \"#utility.yul\":15028:15345   */\n      pop\n      pop\n        /* \"#utility.yul\":14952:15345   */\n      swap4\n      swap3\n      pop\n      pop\n      pop\n      jump\t// out\n        /* \"#utility.yul\":15351:15493   */\n    tag_228:\n        /* \"#utility.yul\":15401:15410   */\n      0x00\n        /* \"#utility.yul\":15434:15487   */\n      tag_407\n        /* \"#utility.yul\":15452:15486   */\n      tag_408\n        /* \"#utility.yul\":15461:15485   */\n      tag_409\n        /* \"#utility.yul\":15479:15484   */\n      dup5\n        /* \"#utility.yul\":15461:15485   */\n      tag_188\n      jump\t// in\n    tag_409:\n        /* \"#utility.yul\":15452:15486   */\n      tag_216\n      jump\t// in\n    tag_408:\n        /* \"#utility.yul\":15434:15487   */\n      tag_188\n      jump\t// in\n    tag_407:\n        /* \"#utility.yul\":15421:15487   */\n      swap1\n      pop\n        /* \"#utility.yul\":15351:15493   */\n      swap2\n      swap1\n      pop\n      jump\t// out\n        /* \"#utility.yul\":15499:15574   */\n    tag_229:\n        /* \"#utility.yul\":15542:15545   */\n      0x00\n        /* \"#utility.yul\":15563:15568   */\n      dup2\n        /* \"#utility.yul\":15556:15568   */\n      swap1\n      pop\n        /* \"#utility.yul\":15499:15574   */\n      swap2\n      swap1\n      pop\n      jump\t// out\n        /* \"#utility.yul\":15580:15849   */\n    tag_230:\n        /* \"#utility.yul\":15690:15729   */\n      tag_412\n        /* \"#utility.yul\":15721:15728   */\n      dup4\n        /* \"#utility.yul\":15690:15729   */\n      tag_228\n      jump\t// in\n    tag_412:\n        /* \"#utility.yul\":15751:15842   */\n      tag_413\n        /* \"#utility.yul\":15800:15841   */\n      tag_414\n        /* \"#utility.yul\":15824:15840   */\n      dup3\n        /* \"#utility.yul\":15800:15841   */\n      tag_229\n      jump\t// in\n    tag_414:\n        /* \"#utility.yul\":15792:15798   */\n      dup5\n        /* \"#utility.yul\":15785:15789   */\n      dup5\n        /* \"#utility.yul\":15779:15790   */\n      sload\n        /* \"#utility.yul\":15751:15842   */\n      tag_227\n      jump\t// in\n    tag_413:\n        /* \"#utility.yul\":15745:15749   */\n      dup3\n        /* \"#utility.yul\":15738:15843   */\n      sstore\n        /* \"#utility.yul\":15656:15849   */\n      pop\n        /* \"#utility.yul\":15580:15849   */\n      pop\n      pop\n      pop\n      jump\t// out\n        /* \"#utility.yul\":15855:15928   */\n    tag_231:\n        /* \"#utility.yul\":15900:15903   */\n      0x00\n        /* \"#utility.yul\":15921:15922   */\n      0x00\n        /* \"#utility.yul\":15914:15922   */\n      swap1\n      pop\n        /* \"#utility.yul\":15855:15928   */\n      swap1\n      jump\t// out\n        /* \"#utility.yul\":15934:16123   */\n    tag_232:\n        /* \"#utility.yul\":16011:16043   */\n      tag_417\n      tag_231\n      jump\t// in\n    tag_417:\n        /* \"#utility.yul\":16052:16117   */\n      tag_418\n        /* \"#utility.yul\":16110:16116   */\n      dup2\n        /* \"#utility.yul\":16102:16108   */\n      dup5\n        /* \"#utility.yul\":16096:16100   */\n      dup5\n        /* \"#utility.yul\":16052:16117   */\n      tag_230\n      jump\t// in\n    tag_418:\n        /* \"#utility.yul\":15987:16123   */\n      pop\n        /* \"#utility.yul\":15934:16123   */\n      pop\n      pop\n      jump\t// out\n        /* \"#utility.yul\":16129:16315   */\n    tag_233:\n        /* \"#utility.yul\":16189:16309   */\n    tag_420:\n        /* \"#utility.yul\":16206:16209   */\n      dup2\n        /* \"#utility.yul\":16199:16204   */\n      dup2\n        /* \"#utility.yul\":16196:16210   */\n      lt\n        /* \"#utility.yul\":16189:16309   */\n      iszero\n      tag_422\n      jumpi\n        /* \"#utility.yul\":16260:16299   */\n      tag_423\n        /* \"#utility.yul\":16297:16298   */\n      0x00\n        /* \"#utility.yul\":16290:16295   */\n      dup3\n        /* \"#utility.yul\":16260:16299   */\n      tag_232\n      jump\t// in\n    tag_423:\n        /* \"#utility.yul\":16233:16234   */\n      0x01\n        /* \"#utility.yul\":16226:16231   */\n      dup2\n        /* \"#utility.yul\":16222:16235   */\n      add\n        /* \"#utility.yul\":16213:16235   */\n      swap1\n      pop\n        /* \"#utility.yul\":16189:16309   */\n      jump(tag_420)\n    tag_422:\n        /* \"#utility.yul\":16129:16315   */\n      pop\n      pop\n      jump\t// out\n        /* \"#utility.yul\":16321:16864   */\n    tag_234:\n        /* \"#utility.yul\":16422:16424   */\n      0x1f\n        /* \"#utility.yul\":16417:16420   */\n      dup3\n        /* \"#utility.yul\":16414:16425   */\n      gt\n        /* \"#utility.yul\":16411:16857   */\n      iszero\n      tag_425\n      jumpi\n        /* \"#utility.yul\":16456:16494   */\n      tag_426\n        /* \"#utility.yul\":16488:16493   */\n      dup2\n        /* \"#utility.yul\":16456:16494   */\n      tag_224\n      jump\t// in\n    tag_426:\n        /* \"#utility.yul\":16540:16569   */\n      tag_427\n        /* \"#utility.yul\":16558:16568   */\n      dup5\n        /* \"#utility.yul\":16540:16569   */\n      tag_225\n      jump\t// in\n    tag_427:\n        /* \"#utility.yul\":16530:16538   */\n      dup2\n        /* \"#utility.yul\":16526:16570   */\n      add\n        /* \"#utility.yul\":16723:16725   */\n      0x20\n        /* \"#utility.yul\":16711:16721   */\n      dup6\n        /* \"#utility.yul\":16708:16726   */\n      lt\n        /* \"#utility.yul\":16705:16754   */\n      iszero\n      tag_428\n      jumpi\n        /* \"#utility.yul\":16744:16752   */\n      dup2\n        /* \"#utility.yul\":16729:16752   */\n      swap1\n      pop\n        /* \"#utility.yul\":16705:16754   */\n    tag_428:\n        /* \"#utility.yul\":16767:16847   */\n      tag_429\n        /* \"#utility.yul\":16823:16845   */\n      tag_430\n        /* \"#utility.yul\":16841:16844   */\n      dup6\n        /* \"#utility.yul\":16823:16845   */\n      tag_225\n      jump\t// in\n    tag_430:\n        /* \"#utility.yul\":16813:16821   */\n      dup4\n        /* \"#utility.yul\":16809:16846   */\n      add\n        /* \"#utility.yul\":16796:16807   */\n      dup3\n        /* \"#utility.yul\":16767:16847   */\n      tag_233\n      jump\t// in\n    tag_429:\n        /* \"#utility.yul\":16426:16857   */\n      pop\n      pop\n        /* \"#utility.yul\":16411:16857   */\n    tag_425:\n        /* \"#utility.yul\":16321:16864   */\n      pop\n      pop\n      pop\n      jump\t// out\n        /* \"#utility.yul\":16870:16987   */\n    tag_235:\n        /* \"#utility.yul\":16924:16932   */\n      0x00\n        /* \"#utility.yul\":16974:16979   */\n      dup3\n        /* \"#utility.yul\":16968:16972   */\n      dup3\n        /* \"#utility.yul\":16964:16980   */\n      shr\n        /* \"#utility.yul\":16943:16980   */\n      swap1\n      pop\n        /* \"#utility.yul\":16870:16987   */\n      swap3\n      swap2\n      pop\n      pop\n      jump\t// out\n        /* \"#utility.yul\":16993:17162   */\n    tag_236:\n        /* \"#utility.yul\":17037:17043   */\n      0x00\n        /* \"#utility.yul\":17070:17121   */\n      tag_433\n        /* \"#utility.yul\":17118:17119   */\n      0x00\n        /* \"#utility.yul\":17114:17120   */\n      not\n        /* \"#utility.yul\":17106:17111   */\n      dup5\n        /* \"#utility.yul\":17103:17104   */\n      0x08\n        /* \"#utility.yul\":17099:17112   */\n      mul\n        /* \"#utility.yul\":17070:17121   */\n      tag_235\n      jump\t// in\n    tag_433:\n        /* \"#utility.yul\":17066:17122   */\n      not\n        /* \"#utility.yul\":17151:17155   */\n      dup1\n        /* \"#utility.yul\":17145:17149   */\n      dup4\n        /* \"#utility.yul\":17141:17156   */\n      and\n        /* \"#utility.yul\":17131:17156   */\n      swap2\n      pop\n        /* \"#utility.yul\":17044:17162   */\n      pop\n        /* \"#utility.yul\":16993:17162   */\n      swap3\n      swap2\n      pop\n      pop\n      jump\t// out\n        /* \"#utility.yul\":17167:17462   */\n    tag_237:\n        /* \"#utility.yul\":17243:17247   */\n      0x00\n        /* \"#utility.yul\":17389:17418   */\n      tag_435\n        /* \"#utility.yul\":17414:17417   */\n      dup4\n        /* \"#utility.yul\":17408:17412   */\n      dup4\n        /* \"#utility.yul\":17389:17418   */\n      tag_236\n      jump\t// in\n    tag_435:\n        /* \"#utility.yul\":17381:17418   */\n      swap2\n      pop\n        /* \"#utility.yul\":17451:17454   */\n      dup3\n        /* \"#utility.yul\":17448:17449   */\n      0x02\n        /* \"#utility.yul\":17444:17455   */\n      mul\n        /* \"#utility.yul\":17438:17442   */\n      dup3\n        /* \"#utility.yul\":17435:17456   */\n      or\n        /* \"#utility.yul\":17427:17456   */\n      swap1\n      pop\n        /* \"#utility.yul\":17167:17462   */\n      swap3\n      swap2\n      pop\n      pop\n      jump\t// out\n        /* \"#utility.yul\":17467:18870   */\n    tag_96:\n        /* \"#utility.yul\":17591:17635   */\n      tag_437\n        /* \"#utility.yul\":17631:17634   */\n      dup4\n        /* \"#utility.yul\":17626:17629   */\n      dup4\n        /* \"#utility.yul\":17591:17635   */\n      tag_221\n      jump\t// in\n    tag_437:\n        /* \"#utility.yul\":17700:17718   */\n      0xffffffffffffffff\n        /* \"#utility.yul\":17692:17698   */\n      dup2\n        /* \"#utility.yul\":17689:17719   */\n      gt\n        /* \"#utility.yul\":17686:17742   */\n      iszero\n      tag_438\n      jumpi\n        /* \"#utility.yul\":17722:17740   */\n      tag_439\n      tag_222\n      jump\t// in\n    tag_439:\n        /* \"#utility.yul\":17686:17742   */\n    tag_438:\n        /* \"#utility.yul\":17766:17804   */\n      tag_440\n        /* \"#utility.yul\":17798:17802   */\n      dup3\n        /* \"#utility.yul\":17792:17803   */\n      sload\n        /* \"#utility.yul\":17766:17804   */\n      tag_123\n      jump\t// in\n    tag_440:\n        /* \"#utility.yul\":17851:17918   */\n      tag_441\n        /* \"#utility.yul\":17911:17917   */\n      dup3\n        /* \"#utility.yul\":17903:17909   */\n      dup3\n        /* \"#utility.yul\":17897:17901   */\n      dup6\n        /* \"#utility.yul\":17851:17918   */\n      tag_234\n      jump\t// in\n    tag_441:\n        /* \"#utility.yul\":17945:17946   */\n      0x00\n        /* \"#utility.yul\":17974:17976   */\n      0x1f\n        /* \"#utility.yul\":17966:17972   */\n      dup4\n        /* \"#utility.yul\":17963:17977   */\n      gt\n        /* \"#utility.yul\":17991:17992   */\n      0x01\n        /* \"#utility.yul\":17986:18618   */\n      dup2\n      eq\n      tag_443\n      jumpi\n        /* \"#utility.yul\":18662:18663   */\n      0x00\n        /* \"#utility.yul\":18679:18685   */\n      dup5\n        /* \"#utility.yul\":18676:18760   */\n      iszero\n      tag_444\n      jumpi\n        /* \"#utility.yul\":18735:18744   */\n      dup3\n        /* \"#utility.yul\":18730:18733   */\n      dup8\n        /* \"#utility.yul\":18726:18745   */\n      add\n        /* \"#utility.yul\":18713:18746   */\n      calldataload\n        /* \"#utility.yul\":18704:18746   */\n      swap1\n      pop\n        /* \"#utility.yul\":18676:18760   */\n    tag_444:\n        /* \"#utility.yul\":18786:18853   */\n      tag_445\n        /* \"#utility.yul\":18846:18852   */\n      dup6\n        /* \"#utility.yul\":18839:18844   */\n      dup3\n        /* \"#utility.yul\":18786:18853   */\n      tag_237\n      jump\t// in\n    tag_445:\n        /* \"#utility.yul\":18780:18784   */\n      dup7\n        /* \"#utility.yul\":18773:18854   */\n      sstore\n        /* \"#utility.yul\":18635:18864   */\n      pop\n        /* \"#utility.yul\":17956:18864   */\n      jump(tag_442)\n        /* \"#utility.yul\":17986:18618   */\n    tag_443:\n        /* \"#utility.yul\":18038:18042   */\n      0x1f\n        /* \"#utility.yul\":18034:18043   */\n      not\n        /* \"#utility.yul\":18026:18032   */\n      dup5\n        /* \"#utility.yul\":18022:18044   */\n      and\n        /* \"#utility.yul\":18072:18109   */\n      tag_446\n        /* \"#utility.yul\":18104:18108   */\n      dup7\n        /* \"#utility.yul\":18072:18109   */\n      tag_224\n      jump\t// in\n    tag_446:\n        /* \"#utility.yul\":18131:18132   */\n      0x00\n        /* \"#utility.yul\":18145:18360   */\n    tag_447:\n        /* \"#utility.yul\":18159:18166   */\n      dup3\n        /* \"#utility.yul\":18156:18157   */\n      dup2\n        /* \"#utility.yul\":18153:18167   */\n      lt\n        /* \"#utility.yul\":18145:18360   */\n      iszero\n      tag_449\n      jumpi\n        /* \"#utility.yul\":18245:18254   */\n      dup5\n        /* \"#utility.yul\":18240:18243   */\n      dup10\n        /* \"#utility.yul\":18236:18255   */\n      add\n        /* \"#utility.yul\":18223:18256   */\n      calldataload\n        /* \"#utility.yul\":18215:18221   */\n      dup3\n        /* \"#utility.yul\":18208:18257   */\n      sstore\n        /* \"#utility.yul\":18296:18297   */\n      0x01\n        /* \"#utility.yul\":18288:18294   */\n      dup3\n        /* \"#utility.yul\":18284:18298   */\n      add\n        /* \"#utility.yul\":18274:18298   */\n      swap2\n      pop\n        /* \"#utility.yul\":18343:18345   */\n      0x20\n        /* \"#utility.yul\":18332:18341   */\n      dup6\n        /* \"#utility.yul\":18328:18346   */\n      add\n        /* \"#utility.yul\":18315:18346   */\n      swap5\n      pop\n        /* \"#utility.yul\":18182:18186   */\n      0x20\n        /* \"#utility.yul\":18179:18180   */\n      dup2\n        /* \"#utility.yul\":18175:18187   */\n      add\n        /* \"#utility.yul\":18170:18187   */\n      swap1\n      pop\n        /* \"#utility.yul\":18145:18360   */\n      jump(tag_447)\n    tag_449:\n        /* \"#utility.yul\":18388:18394   */\n      dup7\n        /* \"#utility.yul\":18379:18386   */\n      dup4\n        /* \"#utility.yul\":18376:18395   */\n      lt\n        /* \"#utility.yul\":18373:18559   */\n      iszero\n      tag_450\n      jumpi\n        /* \"#utility.yul\":18453:18462   */\n      dup5\n        /* \"#utility.yul\":18448:18451   */\n      dup10\n        /* \"#utility.yul\":18444:18463   */\n      add\n        /* \"#utility.yul\":18431:18464   */\n      calldataload\n        /* \"#utility.yul\":18496:18544   */\n      tag_451\n        /* \"#utility.yul\":18538:18542   */\n      0x1f\n        /* \"#utility.yul\":18530:18536   */\n      dup10\n        /* \"#utility.yul\":18526:18543   */\n      and\n        /* \"#utility.yul\":18515:18524   */\n      dup3\n        /* \"#utility.yul\":18496:18544   */\n      tag_236\n      jump\t// in\n    tag_451:\n        /* \"#utility.yul\":18488:18494   */\n      dup4\n        /* \"#utility.yul\":18481:18545   */\n      sstore\n        /* \"#utility.yul\":18396:18559   */\n      pop\n        /* \"#utility.yul\":18373:18559   */\n    tag_450:\n        /* \"#utility.yul\":18605:18606   */\n      0x01\n        /* \"#utility.yul\":18601:18602   */\n      0x02\n        /* \"#utility.yul\":18593:18599   */\n      dup9\n        /* \"#utility.yul\":18589:18603   */\n      mul\n        /* \"#utility.yul\":18585:18607   */\n      add\n        /* \"#utility.yul\":18579:18583   */\n      dup9\n        /* \"#utility.yul\":18572:18608   */\n      sstore\n        /* \"#utility.yul\":17993:18618   */\n      pop\n      pop\n      pop\n        /* \"#utility.yul\":17956:18864   */\n    tag_442:\n      pop\n        /* \"#utility.yul\":17566:18870   */\n      pop\n      pop\n      pop\n        /* \"#utility.yul\":17467:18870   */\n      pop\n      pop\n      pop\n      jump\t// out\n        /* \"#utility.yul\":18876:19056   */\n    tag_103:\n        /* \"#utility.yul\":18924:19001   */\n      0x4e487b7100000000000000000000000000000000000000000000000000000000\n        /* \"#utility.yul\":18921:18922   */\n      0x00\n        /* \"#utility.yul\":18914:19002   */\n      mstore\n        /* \"#utility.yul\":19021:19025   */\n      0x32\n        /* \"#utility.yul\":19018:19019   */\n      0x04\n        /* \"#utility.yul\":19011:19026   */\n      mstore\n        /* \"#utility.yul\":19045:19049   */\n      0x24\n        /* \"#utility.yul\":19042:19043   */\n      0x00\n        /* \"#utility.yul\":19035:19050   */\n      revert\n        /* \"#utility.yul\":19062:19179   */\n    tag_238:\n        /* \"#utility.yul\":19171:19172   */\n      0x00\n        /* \"#utility.yul\":19168:19169   */\n      0x00\n        /* \"#utility.yul\":19161:19173   */\n      revert\n        /* \"#utility.yul\":19185:19302   */\n    tag_239:\n        /* \"#utility.yul\":19294:19295   */\n      0x00\n        /* \"#utility.yul\":19291:19292   */\n      0x00\n        /* \"#utility.yul\":19284:19296   */\n      revert\n        /* \"#utility.yul\":19308:19425   */\n    tag_240:\n        /* \"#utility.yul\":19417:19418   */\n      0x00\n        /* \"#utility.yul\":19414:19415   */\n      0x00\n        /* \"#utility.yul\":19407:19419   */\n      revert\n        /* \"#utility.yul\":19431:20156   */\n    tag_105:\n        /* \"#utility.yul\":19509:19513   */\n      0x00\n        /* \"#utility.yul\":19515:19521   */\n      0x00\n        /* \"#utility.yul\":19571:19582   */\n      dup4\n        /* \"#utility.yul\":19558:19583   */\n      calldataload\n        /* \"#utility.yul\":19671:19672   */\n      0x01\n        /* \"#utility.yul\":19665:19669   */\n      0x20\n        /* \"#utility.yul\":19661:19673   */\n      sub\n        /* \"#utility.yul\":19650:19658   */\n      dup5\n        /* \"#utility.yul\":19634:19648   */\n      calldatasize\n        /* \"#utility.yul\":19630:19659   */\n      sub\n        /* \"#utility.yul\":19626:19674   */\n      sub\n        /* \"#utility.yul\":19606:19624   */\n      dup2\n        /* \"#utility.yul\":19602:19675   */\n      slt\n        /* \"#utility.yul\":19592:19760   */\n      tag_457\n      jumpi\n        /* \"#utility.yul\":19679:19758   */\n      tag_458\n      tag_238\n      jump\t// in\n    tag_458:\n        /* \"#utility.yul\":19592:19760   */\n    tag_457:\n        /* \"#utility.yul\":19791:19809   */\n      dup1\n        /* \"#utility.yul\":19781:19789   */\n      dup5\n        /* \"#utility.yul\":19777:19810   */\n      add\n        /* \"#utility.yul\":19769:19810   */\n      swap3\n      pop\n        /* \"#utility.yul\":19843:19847   */\n      dup3\n        /* \"#utility.yul\":19830:19848   */\n      calldataload\n        /* \"#utility.yul\":19820:19848   */\n      swap2\n      pop\n        /* \"#utility.yul\":19871:19889   */\n      0xffffffffffffffff\n        /* \"#utility.yul\":19863:19869   */\n      dup3\n        /* \"#utility.yul\":19860:19890   */\n      gt\n        /* \"#utility.yul\":19857:19974   */\n      iszero\n      tag_459\n      jumpi\n        /* \"#utility.yul\":19893:19972   */\n      tag_460\n      tag_239\n      jump\t// in\n    tag_460:\n        /* \"#utility.yul\":19857:19974   */\n    tag_459:\n        /* \"#utility.yul\":20001:20003   */\n      0x20\n        /* \"#utility.yul\":19995:19999   */\n      dup4\n        /* \"#utility.yul\":19991:20004   */\n      add\n        /* \"#utility.yul\":19983:20004   */\n      swap3\n      pop\n        /* \"#utility.yul\":20058:20062   */\n      0x01\n        /* \"#utility.yul\":20050:20056   */\n      dup3\n        /* \"#utility.yul\":20046:20063   */\n      mul\n        /* \"#utility.yul\":20030:20044   */\n      calldatasize\n        /* \"#utility.yul\":20026:20064   */\n      sub\n        /* \"#utility.yul\":20020:20024   */\n      dup4\n        /* \"#utility.yul\":20016:20065   */\n      sgt\n        /* \"#utility.yul\":20013:20149   */\n      iszero\n      tag_461\n      jumpi\n        /* \"#utility.yul\":20068:20147   */\n      tag_462\n      tag_240\n      jump\t// in\n    tag_462:\n        /* \"#utility.yul\":20013:20149   */\n    tag_461:\n        /* \"#utility.yul\":19522:20156   */\n      pop\n        /* \"#utility.yul\":19431:20156   */\n      swap3\n      pop\n      swap3\n      swap1\n      pop\n      jump\t// out\n        /* \"#utility.yul\":20162:20331   */\n    tag_241:\n        /* \"#utility.yul\":20246:20257   */\n      0x00\n        /* \"#utility.yul\":20280:20286   */\n      dup3\n        /* \"#utility.yul\":20275:20278   */\n      dup3\n        /* \"#utility.yul\":20268:20287   */\n      mstore\n        /* \"#utility.yul\":20320:20324   */\n      0x20\n        /* \"#utility.yul\":20315:20318   */\n      dup3\n        /* \"#utility.yul\":20311:20325   */\n      add\n        /* \"#utility.yul\":20296:20325   */\n      swap1\n      pop\n        /* \"#utility.yul\":20162:20331   */\n      swap3\n      swap2\n      pop\n      pop\n      jump\t// out\n        /* \"#utility.yul\":20337:20485   */\n    tag_242:\n        /* \"#utility.yul\":20435:20441   */\n      dup3\n        /* \"#utility.yul\":20430:20433   */\n      dup2\n        /* \"#utility.yul\":20425:20428   */\n      dup4\n        /* \"#utility.yul\":20412:20442   */\n      calldatacopy\n        /* \"#utility.yul\":20476:20477   */\n      0x00\n        /* \"#utility.yul\":20467:20473   */\n      dup4\n        /* \"#utility.yul\":20462:20465   */\n      dup4\n        /* \"#utility.yul\":20458:20474   */\n      add\n        /* \"#utility.yul\":20451:20478   */\n      mstore\n        /* \"#utility.yul\":20337:20485   */\n      pop\n      pop\n      pop\n      jump\t// out\n        /* \"#utility.yul\":20515:20832   */\n    tag_243:\n        /* \"#utility.yul\":20613:20616   */\n      0x00\n        /* \"#utility.yul\":20634:20705   */\n      tag_466\n        /* \"#utility.yul\":20698:20704   */\n      dup4\n        /* \"#utility.yul\":20693:20696   */\n      dup6\n        /* \"#utility.yul\":20634:20705   */\n      tag_241\n      jump\t// in\n    tag_466:\n        /* \"#utility.yul\":20627:20705   */\n      swap4\n      pop\n        /* \"#utility.yul\":20715:20771   */\n      tag_467\n        /* \"#utility.yul\":20764:20770   */\n      dup4\n        /* \"#utility.yul\":20759:20762   */\n      dup6\n        /* \"#utility.yul\":20752:20757   */\n      dup5\n        /* \"#utility.yul\":20715:20771   */\n      tag_242\n      jump\t// in\n    tag_467:\n        /* \"#utility.yul\":20796:20825   */\n      tag_468\n        /* \"#utility.yul\":20818:20824   */\n      dup4\n        /* \"#utility.yul\":20796:20825   */\n      tag_203\n      jump\t// in\n    tag_468:\n        /* \"#utility.yul\":20791:20794   */\n      dup5\n        /* \"#utility.yul\":20787:20826   */\n      add\n        /* \"#utility.yul\":20780:20826   */\n      swap1\n      pop\n        /* \"#utility.yul\":20515:20832   */\n      swap4\n      swap3\n      pop\n      pop\n      pop\n      jump\t// out\n        /* \"#utility.yul\":20838:21392   */\n    tag_109:\n        /* \"#utility.yul\":21019:21023   */\n      0x00\n        /* \"#utility.yul\":21057:21059   */\n      0x40\n        /* \"#utility.yul\":21046:21055   */\n      dup3\n        /* \"#utility.yul\":21042:21060   */\n      add\n        /* \"#utility.yul\":21034:21060   */\n      swap1\n      pop\n        /* \"#utility.yul\":21106:21115   */\n      dup2\n        /* \"#utility.yul\":21100:21104   */\n      dup2\n        /* \"#utility.yul\":21096:21116   */\n      sub\n        /* \"#utility.yul\":21092:21093   */\n      0x00\n        /* \"#utility.yul\":21081:21090   */\n      dup4\n        /* \"#utility.yul\":21077:21094   */\n      add\n        /* \"#utility.yul\":21070:21117   */\n      mstore\n        /* \"#utility.yul\":21134:21222   */\n      tag_470\n        /* \"#utility.yul\":21217:21221   */\n      dup2\n        /* \"#utility.yul\":21208:21214   */\n      dup7\n        /* \"#utility.yul\":21200:21206   */\n      dup9\n        /* \"#utility.yul\":21134:21222   */\n      tag_243\n      jump\t// in\n    tag_470:\n        /* \"#utility.yul\":21126:21222   */\n      swap1\n      pop\n        /* \"#utility.yul\":21269:21278   */\n      dup2\n        /* \"#utility.yul\":21263:21267   */\n      dup2\n        /* \"#utility.yul\":21259:21279   */\n      sub\n        /* \"#utility.yul\":21254:21256   */\n      0x20\n        /* \"#utility.yul\":21243:21252   */\n      dup4\n        /* \"#utility.yul\":21239:21257   */\n      add\n        /* \"#utility.yul\":21232:21280   */\n      mstore\n        /* \"#utility.yul\":21297:21385   */\n      tag_471\n        /* \"#utility.yul\":21380:21384   */\n      dup2\n        /* \"#utility.yul\":21371:21377   */\n      dup5\n        /* \"#utility.yul\":21363:21369   */\n      dup7\n        /* \"#utility.yul\":21297:21385   */\n      tag_243\n      jump\t// in\n    tag_471:\n        /* \"#utility.yul\":21289:21385   */\n      swap1\n      pop\n        /* \"#utility.yul\":20838:21392   */\n      swap6\n      swap5\n      pop\n      pop\n      pop\n      pop\n      pop\n      jump\t// out\n        /* \"#utility.yul\":21398:21516   */\n    tag_244:\n        /* \"#utility.yul\":21485:21509   */\n      tag_473\n        /* \"#utility.yul\":21503:21508   */\n      dup2\n        /* \"#utility.yul\":21485:21509   */\n      tag_191\n      jump\t// in\n    tag_473:\n        /* \"#utility.yul\":21480:21483   */\n      dup3\n        /* \"#utility.yul\":21473:21510   */\n      mstore\n        /* \"#utility.yul\":21398:21516   */\n      pop\n      pop\n      jump\t// out\n        /* \"#utility.yul\":21522:21854   */\n    tag_112:\n        /* \"#utility.yul\":21643:21647   */\n      0x00\n        /* \"#utility.yul\":21681:21683   */\n      0x40\n        /* \"#utility.yul\":21670:21679   */\n      dup3\n        /* \"#utility.yul\":21666:21684   */\n      add\n        /* \"#utility.yul\":21658:21684   */\n      swap1\n      pop\n        /* \"#utility.yul\":21694:21765   */\n      tag_475\n        /* \"#utility.yul\":21762:21763   */\n      0x00\n        /* \"#utility.yul\":21751:21760   */\n      dup4\n        /* \"#utility.yul\":21747:21764   */\n      add\n        /* \"#utility.yul\":21738:21744   */\n      dup6\n        /* \"#utility.yul\":21694:21765   */\n      tag_244\n      jump\t// in\n    tag_475:\n        /* \"#utility.yul\":21775:21847   */\n      tag_476\n        /* \"#utility.yul\":21843:21845   */\n      0x20\n        /* \"#utility.yul\":21832:21841   */\n      dup4\n        /* \"#utility.yul\":21828:21846   */\n      add\n        /* \"#utility.yul\":21819:21825   */\n      dup5\n        /* \"#utility.yul\":21775:21847   */\n      tag_189\n      jump\t// in\n    tag_476:\n        /* \"#utility.yul\":21522:21854   */\n      swap4\n      swap3\n      pop\n      pop\n      pop\n      jump\t// out\n        /* \"#utility.yul\":21860:22041   */\n    tag_245:\n        /* \"#utility.yul\":22000:22033   */\n      0x5265656e7472616e637947756172643a207265656e7472616e742063616c6c00\n        /* \"#utility.yul\":21996:21997   */\n      0x00\n        /* \"#utility.yul\":21988:21994   */\n      dup3\n        /* \"#utility.yul\":21984:21998   */\n      add\n        /* \"#utility.yul\":21977:22034   */\n      mstore\n        /* \"#utility.yul\":21860:22041   */\n      pop\n      jump\t// out\n        /* \"#utility.yul\":22047:22413   */\n    tag_246:\n        /* \"#utility.yul\":22189:22192   */\n      0x00\n        /* \"#utility.yul\":22210:22277   */\n      tag_479\n        /* \"#utility.yul\":22274:22276   */\n      0x1f\n        /* \"#utility.yul\":22269:22272   */\n      dup4\n        /* \"#utility.yul\":22210:22277   */\n      tag_241\n      jump\t// in\n    tag_479:\n        /* \"#utility.yul\":22203:22277   */\n      swap2\n      pop\n        /* \"#utility.yul\":22286:22379   */\n      tag_480\n        /* \"#utility.yul\":22375:22378   */\n      dup3\n        /* \"#utility.yul\":22286:22379   */\n      tag_245\n      jump\t// in\n    tag_480:\n        /* \"#utility.yul\":22404:22406   */\n      0x20\n        /* \"#utility.yul\":22399:22402   */\n      dup3\n        /* \"#utility.yul\":22395:22407   */\n      add\n        /* \"#utility.yul\":22388:22407   */\n      swap1\n      pop\n        /* \"#utility.yul\":22047:22413   */\n      swap2\n      swap1\n      pop\n      jump\t// out\n        /* \"#utility.yul\":22419:22838   */\n    tag_169:\n        /* \"#utility.yul\":22585:22589   */\n      0x00\n        /* \"#utility.yul\":22623:22625   */\n      0x20\n        /* \"#utility.yul\":22612:22621   */\n      dup3\n        /* \"#utility.yul\":22608:22626   */\n      add\n        /* \"#utility.yul\":22600:22626   */\n      swap1\n      pop\n        /* \"#utility.yul\":22672:22681   */\n      dup2\n        /* \"#utility.yul\":22666:22670   */\n      dup2\n        /* \"#utility.yul\":22662:22682   */\n      sub\n        /* \"#utility.yul\":22658:22659   */\n      0x00\n        /* \"#utility.yul\":22647:22656   */\n      dup4\n        /* \"#utility.yul\":22643:22660   */\n      add\n        /* \"#utility.yul\":22636:22683   */\n      mstore\n        /* \"#utility.yul\":22700:22831   */\n      tag_482\n        /* \"#utility.yul\":22826:22830   */\n      dup2\n        /* \"#utility.yul\":22700:22831   */\n      tag_246\n      jump\t// in\n    tag_482:\n        /* \"#utility.yul\":22692:22831   */\n      swap1\n      pop\n        /* \"#utility.yul\":22419:22838   */\n      swap2\n      swap1\n      pop\n      jump\t// out\n        /* \"#utility.yul\":22844:23176   */\n    tag_175:\n        /* \"#utility.yul\":22965:22969   */\n      0x00\n        /* \"#utility.yul\":23003:23005   */\n      0x40\n        /* \"#utility.yul\":22992:23001   */\n      dup3\n        /* \"#utility.yul\":22988:23006   */\n      add\n        /* \"#utility.yul\":22980:23006   */\n      swap1\n      pop\n        /* \"#utility.yul\":23016:23087   */\n      tag_484\n        /* \"#utility.yul\":23084:23085   */\n      0x00\n        /* \"#utility.yul\":23073:23082   */\n      dup4\n        /* \"#utility.yul\":23069:23086   */\n      add\n        /* \"#utility.yul\":23060:23066   */\n      dup6\n        /* \"#utility.yul\":23016:23087   */\n      tag_244\n      jump\t// in\n    tag_484:\n        /* \"#utility.yul\":23097:23169   */\n      tag_485\n        /* \"#utility.yul\":23165:23167   */\n      0x20\n        /* \"#utility.yul\":23154:23163   */\n      dup4\n        /* \"#utility.yul\":23150:23168   */\n      add\n        /* \"#utility.yul\":23141:23147   */\n      dup5\n        /* \"#utility.yul\":23097:23169   */\n      tag_187\n      jump\t// in\n    tag_485:\n        /* \"#utility.yul\":22844:23176   */\n      swap4\n      swap3\n      pop\n      pop\n      pop\n      jump\t// out\n\n    auxdata: 0xa26469706673582212206d22f64812049d7f9022b4d84dc25213b25c792c361523e96452c8c993d48dde64736f6c634300081e0033\n}\n",
				"bytecode": {
					"linkReferences": {},
					"object": "60a060405268056bc75e2d6310000060025534801561001c575f5ffd5b50604051611c47380380611c47833981810160405281019061003e9190610291565b600180819055508073ffffffffffffffffffffffffffffffffffffffff1660808173ffffffffffffffffffffffffffffffffffffffff168152505061008b5f5f1b336100c360201b60201c565b506100bc7fa49807205ce4d355092ef5a8a18f56e8913cf4a201fbe287825b095693c21775336100c360201b60201c565b50506102bc565b5f6100d483836101b860201b60201c565b6101ae5760015f5f8581526020019081526020015f205f015f8473ffffffffffffffffffffffffffffffffffffffff1673ffffffffffffffffffffffffffffffffffffffff1681526020019081526020015f205f6101000a81548160ff02191690831515021790555061014b61021b60201b60201c565b73ffffffffffffffffffffffffffffffffffffffff168273ffffffffffffffffffffffffffffffffffffffff16847f2f8788117e7eff1d82e926ec794901d17c78024a50270940304540a733656f0d60405160405180910390a4600190506101b2565b5f90505b92915050565b5f5f5f8481526020019081526020015f205f015f8373ffffffffffffffffffffffffffffffffffffffff1673ffffffffffffffffffffffffffffffffffffffff1681526020019081526020015f205f9054906101000a900460ff16905092915050565b5f33905090565b5f5ffd5b5f73ffffffffffffffffffffffffffffffffffffffff82169050919050565b5f61024f82610226565b9050919050565b5f61026082610245565b9050919050565b61027081610256565b811461027a575f5ffd5b50565b5f8151905061028b81610267565b92915050565b5f602082840312156102a6576102a5610222565b5b5f6102b38482850161027d565b91505092915050565b60805161196c6102db5f395f81816105b50152610a64015261196c5ff3fe608060405234801561000f575f5ffd5b50600436106100cd575f3560e01c80636f77926b1161008a578063a217fddf11610064578063a217fddf14610221578063a5500c301461023f578063d547741f1461025b578063fc0c546a14610277576100cd565b80636f77926b146101a357806375b238fc146101d357806391d14854146101f1576100cd565b806301ffc9a7146100d1578063248a9ca3146101015780632b5b6872146101315780632f2ff15d1461014f57806336568abe1461016b57806361c452fe14610187575b5f5ffd5b6100eb60048036038101906100e69190610e35565b610295565b6040516100f89190610e7a565b60405180910390f35b61011b60048036038101906101169190610ec6565b61030e565b6040516101289190610f00565b60405180910390f35b61013961032a565b6040516101469190610f31565b60405180910390f35b61016960048036038101906101649190610fa4565b610330565b005b61018560048036038101906101809190610fa4565b610352565b005b6101a1600480360381019061019c9190611098565b6103cd565b005b6101bd60048036038101906101b89190611148565b6106a0565b6040516101ca9190611372565b60405180910390f35b6101db61097e565b6040516101e89190610f00565b60405180910390f35b61020b60048036038101906102069190610fa4565b6109a2565b6040516102189190610e7a565b60405180910390f35b610229610a05565b6040516102369190610f00565b60405180910390f35b610259600480360381019061025491906113bc565b610a0b565b005b61027560048036038101906102709190610fa4565b610a40565b005b61027f610a62565b60405161028c9190611442565b60405180910390f35b5f7f7965db0b000000000000000000000000000000000000000000000000000000007bffffffffffffffffffffffffffffffffffffffffffffffffffffffff1916827bffffffffffffffffffffffffffffffffffffffffffffffffffffffff19161480610307575061030682610a86565b5b9050919050565b5f5f5f8381526020019081526020015f20600101549050919050565b60025481565b6103398261030e565b61034281610aef565b61034c8383610b03565b50505050565b61035a610bec565b73ffffffffffffffffffffffffffffffffffffffff168173ffffffffffffffffffffffffffffffffffffffff16146103be576040517f6697b23200000000000000000000000000000000000000000000000000000000815260040160405180910390fd5b6103c88282610bf3565b505050565b6103d5610cdc565b5f60035f3373ffffffffffffffffffffffffffffffffffffffff1673ffffffffffffffffffffffffffffffffffffffff1681526020019081526020015f2090505f81600401540361068f5733815f015f6101000a81548173ffffffffffffffffffffffffffffffffffffffff021916908373ffffffffffffffffffffffffffffffffffffffff1602179055508686826001019182610474929190611686565b508484826002019182610488929190611686565b505f5f90505b8383905081101561050657816003018484838181106104b0576104af611753565b5b90506020028101906104c2919061178c565b90918060018154018082558091505060019003905f5260205f20015f9091929091929091929091925091826104f8929190611686565b50808060010191505061048e565b504281600401819055506001816005015f6101000a81548160ff0219169083151502179055503373ffffffffffffffffffffffffffffffffffffffff167f92822564bab8864c3a47b34e8d23fbce5c46234eb5da261f94087b995ac0f33b888888886040516105789493929190611838565b60405180910390a28060050160019054906101000a900460ff1661068e5760018160050160016101000a81548160ff0219169083151502179055507f000000000000000000000000000000000000000000000000000000000000000073ffffffffffffffffffffffffffffffffffffffff166340c10f19336002546040518363ffffffff1660e01b8152600401610610929190611880565b5f604051808303815f87803b158015610627575f5ffd5b505af1158015610639573d5f5f3e3d5ffd5b505050503373ffffffffffffffffffffffffffffffffffffffff167f48ed732e3e0fcb29b2d80ef5a673136179b6b6fc6ef84048ba2547c965a52e746002546040516106859190610f31565b60405180910390a25b5b50610698610d2b565b505050505050565b6106a8610d85565b60035f8373ffffffffffffffffffffffffffffffffffffffff1673ffffffffffffffffffffffffffffffffffffffff1681526020019081526020015f206040518060e00160405290815f82015f9054906101000a900473ffffffffffffffffffffffffffffffffffffffff1673ffffffffffffffffffffffffffffffffffffffff1673ffffffffffffffffffffffffffffffffffffffff168152602001600182018054610754906114bf565b80601f0160208091040260200160405190810160405280929190818152602001828054610780906114bf565b80156107cb5780601f106107a2576101008083540402835291602001916107cb565b820191905f5260205f20905b8154815290600101906020018083116107ae57829003601f168201915b505050505081526020016002820180546107e4906114bf565b80601f0160208091040260200160405190810160405280929190818152602001828054610810906114bf565b801561085b5780601f106108325761010080835404028352916020019161085b565b820191905f5260205f20905b81548152906001019060200180831161083e57829003601f168201915b5050505050815260200160038201805480602002602001604051908101604052809291908181526020015f905b82821015610930578382905f5260205f200180546108a5906114bf565b80601f01602080910402602001604051908101604052809291908181526020018280546108d1906114bf565b801561091c5780601f106108f35761010080835404028352916020019161091c565b820191905f5260205f20905b8154815290600101906020018083116108ff57829003601f168201915b505050505081526020019060010190610888565b50505050815260200160048201548152602001600582015f9054906101000a900460ff161515151581526020016005820160019054906101000a900460ff1615151515815250509050919050565b7fa49807205ce4d355092ef5a8a18f56e8913cf4a201fbe287825b095693c2177581565b5f5f5f8481526020019081526020015f205f015f8373ffffffffffffffffffffffffffffffffffffffff1673ffffffffffffffffffffffffffffffffffffffff1681526020019081526020015f205f9054906101000a900460ff16905092915050565b5f5f1b81565b7fa49807205ce4d355092ef5a8a18f56e8913cf4a201fbe287825b095693c21775610a3581610aef565b816002819055505050565b610a498261030e565b610a5281610aef565b610a5c8383610bf3565b50505050565b7f000000000000000000000000000000000000000000000000000000000000000081565b5f7f01ffc9a7000000000000000000000000000000000000000000000000000000007bffffffffffffffffffffffffffffffffffffffffffffffffffffffff1916827bffffffffffffffffffffffffffffffffffffffffffffffffffffffff1916149050919050565b610b0081610afb610bec565b610d34565b50565b5f610b0e83836109a2565b610be25760015f5f8581526020019081526020015f205f015f8473ffffffffffffffffffffffffffffffffffffffff1673ffffffffffffffffffffffffffffffffffffffff1681526020019081526020015f205f6101000a81548160ff021916908315150217905550610b7f610bec565b73ffffffffffffffffffffffffffffffffffffffff168273ffffffffffffffffffffffffffffffffffffffff16847f2f8788117e7eff1d82e926ec794901d17c78024a50270940304540a733656f0d60405160405180910390a460019050610be6565b5f90505b92915050565b5f33905090565b5f610bfe83836109a2565b15610cd2575f5f5f8581526020019081526020015f205f015f8473ffffffffffffffffffffffffffffffffffffffff1673ffffffffffffffffffffffffffffffffffffffff1681526020019081526020015f205f6101000a81548160ff021916908315150217905550610c6f610bec565b73ffffffffffffffffffffffffffffffffffffffff168273ffffffffffffffffffffffffffffffffffffffff16847ff6391f5c32d9c69d2a47ea670b442974b53935d1edc7fd64eb21e047a839171b60405160405180910390a460019050610cd6565b5f90505b92915050565b600260015403610d21576040517f08c379a0000000000000000000000000000000000000000000000000000000008152600401610d18906118f1565b60405180910390fd5b6002600181905550565b60018081905550565b610d3e82826109a2565b610d815780826040517fe2517d3f000000000000000000000000000000000000000000000000000000008152600401610d7892919061190f565b60405180910390fd5b5050565b6040518060e001604052805f73ffffffffffffffffffffffffffffffffffffffff1681526020016060815260200160608152602001606081526020015f81526020015f151581526020015f151581525090565b5f5ffd5b5f5ffd5b5f7fffffffff0000000000000000000000000000000000000000000000000000000082169050919050565b610e1481610de0565b8114610e1e575f5ffd5b50565b5f81359050610e2f81610e0b565b92915050565b5f60208284031215610e4a57610e49610dd8565b5b5f610e5784828501610e21565b91505092915050565b5f8115159050919050565b610e7481610e60565b82525050565b5f602082019050610e8d5f830184610e6b565b92915050565b5f819050919050565b610ea581610e93565b8114610eaf575f5ffd5b50565b5f81359050610ec081610e9c565b92915050565b5f60208284031215610edb57610eda610dd8565b5b5f610ee884828501610eb2565b91505092915050565b610efa81610e93565b82525050565b5f602082019050610f135f830184610ef1565b92915050565b5f819050919050565b610f2b81610f19565b82525050565b5f602082019050610f445f830184610f22565b92915050565b5f73ffffffffffffffffffffffffffffffffffffffff82169050919050565b5f610f7382610f4a565b9050919050565b610f8381610f69565b8114610f8d575f5ffd5b50565b5f81359050610f9e81610f7a565b92915050565b5f5f60408385031215610fba57610fb9610dd8565b5b5f610fc785828601610eb2565b9250506020610fd885828601610f90565b9150509250929050565b5f5ffd5b5f5ffd5b5f5ffd5b5f5f83601f84011261100357611002610fe2565b5b8235905067ffffffffffffffff8111156110205761101f610fe6565b5b60208301915083600182028301111561103c5761103b610fea565b5b9250929050565b5f5f83601f84011261105857611057610fe2565b5b8235905067ffffffffffffffff81111561107557611074610fe6565b5b60208301915083602082028301111561109157611090610fea565b5b9250929050565b5f5f5f5f5f5f606087890312156110b2576110b1610dd8565b5b5f87013567ffffffffffffffff8111156110cf576110ce610ddc565b5b6110db89828a01610fee565b9650965050602087013567ffffffffffffffff8111156110fe576110fd610ddc565b5b61110a89828a01610fee565b9450945050604087013567ffffffffffffffff81111561112d5761112c610ddc565b5b61113989828a01611043565b92509250509295509295509295565b5f6020828403121561115d5761115c610dd8565b5b5f61116a84828501610f90565b91505092915050565b61117c81610f69565b82525050565b5f81519050919050565b5f82825260208201905092915050565b8281835e5f83830152505050565b5f601f19601f8301169050919050565b5f6111c482611182565b6111ce818561118c565b93506111de81856020860161119c565b6111e7816111aa565b840191505092915050565b5f81519050919050565b5f82825260208201905092915050565b5f819050602082019050919050565b5f61122683836111ba565b905092915050565b5f602082019050919050565b5f611244826111f2565b61124e81856111fc565b9350836020820285016112608561120c565b805f5b8581101561129b578484038952815161127c858261121b565b94506112878361122e565b925060208a01995050600181019050611263565b50829750879550505050505092915050565b6112b681610f19565b82525050565b6112c581610e60565b82525050565b5f60e083015f8301516112e05f860182611173565b50602083015184820360208601526112f882826111ba565b9150506040830151848203604086015261131282826111ba565b9150506060830151848203606086015261132c828261123a565b915050608083015161134160808601826112ad565b5060a083015161135460a08601826112bc565b5060c083015161136760c08601826112bc565b508091505092915050565b5f6020820190508181035f83015261138a81846112cb565b905092915050565b61139b81610f19565b81146113a5575f5ffd5b50565b5f813590506113b681611392565b92915050565b5f602082840312156113d1576113d0610dd8565b5b5f6113de848285016113a8565b91505092915050565b5f819050919050565b5f61140a61140561140084610f4a565b6113e7565b610f4a565b9050919050565b5f61141b826113f0565b9050919050565b5f61142c82611411565b9050919050565b61143c81611422565b82525050565b5f6020820190506114555f830184611433565b92915050565b5f82905092915050565b7f4e487b71000000000000000000000000000000000000000000000000000000005f52604160045260245ffd5b7f4e487b71000000000000000000000000000000000000000000000000000000005f52602260045260245ffd5b5f60028204905060018216806114d657607f821691505b6020821081036114e9576114e8611492565b5b50919050565b5f819050815f5260205f209050919050565b5f6020601f8301049050919050565b5f82821b905092915050565b5f6008830261154b7fffffffffffffffffffffffffffffffffffffffffffffffffffffffffffffffff82611510565b6115558683611510565b95508019841693508086168417925050509392505050565b5f61158761158261157d84610f19565b6113e7565b610f19565b9050919050565b5f819050919050565b6115a08361156d565b6115b46115ac8261158e565b84845461151c565b825550505050565b5f5f905090565b6115cb6115bc565b6115d6818484611597565b505050565b5b818110156115f9576115ee5f826115c3565b6001810190506115dc565b5050565b601f82111561163e5761160f816114ef565b61161884611501565b81016020851015611627578190505b61163b61163385611501565b8301826115db565b50505b505050565b5f82821c905092915050565b5f61165e5f1984600802611643565b1980831691505092915050565b5f611676838361164f565b9150826002028217905092915050565b611690838361145b565b67ffffffffffffffff8111156116a9576116a8611465565b5b6116b382546114bf565b6116be8282856115fd565b5f601f8311600181146116eb575f84156116d9578287013590505b6116e3858261166b565b86555061174a565b601f1984166116f9866114ef565b5f5b82811015611720578489013582556001820191506020850194506020810190506116fb565b8683101561173d5784890135611739601f89168261164f565b8355505b6001600288020188555050505b50505050505050565b7f4e487b71000000000000000000000000000000000000000000000000000000005f52603260045260245ffd5b5f5ffd5b5f5ffd5b5f5ffd5b5f5f833560016020038436030381126117a8576117a7611780565b5b80840192508235915067ffffffffffffffff8211156117ca576117c9611784565b5b6020830192506001820236038313156117e6576117e5611788565b5b509250929050565b5f82825260208201905092915050565b828183375f83830152505050565b5f61181783856117ee565b93506118248385846117fe565b61182d836111aa565b840190509392505050565b5f6040820190508181035f83015261185181868861180c565b9050818103602083015261186681848661180c565b905095945050505050565b61187a81610f69565b82525050565b5f6040820190506118935f830185611871565b6118a06020830184610f22565b9392505050565b7f5265656e7472616e637947756172643a207265656e7472616e742063616c6c005f82015250565b5f6118db601f836117ee565b91506118e6826118a7565b602082019050919050565b5f6020820190508181035f830152611908816118cf565b9050919050565b5f6040820190506119225f830185611871565b61192f6020830184610ef1565b939250505056fea26469706673582212206d22f64812049d7f9022b4d84dc25213b25c792c361523e96452c8c993d48dde64736f6c634300081e0033",
					"opcodes": "PUSH1 0xA0 PUSH1 0x40 MSTORE PUSH9 0x56BC75E2D63100000 PUSH1 0x2 SSTORE CALLVALUE DUP1 ISZERO PUSH2 0x1C JUMPI PUSH0 PUSH0 REVERT JUMPDEST POP PUSH1 0x40 MLOAD PUSH2 0x1C47 CODESIZE SUB DUP1 PUSH2 0x1C47 DUP4 CODECOPY DUP2 DUP2 ADD PUSH1 0x40 MSTORE DUP2 ADD SWAP1 PUSH2 0x3E SWAP2 SWAP1 PUSH2 0x291 JUMP JUMPDEST PUSH1 0x1 DUP1 DUP2 SWAP1 SSTORE POP DUP1 PUSH20 0xFFFFFFFFFFFFFFFFFFFFFFFFFFFFFFFFFFFFFFFF AND PUSH1 0x80 DUP2 PUSH20 0xFFFFFFFFFFFFFFFFFFFFFFFFFFFFFFFFFFFFFFFF AND DUP2 MSTORE POP POP PUSH2 0x8B PUSH0 PUSH0 SHL CALLER PUSH2 0xC3 PUSH1 0x20 SHL PUSH1 0x20 SHR JUMP JUMPDEST POP PUSH2 0xBC PUSH32 0xA49807205CE4D355092EF5A8A18F56E8913CF4A201FBE287825B095693C21775 CALLER PUSH2 0xC3 PUSH1 0x20 SHL PUSH1 0x20 SHR JUMP JUMPDEST POP POP PUSH2 0x2BC JUMP JUMPDEST PUSH0 PUSH2 0xD4 DUP4 DUP4 PUSH2 0x1B8 PUSH1 0x20 SHL PUSH1 0x20 SHR JUMP JUMPDEST PUSH2 0x1AE JUMPI PUSH1 0x1 PUSH0 PUSH0 DUP6 DUP2 MSTORE PUSH1 0x20 ADD SWAP1 DUP2 MSTORE PUSH1 0x20 ADD PUSH0 KECCAK256 PUSH0 ADD PUSH0 DUP5 PUSH20 0xFFFFFFFFFFFFFFFFFFFFFFFFFFFFFFFFFFFFFFFF AND PUSH20 0xFFFFFFFFFFFFFFFFFFFFFFFFFFFFFFFFFFFFFFFF AND DUP2 MSTORE PUSH1 0x20 ADD SWAP1 DUP2 MSTORE PUSH1 0x20 ADD PUSH0 KECCAK256 PUSH0 PUSH2 0x100 EXP DUP2 SLOAD DUP2 PUSH1 0xFF MUL NOT AND SWAP1 DUP4 ISZERO ISZERO MUL OR SWAP1 SSTORE POP PUSH2 0x14B PUSH2 0x21B PUSH1 0x20 SHL PUSH1 0x20 SHR JUMP JUMPDEST PUSH20 0xFFFFFFFFFFFFFFFFFFFFFFFFFFFFFFFFFFFFFFFF AND DUP3 PUSH20 0xFFFFFFFFFFFFFFFFFFFFFFFFFFFFFFFFFFFFFFFF AND DUP5 PUSH32 0x2F8788117E7EFF1D82E926EC794901D17C78024A50270940304540A733656F0D PUSH1 0x40 MLOAD PUSH1 0x40 MLOAD DUP1 SWAP2 SUB SWAP1 LOG4 PUSH1 0x1 SWAP1 POP PUSH2 0x1B2 JUMP JUMPDEST PUSH0 SWAP1 POP JUMPDEST SWAP3 SWAP2 POP POP JUMP JUMPDEST PUSH0 PUSH0 PUSH0 DUP5 DUP2 MSTORE PUSH1 0x20 ADD SWAP1 DUP2 MSTORE PUSH1 0x20 ADD PUSH0 KECCAK256 PUSH0 ADD PUSH0 DUP4 PUSH20 0xFFFFFFFFFFFFFFFFFFFFFFFFFFFFFFFFFFFFFFFF AND PUSH20 0xFFFFFFFFFFFFFFFFFFFFFFFFFFFFFFFFFFFFFFFF AND DUP2 MSTORE PUSH1 0x20 ADD SWAP1 DUP2 MSTORE PUSH1 0x20 ADD PUSH0 KECCAK256 PUSH0 SWAP1 SLOAD SWAP1 PUSH2 0x100 EXP SWAP1 DIV PUSH1 0xFF AND SWAP1 POP SWAP3 SWAP2 POP POP JUMP JUMPDEST PUSH0 CALLER SWAP1 POP SWAP1 JUMP JUMPDEST PUSH0 PUSH0 REVERT JUMPDEST PUSH0 PUSH20 0xFFFFFFFFFFFFFFFFFFFFFFFFFFFFFFFFFFFFFFFF DUP3 AND SWAP1 POP SWAP2 SWAP1 POP JUMP JUMPDEST PUSH0 PUSH2 0x24F DUP3 PUSH2 0x226 JUMP JUMPDEST SWAP1 POP SWAP2 SWAP1 POP JUMP JUMPDEST PUSH0 PUSH2 0x260 DUP3 PUSH2 0x245 JUMP JUMPDEST SWAP1 POP SWAP2 SWAP1 POP JUMP JUMPDEST PUSH2 0x270 DUP2 PUSH2 0x256 JUMP JUMPDEST DUP2 EQ PUSH2 0x27A JUMPI PUSH0 PUSH0 REVERT JUMPDEST POP JUMP JUMPDEST PUSH0 DUP2 MLOAD SWAP1 POP PUSH2 0x28B DUP2 PUSH2 0x267 JUMP JUMPDEST SWAP3 SWAP2 POP POP JUMP JUMPDEST PUSH0 PUSH1 0x20 DUP3 DUP5 SUB SLT ISZERO PUSH2 0x2A6 JUMPI PUSH2 0x2A5 PUSH2 0x222 JUMP JUMPDEST JUMPDEST PUSH0 PUSH2 0x2B3 DUP5 DUP3 DUP6 ADD PUSH2 0x27D JUMP JUMPDEST SWAP2 POP POP SWAP3 SWAP2 POP POP JUMP JUMPDEST PUSH1 0x80 MLOAD PUSH2 0x196C PUSH2 0x2DB PUSH0 CODECOPY PUSH0 DUP2 DUP2 PUSH2 0x5B5 ADD MSTORE PUSH2 0xA64 ADD MSTORE PUSH2 0x196C PUSH0 RETURN INVALID PUSH1 0x80 PUSH1 0x40 MSTORE CALLVALUE DUP1 ISZERO PUSH2 0xF JUMPI PUSH0 PUSH0 REVERT JUMPDEST POP PUSH1 0x4 CALLDATASIZE LT PUSH2 0xCD JUMPI PUSH0 CALLDATALOAD PUSH1 0xE0 SHR DUP1 PUSH4 0x6F77926B GT PUSH2 0x8A JUMPI DUP1 PUSH4 0xA217FDDF GT PUSH2 0x64 JUMPI DUP1 PUSH4 0xA217FDDF EQ PUSH2 0x221 JUMPI DUP1 PUSH4 0xA5500C30 EQ PUSH2 0x23F JUMPI DUP1 PUSH4 0xD547741F EQ PUSH2 0x25B JUMPI DUP1 PUSH4 0xFC0C546A EQ PUSH2 0x277 JUMPI PUSH2 0xCD JUMP JUMPDEST DUP1 PUSH4 0x6F77926B EQ PUSH2 0x1A3 JUMPI DUP1 PUSH4 0x75B238FC EQ PUSH2 0x1D3 JUMPI DUP1 PUSH4 0x91D14854 EQ PUSH2 0x1F1 JUMPI PUSH2 0xCD JUMP JUMPDEST DUP1 PUSH4 0x1FFC9A7 EQ PUSH2 0xD1 JUMPI DUP1 PUSH4 0x248A9CA3 EQ PUSH2 0x101 JUMPI DUP1 PUSH4 0x2B5B6872 EQ PUSH2 0x131 JUMPI DUP1 PUSH4 0x2F2FF15D EQ PUSH2 0x14F JUMPI DUP1 PUSH4 0x36568ABE EQ PUSH2 0x16B JUMPI DUP1 PUSH4 0x61C452FE EQ PUSH2 0x187 JUMPI JUMPDEST PUSH0 PUSH0 REVERT JUMPDEST PUSH2 0xEB PUSH1 0x4 DUP1 CALLDATASIZE SUB DUP2 ADD SWAP1 PUSH2 0xE6 SWAP2 SWAP1 PUSH2 0xE35 JUMP JUMPDEST PUSH2 0x295 JUMP JUMPDEST PUSH1 0x40 MLOAD PUSH2 0xF8 SWAP2 SWAP1 PUSH2 0xE7A JUMP JUMPDEST PUSH1 0x40 MLOAD DUP1 SWAP2 SUB SWAP1 RETURN JUMPDEST PUSH2 0x11B PUSH1 0x4 DUP1 CALLDATASIZE SUB DUP2 ADD SWAP1 PUSH2 0x116 SWAP2 SWAP1 PUSH2 0xEC6 JUMP JUMPDEST PUSH2 0x30E JUMP JUMPDEST PUSH1 0x40 MLOAD PUSH2 0x128 SWAP2 SWAP1 PUSH2 0xF00 JUMP JUMPDEST PUSH1 0x40 MLOAD DUP1 SWAP2 SUB SWAP1 RETURN JUMPDEST PUSH2 0x139 PUSH2 0x32A JUMP JUMPDEST PUSH1 0x40 MLOAD PUSH2 0x146 SWAP2 SWAP1 PUSH2 0xF31 JUMP JUMPDEST PUSH1 0x40 MLOAD DUP1 SWAP2 SUB SWAP1 RETURN JUMPDEST PUSH2 0x169 PUSH1 0x4 DUP1 CALLDATASIZE SUB DUP2 ADD SWAP1 PUSH2 0x164 SWAP2 SWAP1 PUSH2 0xFA4 JUMP JUMPDEST PUSH2 0x330 JUMP JUMPDEST STOP JUMPDEST PUSH2 0x185 PUSH1 0x4 DUP1 CALLDATASIZE SUB DUP2 ADD SWAP1 PUSH2 0x180 SWAP2 SWAP1 PUSH2 0xFA4 JUMP JUMPDEST PUSH2 0x352 JUMP JUMPDEST STOP JUMPDEST PUSH2 0x1A1 PUSH1 0x4 DUP1 CALLDATASIZE SUB DUP2 ADD SWAP1 PUSH2 0x19C SWAP2 SWAP1 PUSH2 0x1098 JUMP JUMPDEST PUSH2 0x3CD JUMP JUMPDEST STOP JUMPDEST PUSH2 0x1BD PUSH1 0x4 DUP1 CALLDATASIZE SUB DUP2 ADD SWAP1 PUSH2 0x1B8 SWAP2 SWAP1 PUSH2 0x1148 JUMP JUMPDEST PUSH2 0x6A0 JUMP JUMPDEST PUSH1 0x40 MLOAD PUSH2 0x1CA SWAP2 SWAP1 PUSH2 0x1372 JUMP JUMPDEST PUSH1 0x40 MLOAD DUP1 SWAP2 SUB SWAP1 RETURN JUMPDEST PUSH2 0x1DB PUSH2 0x97E JUMP JUMPDEST PUSH1 0x40 MLOAD PUSH2 0x1E8 SWAP2 SWAP1 PUSH2 0xF00 JUMP JUMPDEST PUSH1 0x40 MLOAD DUP1 SWAP2 SUB SWAP1 RETURN JUMPDEST PUSH2 0x20B PUSH1 0x4 DUP1 CALLDATASIZE SUB DUP2 ADD SWAP1 PUSH2 0x206 SWAP2 SWAP1 PUSH2 0xFA4 JUMP JUMPDEST PUSH2 0x9A2 JUMP JUMPDEST PUSH1 0x40 MLOAD PUSH2 0x218 SWAP2 SWAP1 PUSH2 0xE7A JUMP JUMPDEST PUSH1 0x40 MLOAD DUP1 SWAP2 SUB SWAP1 RETURN JUMPDEST PUSH2 0x229 PUSH2 0xA05 JUMP JUMPDEST PUSH1 0x40 MLOAD PUSH2 0x236 SWAP2 SWAP1 PUSH2 0xF00 JUMP JUMPDEST PUSH1 0x40 MLOAD DUP1 SWAP2 SUB SWAP1 RETURN JUMPDEST PUSH2 0x259 PUSH1 0x4 DUP1 CALLDATASIZE SUB DUP2 ADD SWAP1 PUSH2 0x254 SWAP2 SWAP1 PUSH2 0x13BC JUMP JUMPDEST PUSH2 0xA0B JUMP JUMPDEST STOP JUMPDEST PUSH2 0x275 PUSH1 0x4 DUP1 CALLDATASIZE SUB DUP2 ADD SWAP1 PUSH2 0x270 SWAP2 SWAP1 PUSH2 0xFA4 JUMP JUMPDEST PUSH2 0xA40 JUMP JUMPDEST STOP JUMPDEST PUSH2 0x27F PUSH2 0xA62 JUMP JUMPDEST PUSH1 0x40 MLOAD PUSH2 0x28C SWAP2 SWAP1 PUSH2 0x1442 JUMP JUMPDEST PUSH1 0x40 MLOAD DUP1 SWAP2 SUB SWAP1 RETURN JUMPDEST PUSH0 PUSH32 0x7965DB0B00000000000000000000000000000000000000000000000000000000 PUSH28 0xFFFFFFFFFFFFFFFFFFFFFFFFFFFFFFFFFFFFFFFFFFFFFFFFFFFFFFFF NOT AND DUP3 PUSH28 0xFFFFFFFFFFFFFFFFFFFFFFFFFFFFFFFFFFFFFFFFFFFFFFFFFFFFFFFF NOT AND EQ DUP1 PUSH2 0x307 JUMPI POP PUSH2 0x306 DUP3 PUSH2 0xA86 JUMP JUMPDEST JUMPDEST SWAP1 POP SWAP2 SWAP1 POP JUMP JUMPDEST PUSH0 PUSH0 PUSH0 DUP4 DUP2 MSTORE PUSH1 0x20 ADD SWAP1 DUP2 MSTORE PUSH1 0x20 ADD PUSH0 KECCAK256 PUSH1 0x1 ADD SLOAD SWAP1 POP SWAP2 SWAP1 POP JUMP JUMPDEST PUSH1 0x2 SLOAD DUP2 JUMP JUMPDEST PUSH2 0x339 DUP3 PUSH2 0x30E JUMP JUMPDEST PUSH2 0x342 DUP2 PUSH2 0xAEF JUMP JUMPDEST PUSH2 0x34C DUP4 DUP4 PUSH2 0xB03 JUMP JUMPDEST POP POP POP POP JUMP JUMPDEST PUSH2 0x35A PUSH2 0xBEC JUMP JUMPDEST PUSH20 0xFFFFFFFFFFFFFFFFFFFFFFFFFFFFFFFFFFFFFFFF AND DUP2 PUSH20 0xFFFFFFFFFFFFFFFFFFFFFFFFFFFFFFFFFFFFFFFF AND EQ PUSH2 0x3BE JUMPI PUSH1 0x40 MLOAD PUSH32 0x6697B23200000000000000000000000000000000000000000000000000000000 DUP2 MSTORE PUSH1 0x4 ADD PUSH1 0x40 MLOAD DUP1 SWAP2 SUB SWAP1 REVERT JUMPDEST PUSH2 0x3C8 DUP3 DUP3 PUSH2 0xBF3 JUMP JUMPDEST POP POP POP JUMP JUMPDEST PUSH2 0x3D5 PUSH2 0xCDC JUMP JUMPDEST PUSH0 PUSH1 0x3 PUSH0 CALLER PUSH20 0xFFFFFFFFFFFFFFFFFFFFFFFFFFFFFFFFFFFFFFFF AND PUSH20 0xFFFFFFFFFFFFFFFFFFFFFFFFFFFFFFFFFFFFFFFF AND DUP2 MSTORE PUSH1 0x20 ADD SWAP1 DUP2 MSTORE PUSH1 0x20 ADD PUSH0 KECCAK256 SWAP1 POP PUSH0 DUP2 PUSH1 0x4 ADD SLOAD SUB PUSH2 0x68F JUMPI CALLER DUP2 PUSH0 ADD PUSH0 PUSH2 0x100 EXP DUP2 SLOAD DUP2 PUSH20 0xFFFFFFFFFFFFFFFFFFFFFFFFFFFFFFFFFFFFFFFF MUL NOT AND SWAP1 DUP4 PUSH20 0xFFFFFFFFFFFFFFFFFFFFFFFFFFFFFFFFFFFFFFFF AND MUL OR SWAP1 SSTORE POP DUP7 DUP7 DUP3 PUSH1 0x1 ADD SWAP2 DUP3 PUSH2 0x474 SWAP3 SWAP2 SWAP1 PUSH2 0x1686 JUMP JUMPDEST POP DUP5 DUP5 DUP3 PUSH1 0x2 ADD SWAP2 DUP3 PUSH2 0x488 SWAP3 SWAP2 SWAP1 PUSH2 0x1686 JUMP JUMPDEST POP PUSH0 PUSH0 SWAP1 POP JUMPDEST DUP4 DUP4 SWAP1 POP DUP2 LT ISZERO PUSH2 0x506 JUMPI DUP2 PUSH1 0x3 ADD DUP5 DUP5 DUP4 DUP2 DUP2 LT PUSH2 0x4B0 JUMPI PUSH2 0x4AF PUSH2 0x1753 JUMP JUMPDEST JUMPDEST SWAP1 POP PUSH1 0x20 MUL DUP2 ADD SWAP1 PUSH2 0x4C2 SWAP2 SWAP1 PUSH2 0x178C JUMP JUMPDEST SWAP1 SWAP2 DUP1 PUSH1 0x1 DUP2 SLOAD ADD DUP1 DUP3 SSTORE DUP1 SWAP2 POP POP PUSH1 0x1 SWAP1 SUB SWAP1 PUSH0 MSTORE PUSH1 0x20 PUSH0 KECCAK256 ADD PUSH0 SWAP1 SWAP2 SWAP3 SWAP1 SWAP2 SWAP3 SWAP1 SWAP2 SWAP3 SWAP1 SWAP2 SWAP3 POP SWAP2 DUP3 PUSH2 0x4F8 SWAP3 SWAP2 SWAP1 PUSH2 0x1686 JUMP JUMPDEST POP DUP1 DUP1 PUSH1 0x1 ADD SWAP2 POP POP PUSH2 0x48E JUMP JUMPDEST POP TIMESTAMP DUP2 PUSH1 0x4 ADD DUP2 SWAP1 SSTORE POP PUSH1 0x1 DUP2 PUSH1 0x5 ADD PUSH0 PUSH2 0x100 EXP DUP2 SLOAD DUP2 PUSH1 0xFF MUL NOT AND SWAP1 DUP4 ISZERO ISZERO MUL OR SWAP1 SSTORE POP CALLER PUSH20 0xFFFFFFFFFFFFFFFFFFFFFFFFFFFFFFFFFFFFFFFF AND PUSH32 0x92822564BAB8864C3A47B34E8D23FBCE5C46234EB5DA261F94087B995AC0F33B DUP9 DUP9 DUP9 DUP9 PUSH1 0x40 MLOAD PUSH2 0x578 SWAP5 SWAP4 SWAP3 SWAP2 SWAP1 PUSH2 0x1838 JUMP JUMPDEST PUSH1 0x40 MLOAD DUP1 SWAP2 SUB SWAP1 LOG2 DUP1 PUSH1 0x5 ADD PUSH1 0x1 SWAP1 SLOAD SWAP1 PUSH2 0x100 EXP SWAP1 DIV PUSH1 0xFF AND PUSH2 0x68E JUMPI PUSH1 0x1 DUP2 PUSH1 0x5 ADD PUSH1 0x1 PUSH2 0x100 EXP DUP2 SLOAD DUP2 PUSH1 0xFF MUL NOT AND SWAP1 DUP4 ISZERO ISZERO MUL OR SWAP1 SSTORE POP PUSH32 0x0 PUSH20 0xFFFFFFFFFFFFFFFFFFFFFFFFFFFFFFFFFFFFFFFF AND PUSH4 0x40C10F19 CALLER PUSH1 0x2 SLOAD PUSH1 0x40 MLOAD DUP4 PUSH4 0xFFFFFFFF AND PUSH1 0xE0 SHL DUP2 MSTORE PUSH1 0x4 ADD PUSH2 0x610 SWAP3 SWAP2 SWAP1 PUSH2 0x1880 JUMP JUMPDEST PUSH0 PUSH1 0x40 MLOAD DUP1 DUP4 SUB DUP2 PUSH0 DUP8 DUP1 EXTCODESIZE ISZERO DUP1 ISZERO PUSH2 0x627 JUMPI PUSH0 PUSH0 REVERT JUMPDEST POP GAS CALL ISZERO DUP1 ISZERO PUSH2 0x639 JUMPI RETURNDATASIZE PUSH0 PUSH0 RETURNDATACOPY RETURNDATASIZE PUSH0 REVERT JUMPDEST POP POP POP POP CALLER PUSH20 0xFFFFFFFFFFFFFFFFFFFFFFFFFFFFFFFFFFFFFFFF AND PUSH32 0x48ED732E3E0FCB29B2D80EF5A673136179B6B6FC6EF84048BA2547C965A52E74 PUSH1 0x2 SLOAD PUSH1 0x40 MLOAD PUSH2 0x685 SWAP2 SWAP1 PUSH2 0xF31 JUMP JUMPDEST PUSH1 0x40 MLOAD DUP1 SWAP2 SUB SWAP1 LOG2 JUMPDEST JUMPDEST POP PUSH2 0x698 PUSH2 0xD2B JUMP JUMPDEST POP POP POP POP POP POP JUMP JUMPDEST PUSH2 0x6A8 PUSH2 0xD85 JUMP JUMPDEST PUSH1 0x3 PUSH0 DUP4 PUSH20 0xFFFFFFFFFFFFFFFFFFFFFFFFFFFFFFFFFFFFFFFF AND PUSH20 0xFFFFFFFFFFFFFFFFFFFFFFFFFFFFFFFFFFFFFFFF AND DUP2 MSTORE PUSH1 0x20 ADD SWAP1 DUP2 MSTORE PUSH1 0x20 ADD PUSH0 KECCAK256 PUSH1 0x40 MLOAD DUP1 PUSH1 0xE0 ADD PUSH1 0x40 MSTORE SWAP1 DUP2 PUSH0 DUP3 ADD PUSH0 SWAP1 SLOAD SWAP1 PUSH2 0x100 EXP SWAP1 DIV PUSH20 0xFFFFFFFFFFFFFFFFFFFFFFFFFFFFFFFFFFFFFFFF AND PUSH20 0xFFFFFFFFFFFFFFFFFFFFFFFFFFFFFFFFFFFFFFFF AND PUSH20 0xFFFFFFFFFFFFFFFFFFFFFFFFFFFFFFFFFFFFFFFF AND DUP2 MSTORE PUSH1 0x20 ADD PUSH1 0x1 DUP3 ADD DUP1 SLOAD PUSH2 0x754 SWAP1 PUSH2 0x14BF JUMP JUMPDEST DUP1 PUSH1 0x1F ADD PUSH1 0x20 DUP1 SWAP2 DIV MUL PUSH1 0x20 ADD PUSH1 0x40 MLOAD SWAP1 DUP2 ADD PUSH1 0x40 MSTORE DUP1 SWAP3 SWAP2 SWAP1 DUP2 DUP2 MSTORE PUSH1 0x20 ADD DUP3 DUP1 SLOAD PUSH2 0x780 SWAP1 PUSH2 0x14BF JUMP JUMPDEST DUP1 ISZERO PUSH2 0x7CB JUMPI DUP1 PUSH1 0x1F LT PUSH2 0x7A2 JUMPI PUSH2 0x100 DUP1 DUP4 SLOAD DIV MUL DUP4 MSTORE SWAP2 PUSH1 0x20 ADD SWAP2 PUSH2 0x7CB JUMP JUMPDEST DUP3 ADD SWAP2 SWAP1 PUSH0 MSTORE PUSH1 0x20 PUSH0 KECCAK256 SWAP1 JUMPDEST DUP2 SLOAD DUP2 MSTORE SWAP1 PUSH1 0x1 ADD SWAP1 PUSH1 0x20 ADD DUP1 DUP4 GT PUSH2 0x7AE JUMPI DUP3 SWAP1 SUB PUSH1 0x1F AND DUP3 ADD SWAP2 JUMPDEST POP POP POP POP POP DUP2 MSTORE PUSH1 0x20 ADD PUSH1 0x2 DUP3 ADD DUP1 SLOAD PUSH2 0x7E4 SWAP1 PUSH2 0x14BF JUMP JUMPDEST DUP1 PUSH1 0x1F ADD PUSH1 0x20 DUP1 SWAP2 DIV MUL PUSH1 0x20 ADD PUSH1 0x40 MLOAD SWAP1 DUP2 ADD PUSH1 0x40 MSTORE DUP1 SWAP3 SWAP2 SWAP1 DUP2 DUP2 MSTORE PUSH1 0x20 ADD DUP3 DUP1 SLOAD PUSH2 0x810 SWAP1 PUSH2 0x14BF JUMP JUMPDEST DUP1 ISZERO PUSH2 0x85B JUMPI DUP1 PUSH1 0x1F LT PUSH2 0x832 JUMPI PUSH2 0x100 DUP1 DUP4 SLOAD DIV MUL DUP4 MSTORE SWAP2 PUSH1 0x20 ADD SWAP2 PUSH2 0x85B JUMP JUMPDEST DUP3 ADD SWAP2 SWAP1 PUSH0 MSTORE PUSH1 0x20 PUSH0 KECCAK256 SWAP1 JUMPDEST DUP2 SLOAD DUP2 MSTORE SWAP1 PUSH1 0x1 ADD SWAP1 PUSH1 0x20 ADD DUP1 DUP4 GT PUSH2 0x83E JUMPI DUP3 SWAP1 SUB PUSH1 0x1F AND DUP3 ADD SWAP2 JUMPDEST POP POP POP POP POP DUP2 MSTORE PUSH1 0x20 ADD PUSH1 0x3 DUP3 ADD DUP1 SLOAD DUP1 PUSH1 0x20 MUL PUSH1 0x20 ADD PUSH1 0x40 MLOAD SWAP1 DUP2 ADD PUSH1 0x40 MSTORE DUP1 SWAP3 SWAP2 SWAP1 DUP2 DUP2 MSTORE PUSH1 0x20 ADD PUSH0 SWAP1 JUMPDEST DUP3 DUP3 LT ISZERO PUSH2 0x930 JUMPI DUP4 DUP3 SWAP1 PUSH0 MSTORE PUSH1 0x20 PUSH0 KECCAK256 ADD DUP1 SLOAD PUSH2 0x8A5 SWAP1 PUSH2 0x14BF JUMP JUMPDEST DUP1 PUSH1 0x1F ADD PUSH1 0x20 DUP1 SWAP2 DIV MUL PUSH1 0x20 ADD PUSH1 0x40 MLOAD SWAP1 DUP2 ADD PUSH1 0x40 MSTORE DUP1 SWAP3 SWAP2 SWAP1 DUP2 DUP2 MSTORE PUSH1 0x20 ADD DUP3 DUP1 SLOAD PUSH2 0x8D1 SWAP1 PUSH2 0x14BF JUMP JUMPDEST DUP1 ISZERO PUSH2 0x91C JUMPI DUP1 PUSH1 0x1F LT PUSH2 0x8F3 JUMPI PUSH2 0x100 DUP1 DUP4 SLOAD DIV MUL DUP4 MSTORE SWAP2 PUSH1 0x20 ADD SWAP2 PUSH2 0x91C JUMP JUMPDEST DUP3 ADD SWAP2 SWAP1 PUSH0 MSTORE PUSH1 0x20 PUSH0 KECCAK256 SWAP1 JUMPDEST DUP2 SLOAD DUP2 MSTORE SWAP1 PUSH1 0x1 ADD SWAP1 PUSH1 0x20 ADD DUP1 DUP4 GT PUSH2 0x8FF JUMPI DUP3 SWAP1 SUB PUSH1 0x1F AND DUP3 ADD SWAP2 JUMPDEST POP POP POP POP POP DUP2 MSTORE PUSH1 0x20 ADD SWAP1 PUSH1 0x1 ADD SWAP1 PUSH2 0x888 JUMP JUMPDEST POP POP POP POP DUP2 MSTORE PUSH1 0x20 ADD PUSH1 0x4 DUP3 ADD SLOAD DUP2 MSTORE PUSH1 0x20 ADD PUSH1 0x5 DUP3 ADD PUSH0 SWAP1 SLOAD SWAP1 PUSH2 0x100 EXP SWAP1 DIV PUSH1 0xFF AND ISZERO ISZERO ISZERO ISZERO DUP2 MSTORE PUSH1 0x20 ADD PUSH1 0x5 DUP3 ADD PUSH1 0x1 SWAP1 SLOAD SWAP1 PUSH2 0x100 EXP SWAP1 DIV PUSH1 0xFF AND ISZERO ISZERO ISZERO ISZERO DUP2 MSTORE POP POP SWAP1 POP SWAP2 SWAP1 POP JUMP JUMPDEST PUSH32 0xA49807205CE4D355092EF5A8A18F56E8913CF4A201FBE287825B095693C21775 DUP2 JUMP JUMPDEST PUSH0 PUSH0 PUSH0 DUP5 DUP2 MSTORE PUSH1 0x20 ADD SWAP1 DUP2 MSTORE PUSH1 0x20 ADD PUSH0 KECCAK256 PUSH0 ADD PUSH0 DUP4 PUSH20 0xFFFFFFFFFFFFFFFFFFFFFFFFFFFFFFFFFFFFFFFF AND PUSH20 0xFFFFFFFFFFFFFFFFFFFFFFFFFFFFFFFFFFFFFFFF AND DUP2 MSTORE PUSH1 0x20 ADD SWAP1 DUP2 MSTORE PUSH1 0x20 ADD PUSH0 KECCAK256 PUSH0 SWAP1 SLOAD SWAP1 PUSH2 0x100 EXP SWAP1 DIV PUSH1 0xFF AND SWAP1 POP SWAP3 SWAP2 POP POP JUMP JUMPDEST PUSH0 PUSH0 SHL DUP2 JUMP JUMPDEST PUSH32 0xA49807205CE4D355092EF5A8A18F56E8913CF4A201FBE287825B095693C21775 PUSH2 0xA35 DUP2 PUSH2 0xAEF JUMP JUMPDEST DUP2 PUSH1 0x2 DUP2 SWAP1 SSTORE POP POP POP JUMP JUMPDEST PUSH2 0xA49 DUP3 PUSH2 0x30E JUMP JUMPDEST PUSH2 0xA52 DUP2 PUSH2 0xAEF JUMP JUMPDEST PUSH2 0xA5C DUP4 DUP4 PUSH2 0xBF3 JUMP JUMPDEST POP POP POP POP JUMP JUMPDEST PUSH32 0x0 DUP2 JUMP JUMPDEST PUSH0 PUSH32 0x1FFC9A700000000000000000000000000000000000000000000000000000000 PUSH28 0xFFFFFFFFFFFFFFFFFFFFFFFFFFFFFFFFFFFFFFFFFFFFFFFFFFFFFFFF NOT AND DUP3 PUSH28 0xFFFFFFFFFFFFFFFFFFFFFFFFFFFFFFFFFFFFFFFFFFFFFFFFFFFFFFFF NOT AND EQ SWAP1 POP SWAP2 SWAP1 POP JUMP JUMPDEST PUSH2 0xB00 DUP2 PUSH2 0xAFB PUSH2 0xBEC JUMP JUMPDEST PUSH2 0xD34 JUMP JUMPDEST POP JUMP JUMPDEST PUSH0 PUSH2 0xB0E DUP4 DUP4 PUSH2 0x9A2 JUMP JUMPDEST PUSH2 0xBE2 JUMPI PUSH1 0x1 PUSH0 PUSH0 DUP6 DUP2 MSTORE PUSH1 0x20 ADD SWAP1 DUP2 MSTORE PUSH1 0x20 ADD PUSH0 KECCAK256 PUSH0 ADD PUSH0 DUP5 PUSH20 0xFFFFFFFFFFFFFFFFFFFFFFFFFFFFFFFFFFFFFFFF AND PUSH20 0xFFFFFFFFFFFFFFFFFFFFFFFFFFFFFFFFFFFFFFFF AND DUP2 MSTORE PUSH1 0x20 ADD SWAP1 DUP2 MSTORE PUSH1 0x20 ADD PUSH0 KECCAK256 PUSH0 PUSH2 0x100 EXP DUP2 SLOAD DUP2 PUSH1 0xFF MUL NOT AND SWAP1 DUP4 ISZERO ISZERO MUL OR SWAP1 SSTORE POP PUSH2 0xB7F PUSH2 0xBEC JUMP JUMPDEST PUSH20 0xFFFFFFFFFFFFFFFFFFFFFFFFFFFFFFFFFFFFFFFF AND DUP3 PUSH20 0xFFFFFFFFFFFFFFFFFFFFFFFFFFFFFFFFFFFFFFFF AND DUP5 PUSH32 0x2F8788117E7EFF1D82E926EC794901D17C78024A50270940304540A733656F0D PUSH1 0x40 MLOAD PUSH1 0x40 MLOAD DUP1 SWAP2 SUB SWAP1 LOG4 PUSH1 0x1 SWAP1 POP PUSH2 0xBE6 JUMP JUMPDEST PUSH0 SWAP1 POP JUMPDEST SWAP3 SWAP2 POP POP JUMP JUMPDEST PUSH0 CALLER SWAP1 POP SWAP1 JUMP JUMPDEST PUSH0 PUSH2 0xBFE DUP4 DUP4 PUSH2 0x9A2 JUMP JUMPDEST ISZERO PUSH2 0xCD2 JUMPI PUSH0 PUSH0 PUSH0 DUP6 DUP2 MSTORE PUSH1 0x20 ADD SWAP1 DUP2 MSTORE PUSH1 0x20 ADD PUSH0 KECCAK256 PUSH0 ADD PUSH0 DUP5 PUSH20 0xFFFFFFFFFFFFFFFFFFFFFFFFFFFFFFFFFFFFFFFF AND PUSH20 0xFFFFFFFFFFFFFFFFFFFFFFFFFFFFFFFFFFFFFFFF AND DUP2 MSTORE PUSH1 0x20 ADD SWAP1 DUP2 MSTORE PUSH1 0x20 ADD PUSH0 KECCAK256 PUSH0 PUSH2 0x100 EXP DUP2 SLOAD DUP2 PUSH1 0xFF MUL NOT AND SWAP1 DUP4 ISZERO ISZERO MUL OR SWAP1 SSTORE POP PUSH2 0xC6F PUSH2 0xBEC JUMP JUMPDEST PUSH20 0xFFFFFFFFFFFFFFFFFFFFFFFFFFFFFFFFFFFFFFFF AND DUP3 PUSH20 0xFFFFFFFFFFFFFFFFFFFFFFFFFFFFFFFFFFFFFFFF AND DUP5 PUSH32 0xF6391F5C32D9C69D2A47EA670B442974B53935D1EDC7FD64EB21E047A839171B PUSH1 0x40 MLOAD PUSH1 0x40 MLOAD DUP1 SWAP2 SUB SWAP1 LOG4 PUSH1 0x1 SWAP1 POP PUSH2 0xCD6 JUMP JUMPDEST PUSH0 SWAP1 POP JUMPDEST SWAP3 SWAP2 POP POP JUMP JUMPDEST PUSH1 0x2 PUSH1 0x1 SLOAD SUB PUSH2 0xD21 JUMPI PUSH1 0x40 MLOAD PUSH32 0x8C379A000000000000000000000000000000000000000000000000000000000 DUP2 MSTORE PUSH1 0x4 ADD PUSH2 0xD18 SWAP1 PUSH2 0x18F1 JUMP JUMPDEST PUSH1 0x40 MLOAD DUP1 SWAP2 SUB SWAP1 REVERT JUMPDEST PUSH1 0x2 PUSH1 0x1 DUP2 SWAP1 SSTORE POP JUMP JUMPDEST PUSH1 0x1 DUP1 DUP2 SWAP1 SSTORE POP JUMP JUMPDEST PUSH2 0xD3E DUP3 DUP3 PUSH2 0x9A2 JUMP JUMPDEST PUSH2 0xD81 JUMPI DUP1 DUP3 PUSH1 0x40 MLOAD PUSH32 0xE2517D3F00000000000000000000000000000000000000000000000000000000 DUP2 MSTORE PUSH1 0x4 ADD PUSH2 0xD78 SWAP3 SWAP2 SWAP1 PUSH2 0x190F JUMP JUMPDEST PUSH1 0x40 MLOAD DUP1 SWAP2 SUB SWAP1 REVERT JUMPDEST POP POP JUMP JUMPDEST PUSH1 0x40 MLOAD DUP1 PUSH1 0xE0 ADD PUSH1 0x40 MSTORE DUP1 PUSH0 PUSH20 0xFFFFFFFFFFFFFFFFFFFFFFFFFFFFFFFFFFFFFFFF AND DUP2 MSTORE PUSH1 0x20 ADD PUSH1 0x60 DUP2 MSTORE PUSH1 0x20 ADD PUSH1 0x60 DUP2 MSTORE PUSH1 0x20 ADD PUSH1 0x60 DUP2 MSTORE PUSH1 0x20 ADD PUSH0 DUP2 MSTORE PUSH1 0x20 ADD PUSH0 ISZERO ISZERO DUP2 MSTORE PUSH1 0x20 ADD PUSH0 ISZERO ISZERO DUP2 MSTORE POP SWAP1 JUMP JUMPDEST PUSH0 PUSH0 REVERT JUMPDEST PUSH0 PUSH0 REVERT JUMPDEST PUSH0 PUSH32 0xFFFFFFFF00000000000000000000000000000000000000000000000000000000 DUP3 AND SWAP1 POP SWAP2 SWAP1 POP JUMP JUMPDEST PUSH2 0xE14 DUP2 PUSH2 0xDE0 JUMP JUMPDEST DUP2 EQ PUSH2 0xE1E JUMPI PUSH0 PUSH0 REVERT JUMPDEST POP JUMP JUMPDEST PUSH0 DUP2 CALLDATALOAD SWAP1 POP PUSH2 0xE2F DUP2 PUSH2 0xE0B JUMP JUMPDEST SWAP3 SWAP2 POP POP JUMP JUMPDEST PUSH0 PUSH1 0x20 DUP3 DUP5 SUB SLT ISZERO PUSH2 0xE4A JUMPI PUSH2 0xE49 PUSH2 0xDD8 JUMP JUMPDEST JUMPDEST PUSH0 PUSH2 0xE57 DUP5 DUP3 DUP6 ADD PUSH2 0xE21 JUMP JUMPDEST SWAP2 POP POP SWAP3 SWAP2 POP POP JUMP JUMPDEST PUSH0 DUP2 ISZERO ISZERO SWAP1 POP SWAP2 SWAP1 POP JUMP JUMPDEST PUSH2 0xE74 DUP2 PUSH2 0xE60 JUMP JUMPDEST DUP3 MSTORE POP POP JUMP JUMPDEST PUSH0 PUSH1 0x20 DUP3 ADD SWAP1 POP PUSH2 0xE8D PUSH0 DUP4 ADD DUP5 PUSH2 0xE6B JUMP JUMPDEST SWAP3 SWAP2 POP POP JUMP JUMPDEST PUSH0 DUP2 SWAP1 POP SWAP2 SWAP1 POP JUMP JUMPDEST PUSH2 0xEA5 DUP2 PUSH2 0xE93 JUMP JUMPDEST DUP2 EQ PUSH2 0xEAF JUMPI PUSH0 PUSH0 REVERT JUMPDEST POP JUMP JUMPDEST PUSH0 DUP2 CALLDATALOAD SWAP1 POP PUSH2 0xEC0 DUP2 PUSH2 0xE9C JUMP JUMPDEST SWAP3 SWAP2 POP POP JUMP JUMPDEST PUSH0 PUSH1 0x20 DUP3 DUP5 SUB SLT ISZERO PUSH2 0xEDB JUMPI PUSH2 0xEDA PUSH2 0xDD8 JUMP JUMPDEST JUMPDEST PUSH0 PUSH2 0xEE8 DUP5 DUP3 DUP6 ADD PUSH2 0xEB2 JUMP JUMPDEST SWAP2 POP POP SWAP3 SWAP2 POP POP JUMP JUMPDEST PUSH2 0xEFA DUP2 PUSH2 0xE93 JUMP JUMPDEST DUP3 MSTORE POP POP JUMP JUMPDEST PUSH0 PUSH1 0x20 DUP3 ADD SWAP1 POP PUSH2 0xF13 PUSH0 DUP4 ADD DUP5 PUSH2 0xEF1 JUMP JUMPDEST SWAP3 SWAP2 POP POP JUMP JUMPDEST PUSH0 DUP2 SWAP1 POP SWAP2 SWAP1 POP JUMP JUMPDEST PUSH2 0xF2B DUP2 PUSH2 0xF19 JUMP JUMPDEST DUP3 MSTORE POP POP JUMP JUMPDEST PUSH0 PUSH1 0x20 DUP3 ADD SWAP1 POP PUSH2 0xF44 PUSH0 DUP4 ADD DUP5 PUSH2 0xF22 JUMP JUMPDEST SWAP3 SWAP2 POP POP JUMP JUMPDEST PUSH0 PUSH20 0xFFFFFFFFFFFFFFFFFFFFFFFFFFFFFFFFFFFFFFFF DUP3 AND SWAP1 POP SWAP2 SWAP1 POP JUMP JUMPDEST PUSH0 PUSH2 0xF73 DUP3 PUSH2 0xF4A JUMP JUMPDEST SWAP1 POP SWAP2 SWAP1 POP JUMP JUMPDEST PUSH2 0xF83 DUP2 PUSH2 0xF69 JUMP JUMPDEST DUP2 EQ PUSH2 0xF8D JUMPI PUSH0 PUSH0 REVERT JUMPDEST POP JUMP JUMPDEST PUSH0 DUP2 CALLDATALOAD SWAP1 POP PUSH2 0xF9E DUP2 PUSH2 0xF7A JUMP JUMPDEST SWAP3 SWAP2 POP POP JUMP JUMPDEST PUSH0 PUSH0 PUSH1 0x40 DUP4 DUP6 SUB SLT ISZERO PUSH2 0xFBA JUMPI PUSH2 0xFB9 PUSH2 0xDD8 JUMP JUMPDEST JUMPDEST PUSH0 PUSH2 0xFC7 DUP6 DUP3 DUP7 ADD PUSH2 0xEB2 JUMP JUMPDEST SWAP3 POP POP PUSH1 0x20 PUSH2 0xFD8 DUP6 DUP3 DUP7 ADD PUSH2 0xF90 JUMP JUMPDEST SWAP2 POP POP SWAP3 POP SWAP3 SWAP1 POP JUMP JUMPDEST PUSH0 PUSH0 REVERT JUMPDEST PUSH0 PUSH0 REVERT JUMPDEST PUSH0 PUSH0 REVERT JUMPDEST PUSH0 PUSH0 DUP4 PUSH1 0x1F DUP5 ADD SLT PUSH2 0x1003 JUMPI PUSH2 0x1002 PUSH2 0xFE2 JUMP JUMPDEST JUMPDEST DUP3 CALLDATALOAD SWAP1 POP PUSH8 0xFFFFFFFFFFFFFFFF DUP2 GT ISZERO PUSH2 0x1020 JUMPI PUSH2 0x101F PUSH2 0xFE6 JUMP JUMPDEST JUMPDEST PUSH1 0x20 DUP4 ADD SWAP2 POP DUP4 PUSH1 0x1 DUP3 MUL DUP4 ADD GT ISZERO PUSH2 0x103C JUMPI PUSH2 0x103B PUSH2 0xFEA JUMP JUMPDEST JUMPDEST SWAP3 POP SWAP3 SWAP1 POP JUMP JUMPDEST PUSH0 PUSH0 DUP4 PUSH1 0x1F DUP5 ADD SLT PUSH2 0x1058 JUMPI PUSH2 0x1057 PUSH2 0xFE2 JUMP JUMPDEST JUMPDEST DUP3 CALLDATALOAD SWAP1 POP PUSH8 0xFFFFFFFFFFFFFFFF DUP2 GT ISZERO PUSH2 0x1075 JUMPI PUSH2 0x1074 PUSH2 0xFE6 JUMP JUMPDEST JUMPDEST PUSH1 0x20 DUP4 ADD SWAP2 POP DUP4 PUSH1 0x20 DUP3 MUL DUP4 ADD GT ISZERO PUSH2 0x1091 JUMPI PUSH2 0x1090 PUSH2 0xFEA JUMP JUMPDEST JUMPDEST SWAP3 POP SWAP3 SWAP1 POP JUMP JUMPDEST PUSH0 PUSH0 PUSH0 PUSH0 PUSH0 PUSH0 PUSH1 0x60 DUP8 DUP10 SUB SLT ISZERO PUSH2 0x10B2 JUMPI PUSH2 0x10B1 PUSH2 0xDD8 JUMP JUMPDEST JUMPDEST PUSH0 DUP8 ADD CALLDATALOAD PUSH8 0xFFFFFFFFFFFFFFFF DUP2 GT ISZERO PUSH2 0x10CF JUMPI PUSH2 0x10CE PUSH2 0xDDC JUMP JUMPDEST JUMPDEST PUSH2 0x10DB DUP10 DUP3 DUP11 ADD PUSH2 0xFEE JUMP JUMPDEST SWAP7 POP SWAP7 POP POP PUSH1 0x20 DUP8 ADD CALLDATALOAD PUSH8 0xFFFFFFFFFFFFFFFF DUP2 GT ISZERO PUSH2 0x10FE JUMPI PUSH2 0x10FD PUSH2 0xDDC JUMP JUMPDEST JUMPDEST PUSH2 0x110A DUP10 DUP3 DUP11 ADD PUSH2 0xFEE JUMP JUMPDEST SWAP5 POP SWAP5 POP POP PUSH1 0x40 DUP8 ADD CALLDATALOAD PUSH8 0xFFFFFFFFFFFFFFFF DUP2 GT ISZERO PUSH2 0x112D JUMPI PUSH2 0x112C PUSH2 0xDDC JUMP JUMPDEST JUMPDEST PUSH2 0x1139 DUP10 DUP3 DUP11 ADD PUSH2 0x1043 JUMP JUMPDEST SWAP3 POP SWAP3 POP POP SWAP3 SWAP6 POP SWAP3 SWAP6 POP SWAP3 SWAP6 JUMP JUMPDEST PUSH0 PUSH1 0x20 DUP3 DUP5 SUB SLT ISZERO PUSH2 0x115D JUMPI PUSH2 0x115C PUSH2 0xDD8 JUMP JUMPDEST JUMPDEST PUSH0 PUSH2 0x116A DUP5 DUP3 DUP6 ADD PUSH2 0xF90 JUMP JUMPDEST SWAP2 POP POP SWAP3 SWAP2 POP POP JUMP JUMPDEST PUSH2 0x117C DUP2 PUSH2 0xF69 JUMP JUMPDEST DUP3 MSTORE POP POP JUMP JUMPDEST PUSH0 DUP2 MLOAD SWAP1 POP SWAP2 SWAP1 POP JUMP JUMPDEST PUSH0 DUP3 DUP3 MSTORE PUSH1 0x20 DUP3 ADD SWAP1 POP SWAP3 SWAP2 POP POP JUMP JUMPDEST DUP3 DUP2 DUP4 MCOPY PUSH0 DUP4 DUP4 ADD MSTORE POP POP POP JUMP JUMPDEST PUSH0 PUSH1 0x1F NOT PUSH1 0x1F DUP4 ADD AND SWAP1 POP SWAP2 SWAP1 POP JUMP JUMPDEST PUSH0 PUSH2 0x11C4 DUP3 PUSH2 0x1182 JUMP JUMPDEST PUSH2 0x11CE DUP2 DUP6 PUSH2 0x118C JUMP JUMPDEST SWAP4 POP PUSH2 0x11DE DUP2 DUP6 PUSH1 0x20 DUP7 ADD PUSH2 0x119C JUMP JUMPDEST PUSH2 0x11E7 DUP2 PUSH2 0x11AA JUMP JUMPDEST DUP5 ADD SWAP2 POP POP SWAP3 SWAP2 POP POP JUMP JUMPDEST PUSH0 DUP2 MLOAD SWAP1 POP SWAP2 SWAP1 POP JUMP JUMPDEST PUSH0 DUP3 DUP3 MSTORE PUSH1 0x20 DUP3 ADD SWAP1 POP SWAP3 SWAP2 POP POP JUMP JUMPDEST PUSH0 DUP2 SWAP1 POP PUSH1 0x20 DUP3 ADD SWAP1 POP SWAP2 SWAP1 POP JUMP JUMPDEST PUSH0 PUSH2 0x1226 DUP4 DUP4 PUSH2 0x11BA JUMP JUMPDEST SWAP1 POP SWAP3 SWAP2 POP POP JUMP JUMPDEST PUSH0 PUSH1 0x20 DUP3 ADD SWAP1 POP SWAP2 SWAP1 POP JUMP JUMPDEST PUSH0 PUSH2 0x1244 DUP3 PUSH2 0x11F2 JUMP JUMPDEST PUSH2 0x124E DUP2 DUP6 PUSH2 0x11FC JUMP JUMPDEST SWAP4 POP DUP4 PUSH1 0x20 DUP3 MUL DUP6 ADD PUSH2 0x1260 DUP6 PUSH2 0x120C JUMP JUMPDEST DUP1 PUSH0 JUMPDEST DUP6 DUP2 LT ISZERO PUSH2 0x129B JUMPI DUP5 DUP5 SUB DUP10 MSTORE DUP2 MLOAD PUSH2 0x127C DUP6 DUP3 PUSH2 0x121B JUMP JUMPDEST SWAP5 POP PUSH2 0x1287 DUP4 PUSH2 0x122E JUMP JUMPDEST SWAP3 POP PUSH1 0x20 DUP11 ADD SWAP10 POP POP PUSH1 0x1 DUP2 ADD SWAP1 POP PUSH2 0x1263 JUMP JUMPDEST POP DUP3 SWAP8 POP DUP8 SWAP6 POP POP POP POP POP POP SWAP3 SWAP2 POP POP JUMP JUMPDEST PUSH2 0x12B6 DUP2 PUSH2 0xF19 JUMP JUMPDEST DUP3 MSTORE POP POP JUMP JUMPDEST PUSH2 0x12C5 DUP2 PUSH2 0xE60 JUMP JUMPDEST DUP3 MSTORE POP POP JUMP JUMPDEST PUSH0 PUSH1 0xE0 DUP4 ADD PUSH0 DUP4 ADD MLOAD PUSH2 0x12E0 PUSH0 DUP7 ADD DUP3 PUSH2 0x1173 JUMP JUMPDEST POP PUSH1 0x20 DUP4 ADD MLOAD DUP5 DUP3 SUB PUSH1 0x20 DUP7 ADD MSTORE PUSH2 0x12F8 DUP3 DUP3 PUSH2 0x11BA JUMP JUMPDEST SWAP2 POP POP PUSH1 0x40 DUP4 ADD MLOAD DUP5 DUP3 SUB PUSH1 0x40 DUP7 ADD MSTORE PUSH2 0x1312 DUP3 DUP3 PUSH2 0x11BA JUMP JUMPDEST SWAP2 POP POP PUSH1 0x60 DUP4 ADD MLOAD DUP5 DUP3 SUB PUSH1 0x60 DUP7 ADD MSTORE PUSH2 0x132C DUP3 DUP3 PUSH2 0x123A JUMP JUMPDEST SWAP2 POP POP PUSH1 0x80 DUP4 ADD MLOAD PUSH2 0x1341 PUSH1 0x80 DUP7 ADD DUP3 PUSH2 0x12AD JUMP JUMPDEST POP PUSH1 0xA0 DUP4 ADD MLOAD PUSH2 0x1354 PUSH1 0xA0 DUP7 ADD DUP3 PUSH2 0x12BC JUMP JUMPDEST POP PUSH1 0xC0 DUP4 ADD MLOAD PUSH2 0x1367 PUSH1 0xC0 DUP7 ADD DUP3 PUSH2 0x12BC JUMP JUMPDEST POP DUP1 SWAP2 POP POP SWAP3 SWAP2 POP POP JUMP JUMPDEST PUSH0 PUSH1 0x20 DUP3 ADD SWAP1 POP DUP2 DUP2 SUB PUSH0 DUP4 ADD MSTORE PUSH2 0x138A DUP2 DUP5 PUSH2 0x12CB JUMP JUMPDEST SWAP1 POP SWAP3 SWAP2 POP POP JUMP JUMPDEST PUSH2 0x139B DUP2 PUSH2 0xF19 JUMP JUMPDEST DUP2 EQ PUSH2 0x13A5 JUMPI PUSH0 PUSH0 REVERT JUMPDEST POP JUMP JUMPDEST PUSH0 DUP2 CALLDATALOAD SWAP1 POP PUSH2 0x13B6 DUP2 PUSH2 0x1392 JUMP JUMPDEST SWAP3 SWAP2 POP POP JUMP JUMPDEST PUSH0 PUSH1 0x20 DUP3 DUP5 SUB SLT ISZERO PUSH2 0x13D1 JUMPI PUSH2 0x13D0 PUSH2 0xDD8 JUMP JUMPDEST JUMPDEST PUSH0 PUSH2 0x13DE DUP5 DUP3 DUP6 ADD PUSH2 0x13A8 JUMP JUMPDEST SWAP2 POP POP SWAP3 SWAP2 POP POP JUMP JUMPDEST PUSH0 DUP2 SWAP1 POP SWAP2 SWAP1 POP JUMP JUMPDEST PUSH0 PUSH2 0x140A PUSH2 0x1405 PUSH2 0x1400 DUP5 PUSH2 0xF4A JUMP JUMPDEST PUSH2 0x13E7 JUMP JUMPDEST PUSH2 0xF4A JUMP JUMPDEST SWAP1 POP SWAP2 SWAP1 POP JUMP JUMPDEST PUSH0 PUSH2 0x141B DUP3 PUSH2 0x13F0 JUMP JUMPDEST SWAP1 POP SWAP2 SWAP1 POP JUMP JUMPDEST PUSH0 PUSH2 0x142C DUP3 PUSH2 0x1411 JUMP JUMPDEST SWAP1 POP SWAP2 SWAP1 POP JUMP JUMPDEST PUSH2 0x143C DUP2 PUSH2 0x1422 JUMP JUMPDEST DUP3 MSTORE POP POP JUMP JUMPDEST PUSH0 PUSH1 0x20 DUP3 ADD SWAP1 POP PUSH2 0x1455 PUSH0 DUP4 ADD DUP5 PUSH2 0x1433 JUMP JUMPDEST SWAP3 SWAP2 POP POP JUMP JUMPDEST PUSH0 DUP3 SWAP1 POP SWAP3 SWAP2 POP POP JUMP JUMPDEST PUSH32 0x4E487B7100000000000000000000000000000000000000000000000000000000 PUSH0 MSTORE PUSH1 0x41 PUSH1 0x4 MSTORE PUSH1 0x24 PUSH0 REVERT JUMPDEST PUSH32 0x4E487B7100000000000000000000000000000000000000000000000000000000 PUSH0 MSTORE PUSH1 0x22 PUSH1 0x4 MSTORE PUSH1 0x24 PUSH0 REVERT JUMPDEST PUSH0 PUSH1 0x2 DUP3 DIV SWAP1 POP PUSH1 0x1 DUP3 AND DUP1 PUSH2 0x14D6 JUMPI PUSH1 0x7F DUP3 AND SWAP2 POP JUMPDEST PUSH1 0x20 DUP3 LT DUP2 SUB PUSH2 0x14E9 JUMPI PUSH2 0x14E8 PUSH2 0x1492 JUMP JUMPDEST JUMPDEST POP SWAP2 SWAP1 POP JUMP JUMPDEST PUSH0 DUP2 SWAP1 POP DUP2 PUSH0 MSTORE PUSH1 0x20 PUSH0 KECCAK256 SWAP1 POP SWAP2 SWAP1 POP JUMP JUMPDEST PUSH0 PUSH1 0x20 PUSH1 0x1F DUP4 ADD DIV SWAP1 POP SWAP2 SWAP1 POP JUMP JUMPDEST PUSH0 DUP3 DUP3 SHL SWAP1 POP SWAP3 SWAP2 POP POP JUMP JUMPDEST PUSH0 PUSH1 0x8 DUP4 MUL PUSH2 0x154B PUSH32 0xFFFFFFFFFFFFFFFFFFFFFFFFFFFFFFFFFFFFFFFFFFFFFFFFFFFFFFFFFFFFFFFF DUP3 PUSH2 0x1510 JUMP JUMPDEST PUSH2 0x1555 DUP7 DUP4 PUSH2 0x1510 JUMP JUMPDEST SWAP6 POP DUP1 NOT DUP5 AND SWAP4 POP DUP1 DUP7 AND DUP5 OR SWAP3 POP POP POP SWAP4 SWAP3 POP POP POP JUMP JUMPDEST PUSH0 PUSH2 0x1587 PUSH2 0x1582 PUSH2 0x157D DUP5 PUSH2 0xF19 JUMP JUMPDEST PUSH2 0x13E7 JUMP JUMPDEST PUSH2 0xF19 JUMP JUMPDEST SWAP1 POP SWAP2 SWAP1 POP JUMP JUMPDEST PUSH0 DUP2 SWAP1 POP SWAP2 SWAP1 POP JUMP JUMPDEST PUSH2 0x15A0 DUP4 PUSH2 0x156D JUMP JUMPDEST PUSH2 0x15B4 PUSH2 0x15AC DUP3 PUSH2 0x158E JUMP JUMPDEST DUP5 DUP5 SLOAD PUSH2 0x151C JUMP JUMPDEST DUP3 SSTORE POP POP POP POP JUMP JUMPDEST PUSH0 PUSH0 SWAP1 POP SWAP1 JUMP JUMPDEST PUSH2 0x15CB PUSH2 0x15BC JUMP JUMPDEST PUSH2 0x15D6 DUP2 DUP5 DUP5 PUSH2 0x1597 JUMP JUMPDEST POP POP POP JUMP JUMPDEST JUMPDEST DUP2 DUP2 LT ISZERO PUSH2 0x15F9 JUMPI PUSH2 0x15EE PUSH0 DUP3 PUSH2 0x15C3 JUMP JUMPDEST PUSH1 0x1 DUP2 ADD SWAP1 POP PUSH2 0x15DC JUMP JUMPDEST POP POP JUMP JUMPDEST PUSH1 0x1F DUP3 GT ISZERO PUSH2 0x163E JUMPI PUSH2 0x160F DUP2 PUSH2 0x14EF JUMP JUMPDEST PUSH2 0x1618 DUP5 PUSH2 0x1501 JUMP JUMPDEST DUP2 ADD PUSH1 0x20 DUP6 LT ISZERO PUSH2 0x1627 JUMPI DUP2 SWAP1 POP JUMPDEST PUSH2 0x163B PUSH2 0x1633 DUP6 PUSH2 0x1501 JUMP JUMPDEST DUP4 ADD DUP3 PUSH2 0x15DB JUMP JUMPDEST POP POP JUMPDEST POP POP POP JUMP JUMPDEST PUSH0 DUP3 DUP3 SHR SWAP1 POP SWAP3 SWAP2 POP POP JUMP JUMPDEST PUSH0 PUSH2 0x165E PUSH0 NOT DUP5 PUSH1 0x8 MUL PUSH2 0x1643 JUMP JUMPDEST NOT DUP1 DUP4 AND SWAP2 POP POP SWAP3 SWAP2 POP POP JUMP JUMPDEST PUSH0 PUSH2 0x1676 DUP4 DUP4 PUSH2 0x164F JUMP JUMPDEST SWAP2 POP DUP3 PUSH1 0x2 MUL DUP3 OR SWAP1 POP SWAP3 SWAP2 POP POP JUMP JUMPDEST PUSH2 0x1690 DUP4 DUP4 PUSH2 0x145B JUMP JUMPDEST PUSH8 0xFFFFFFFFFFFFFFFF DUP2 GT ISZERO PUSH2 0x16A9 JUMPI PUSH2 0x16A8 PUSH2 0x1465 JUMP JUMPDEST JUMPDEST PUSH2 0x16B3 DUP3 SLOAD PUSH2 0x14BF JUMP JUMPDEST PUSH2 0x16BE DUP3 DUP3 DUP6 PUSH2 0x15FD JUMP JUMPDEST PUSH0 PUSH1 0x1F DUP4 GT PUSH1 0x1 DUP2 EQ PUSH2 0x16EB JUMPI PUSH0 DUP5 ISZERO PUSH2 0x16D9 JUMPI DUP3 DUP8 ADD CALLDATALOAD SWAP1 POP JUMPDEST PUSH2 0x16E3 DUP6 DUP3 PUSH2 0x166B JUMP JUMPDEST DUP7 SSTORE POP PUSH2 0x174A JUMP JUMPDEST PUSH1 0x1F NOT DUP5 AND PUSH2 0x16F9 DUP7 PUSH2 0x14EF JUMP JUMPDEST PUSH0 JUMPDEST DUP3 DUP2 LT ISZERO PUSH2 0x1720 JUMPI DUP5 DUP10 ADD CALLDATALOAD DUP3 SSTORE PUSH1 0x1 DUP3 ADD SWAP2 POP PUSH1 0x20 DUP6 ADD SWAP5 POP PUSH1 0x20 DUP2 ADD SWAP1 POP PUSH2 0x16FB JUMP JUMPDEST DUP7 DUP4 LT ISZERO PUSH2 0x173D JUMPI DUP5 DUP10 ADD CALLDATALOAD PUSH2 0x1739 PUSH1 0x1F DUP10 AND DUP3 PUSH2 0x164F JUMP JUMPDEST DUP4 SSTORE POP JUMPDEST PUSH1 0x1 PUSH1 0x2 DUP9 MUL ADD DUP9 SSTORE POP POP POP JUMPDEST POP POP POP POP POP POP POP JUMP JUMPDEST PUSH32 0x4E487B7100000000000000000000000000000000000000000000000000000000 PUSH0 MSTORE PUSH1 0x32 PUSH1 0x4 MSTORE PUSH1 0x24 PUSH0 REVERT JUMPDEST PUSH0 PUSH0 REVERT JUMPDEST PUSH0 PUSH0 REVERT JUMPDEST PUSH0 PUSH0 REVERT JUMPDEST PUSH0 PUSH0 DUP4 CALLDATALOAD PUSH1 0x1 PUSH1 0x20 SUB DUP5 CALLDATASIZE SUB SUB DUP2 SLT PUSH2 0x17A8 JUMPI PUSH2 0x17A7 PUSH2 0x1780 JUMP JUMPDEST JUMPDEST DUP1 DUP5 ADD SWAP3 POP DUP3 CALLDATALOAD SWAP2 POP PUSH8 0xFFFFFFFFFFFFFFFF DUP3 GT ISZERO PUSH2 0x17CA JUMPI PUSH2 0x17C9 PUSH2 0x1784 JUMP JUMPDEST JUMPDEST PUSH1 0x20 DUP4 ADD SWAP3 POP PUSH1 0x1 DUP3 MUL CALLDATASIZE SUB DUP4 SGT ISZERO PUSH2 0x17E6 JUMPI PUSH2 0x17E5 PUSH2 0x1788 JUMP JUMPDEST JUMPDEST POP SWAP3 POP SWAP3 SWAP1 POP JUMP JUMPDEST PUSH0 DUP3 DUP3 MSTORE PUSH1 0x20 DUP3 ADD SWAP1 POP SWAP3 SWAP2 POP POP JUMP JUMPDEST DUP3 DUP2 DUP4 CALLDATACOPY PUSH0 DUP4 DUP4 ADD MSTORE POP POP POP JUMP JUMPDEST PUSH0 PUSH2 0x1817 DUP4 DUP6 PUSH2 0x17EE JUMP JUMPDEST SWAP4 POP PUSH2 0x1824 DUP4 DUP6 DUP5 PUSH2 0x17FE JUMP JUMPDEST PUSH2 0x182D DUP4 PUSH2 0x11AA JUMP JUMPDEST DUP5 ADD SWAP1 POP SWAP4 SWAP3 POP POP POP JUMP JUMPDEST PUSH0 PUSH1 0x40 DUP3 ADD SWAP1 POP DUP2 DUP2 SUB PUSH0 DUP4 ADD MSTORE PUSH2 0x1851 DUP2 DUP7 DUP9 PUSH2 0x180C JUMP JUMPDEST SWAP1 POP DUP2 DUP2 SUB PUSH1 0x20 DUP4 ADD MSTORE PUSH2 0x1866 DUP2 DUP5 DUP7 PUSH2 0x180C JUMP JUMPDEST SWAP1 POP SWAP6 SWAP5 POP POP POP POP POP JUMP JUMPDEST PUSH2 0x187A DUP2 PUSH2 0xF69 JUMP JUMPDEST DUP3 MSTORE POP POP JUMP JUMPDEST PUSH0 PUSH1 0x40 DUP3 ADD SWAP1 POP PUSH2 0x1893 PUSH0 DUP4 ADD DUP6 PUSH2 0x1871 JUMP JUMPDEST PUSH2 0x18A0 PUSH1 0x20 DUP4 ADD DUP5 PUSH2 0xF22 JUMP JUMPDEST SWAP4 SWAP3 POP POP POP JUMP JUMPDEST PUSH32 0x5265656E7472616E637947756172643A207265656E7472616E742063616C6C00 PUSH0 DUP3 ADD MSTORE POP JUMP JUMPDEST PUSH0 PUSH2 0x18DB PUSH1 0x1F DUP4 PUSH2 0x17EE JUMP JUMPDEST SWAP2 POP PUSH2 0x18E6 DUP3 PUSH2 0x18A7 JUMP JUMPDEST PUSH1 0x20 DUP3 ADD SWAP1 POP SWAP2 SWAP1 POP JUMP JUMPDEST PUSH0 PUSH1 0x20 DUP3 ADD SWAP1 POP DUP2 DUP2 SUB PUSH0 DUP4 ADD MSTORE PUSH2 0x1908 DUP2 PUSH2 0x18CF JUMP JUMPDEST SWAP1 POP SWAP2 SWAP1 POP JUMP JUMPDEST PUSH0 PUSH1 0x40 DUP3 ADD SWAP1 POP PUSH2 0x1922 PUSH0 DUP4 ADD DUP6 PUSH2 0x1871 JUMP JUMPDEST PUSH2 0x192F PUSH1 0x20 DUP4 ADD DUP5 PUSH2 0xEF1 JUMP JUMPDEST SWAP4 SWAP3 POP POP POP JUMP INVALID LOG2 PUSH5 0x6970667358 0x22 SLT KECCAK256 PUSH14 0x22F64812049D7F9022B4D84DC252 SGT 0xB2 TLOAD PUSH26 0x2C361523E96452C8C993D48DDE64736F6C634300081E00330000 "
				},
				"gasEstimates": {
					"creation": {
						"codeDepositCost": "1301600",
						"executionCost": "infinite",
						"totalCost": "infinite"
					},
					"external": {
						"ADMIN_ROLE()": "370",
						"AIRDROP_AMOUNT()": "2470",
						"DEFAULT_ADMIN_ROLE()": "351",
						"getRoleAdmin(bytes32)": "infinite",
						"getUser(address)": "infinite",
						"grantRole(bytes32,address)": "infinite",
						"hasRole(bytes32,address)": "3187",
						"registerIfNeeded(string,string,string[])": "infinite",
						"renounceRole(bytes32,address)": "infinite",
						"revokeRole(bytes32,address)": "infinite",
						"setAirdropAmount(uint256)": "25027",
						"supportsInterface(bytes4)": "718",
						"token()": "infinite"
					}
				},
				"methodIdentifiers": {
					"ADMIN_ROLE()": "75b238fc",
					"AIRDROP_AMOUNT()": "2b5b6872",
					"DEFAULT_ADMIN_ROLE()": "a217fddf",
					"getRoleAdmin(bytes32)": "248a9ca3",
					"getUser(address)": "6f77926b",
					"grantRole(bytes32,address)": "2f2ff15d",
					"hasRole(bytes32,address)": "91d14854",
					"registerIfNeeded(string,string,string[])": "61c452fe",
					"renounceRole(bytes32,address)": "36568abe",
					"revokeRole(bytes32,address)": "d547741f",
					"setAirdropAmount(uint256)": "a5500c30",
					"supportsInterface(bytes4)": "01ffc9a7",
					"token()": "fc0c546a"
				}
			},
			"storageLayout": {
				"storage": [
					{
						"astId": 27,
						"contract": "UserRegistry.sol:UserRegistry",
						"label": "_roles",
						"offset": 0,
						"slot": "0",
						"type": "t_mapping(t_bytes32,t_struct(RoleData)22_storage)"
					},
					{
						"astId": 617,
						"contract": "UserRegistry.sol:UserRegistry",
						"label": "_status",
						"offset": 0,
						"slot": "1",
						"type": "t_uint256"
					},
					{
						"astId": 1895,
						"contract": "UserRegistry.sol:UserRegistry",
						"label": "AIRDROP_AMOUNT",
						"offset": 0,
						"slot": "2",
						"type": "t_uint256"
					},
					{
						"astId": 1916,
						"contract": "UserRegistry.sol:UserRegistry",
						"label": "users",
						"offset": 0,
						"slot": "3",
						"type": "t_mapping(t_address,t_struct(User)1911_storage)"
					}
				],
				"types": {
					"t_address": {
						"encoding": "inplace",
						"label": "address",
						"numberOfBytes": "20"
					},
					"t_array(t_string_storage)dyn_storage": {
						"base": "t_string_storage",
						"encoding": "dynamic_array",
						"label": "string[]",
						"numberOfBytes": "32"
					},
					"t_bool": {
						"encoding": "inplace",
						"label": "bool",
						"numberOfBytes": "1"
					},
					"t_bytes32": {
						"encoding": "inplace",
						"label": "bytes32",
						"numberOfBytes": "32"
					},
					"t_mapping(t_address,t_bool)": {
						"encoding": "mapping",
						"key": "t_address",
						"label": "mapping(address => bool)",
						"numberOfBytes": "32",
						"value": "t_bool"
					},
					"t_mapping(t_address,t_struct(User)1911_storage)": {
						"encoding": "mapping",
						"key": "t_address",
						"label": "mapping(address => struct UserRegistry.User)",
						"numberOfBytes": "32",
						"value": "t_struct(User)1911_storage"
					},
					"t_mapping(t_bytes32,t_struct(RoleData)22_storage)": {
						"encoding": "mapping",
						"key": "t_bytes32",
						"label": "mapping(bytes32 => struct AccessControl.RoleData)",
						"numberOfBytes": "32",
						"value": "t_struct(RoleData)22_storage"
					},
					"t_string_storage": {
						"encoding": "bytes",
						"label": "string",
						"numberOfBytes": "32"
					},
					"t_struct(RoleData)22_storage": {
						"encoding": "inplace",
						"label": "struct AccessControl.RoleData",
						"members": [
							{
								"astId": 19,
								"contract": "UserRegistry.sol:UserRegistry",
								"label": "hasRole",
								"offset": 0,
								"slot": "0",
								"type": "t_mapping(t_address,t_bool)"
							},
							{
								"astId": 21,
								"contract": "UserRegistry.sol:UserRegistry",
								"label": "adminRole",
								"offset": 0,
								"slot": "1",
								"type": "t_bytes32"
							}
						],
						"numberOfBytes": "64"
					},
					"t_struct(User)1911_storage": {
						"encoding": "inplace",
						"label": "struct UserRegistry.User",
						"members": [
							{
								"astId": 1897,
								"contract": "UserRegistry.sol:UserRegistry",
								"label": "wallet",
								"offset": 0,
								"slot": "0",
								"type": "t_address"
							},
							{
								"astId": 1899,
								"contract": "UserRegistry.sol:UserRegistry",
								"label": "nickname",
								"offset": 0,
								"slot": "1",
								"type": "t_string_storage"
							},
							{
								"astId": 1901,
								"contract": "UserRegistry.sol:UserRegistry",
								"label": "city",
								"offset": 0,
								"slot": "2",
								"type": "t_string_storage"
							},
							{
								"astId": 1904,
								"contract": "UserRegistry.sol:UserRegistry",
								"label": "tags",
								"offset": 0,
								"slot": "3",
								"type": "t_array(t_string_storage)dyn_storage"
							},
							{
								"astId": 1906,
								"contract": "UserRegistry.sol:UserRegistry",
								"label": "createdAt",
								"offset": 0,
								"slot": "4",
								"type": "t_uint256"
							},
							{
								"astId": 1908,
								"contract": "UserRegistry.sol:UserRegistry",
								"label": "whiteListed",
								"offset": 0,
								"slot": "5",
								"type": "t_bool"
							},
							{
								"astId": 1910,
								"contract": "UserRegistry.sol:UserRegistry",
								"label": "airdropped",
								"offset": 1,
								"slot": "5",
								"type": "t_bool"
							}
						],
						"numberOfBytes": "192"
					},
					"t_uint256": {
						"encoding": "inplace",
						"label": "uint256",
						"numberOfBytes": "32"
					}
				}
			},
			"userdoc": {
				"kind": "user",
				"methods": {},
				"version": 1
			}
		}
	}
}